{
  "contractName": "ACConditions",
  "abi": [
    {
      "constant": true,
      "inputs": [
        {
          "name": "_contract",
          "type": "address"
        }
      ],
      "name": "is_contract",
      "outputs": [
        {
          "name": "_is_contract",
          "type": "bool"
        }
      ],
      "payable": false,
      "stateMutability": "view",
      "type": "function"
    }
  ],
  "bytecode": "0x6060604052341561000f57600080fd5b60e68061001d6000396000f300606060405260043610603f576000357c0100000000000000000000000000000000000000000000000000000000900463ffffffff168063649c07d5146044575b600080fd5b3415604e57600080fd5b6078600480803573ffffffffffffffffffffffffffffffffffffffff169060200190919050506092565b604051808215151515815260200191505060405180910390f35b600080823b905060018163ffffffff16111560af576001915060b4565b600091505b509190505600a165627a7a72305820d2e3af7875a78e1b62d24d958608f5835bf6a7a3b3ac60ee432a7d40c22ac2840029",
  "source": "pragma solidity ^0.4.19;\n\nimport \"./Constants.sol\";\n\n/// @title Condition based access control\n/// @author DigixGlobal\n\ncontract ACConditions is Constants {\n\n  modifier not_null_address(address _item) {\n    require(_item != NULL_ADDRESS);\n    _;\n  }\n\n  modifier if_null_address(address _item) {\n    require(_item == NULL_ADDRESS);\n    _;\n  }\n\n  modifier not_null_uint(uint256 _item) {\n    require(_item != ZERO);\n    _;\n  }\n\n  modifier if_null_uint(uint256 _item) {\n    require(_item == ZERO);\n    _;\n  }\n\n  modifier not_empty_bytes(bytes32 _item) {\n    require(_item != EMPTY);\n    _;\n  }\n\n  modifier if_empty_bytes(bytes32 _item) {\n    require(_item == EMPTY);\n    _;\n  }\n\n  modifier not_null_string(string _item) {\n    bytes memory _i = bytes(_item);\n    require(_i.length > 0);\n    _;\n  }\n\n  modifier if_null_string(string _item) {\n    bytes memory _i = bytes(_item);\n    require(_i.length == 0);\n    _;\n  }\n\n  modifier require_gas(uint256 _requiredgas) {\n    require(msg.gas  >= (_requiredgas - 22000));\n    _;\n  }\n\n  function is_contract(address _contract)\n           public\n           constant\n           returns (bool _is_contract)\n  {\n    uint32 _code_length;\n\n    assembly {\n      _code_length := extcodesize(_contract)\n    }\n\n    if(_code_length > 1) {\n      _is_contract = true;\n    } else {\n      _is_contract = false;\n    }\n  }\n\n  modifier if_contract(address _contract) {\n    require(is_contract(_contract) == true);\n    _;\n  }\n\n  modifier unless_contract(address _contract) {\n    require(is_contract(_contract) == false);\n    _;\n  }\n\n}\n",
  "sourcePath": "/home/rohit/Develop/cacp-contracts/contracts/ACConditions.sol",
  "compiler": {
    "name": "solc",
    "version": "0.4.19+commit.c4cbbb05.Emscripten.clang"
  },
  "schemaVersion": "1.0.1",
  "updatedAt": "2018-03-16T03:08:38.881Z"
}