{
  "contractName": "ACGroups",
  "abi": [
    {
      "constant": false,
      "inputs": [
        {
          "name": "_new_owner",
          "type": "address"
        }
      ],
      "name": "change_owner",
      "outputs": [
        {
          "name": "_success",
          "type": "bool"
        }
      ],
      "payable": false,
      "stateMutability": "nonpayable",
      "type": "function"
    },
    {
      "constant": true,
      "inputs": [],
      "name": "new_owner",
      "outputs": [
        {
          "name": "",
          "type": "address"
        }
      ],
      "payable": false,
      "stateMutability": "view",
      "type": "function"
    },
    {
      "constant": true,
      "inputs": [],
      "name": "owner",
      "outputs": [
        {
          "name": "",
          "type": "address"
        }
      ],
      "payable": false,
      "stateMutability": "view",
      "type": "function"
    },
    {
      "constant": true,
      "inputs": [],
      "name": "is_owner",
      "outputs": [
        {
          "name": "_is_owner",
          "type": "bool"
        }
      ],
      "payable": false,
      "stateMutability": "view",
      "type": "function"
    },
    {
      "constant": false,
      "inputs": [
        {
          "name": "_newadmin",
          "type": "address"
        }
      ],
      "name": "register_admin",
      "outputs": [
        {
          "name": "_success",
          "type": "bool"
        }
      ],
      "payable": false,
      "stateMutability": "nonpayable",
      "type": "function"
    },
    {
      "constant": false,
      "inputs": [
        {
          "name": "_oldadmin",
          "type": "address"
        }
      ],
      "name": "unregister_admin",
      "outputs": [
        {
          "name": "_success",
          "type": "bool"
        }
      ],
      "payable": false,
      "stateMutability": "nonpayable",
      "type": "function"
    },
    {
      "constant": false,
      "inputs": [
        {
          "name": "_group",
          "type": "bytes32"
        },
        {
          "name": "_user",
          "type": "address"
        }
      ],
      "name": "add_user_to_group",
      "outputs": [
        {
          "name": "_success",
          "type": "bool"
        }
      ],
      "payable": false,
      "stateMutability": "nonpayable",
      "type": "function"
    },
    {
      "constant": false,
      "inputs": [
        {
          "name": "_group",
          "type": "bytes32"
        },
        {
          "name": "_user",
          "type": "address"
        }
      ],
      "name": "delete_user_from_group",
      "outputs": [
        {
          "name": "_success",
          "type": "bool"
        }
      ],
      "payable": false,
      "stateMutability": "nonpayable",
      "type": "function"
    },
    {
      "constant": true,
      "inputs": [
        {
          "name": "_group",
          "type": "bytes32"
        },
        {
          "name": "_user",
          "type": "address"
        }
      ],
      "name": "is_group_member_of",
      "outputs": [
        {
          "name": "_ismember",
          "type": "bool"
        }
      ],
      "payable": false,
      "stateMutability": "view",
      "type": "function"
    },
    {
      "constant": false,
      "inputs": [],
      "name": "claim_ownership",
      "outputs": [
        {
          "name": "_success",
          "type": "bool"
        }
      ],
      "payable": false,
      "stateMutability": "nonpayable",
      "type": "function"
    }
  ],
  "bytecode": "0x60606040526000600160156101000a81548160ff021916908315150217905550341561002a57600080fd5b610b80806100396000396000f3006060604052600436106100a4576000357c0100000000000000000000000000000000000000000000000000000000900463ffffffff1680630207e20e146100a9578063253c8bd4146100fa5780634552b04f1461014b578063682d038a146101a057806379f0a895146101fe5780638da5cb5b1461024f578063ad721ff6146102a4578063b692ee23146102d1578063e6fc01a91461032f578063f7a79a021461038d575b600080fd5b34156100b457600080fd5b6100e0600480803573ffffffffffffffffffffffffffffffffffffffff169060200190919050506103ba565b604051808215151515815260200191505060405180910390f35b341561010557600080fd5b610131600480803573ffffffffffffffffffffffffffffffffffffffff16906020019091905050610468565b604051808215151515815260200191505060405180910390f35b341561015657600080fd5b61015e6104c7565b604051808273ffffffffffffffffffffffffffffffffffffffff1673ffffffffffffffffffffffffffffffffffffffff16815260200191505060405180910390f35b34156101ab57600080fd5b6101e460048080356000191690602001909190803573ffffffffffffffffffffffffffffffffffffffff169060200190919050506104ed565b604051808215151515815260200191505060405180910390f35b341561020957600080fd5b610235600480803573ffffffffffffffffffffffffffffffffffffffff16906020019091905050610636565b604051808215151515815260200191505060405180910390f35b341561025a57600080fd5b6102626106e4565b604051808273ffffffffffffffffffffffffffffffffffffffff1673ffffffffffffffffffffffffffffffffffffffff16815260200191505060405180910390f35b34156102af57600080fd5b6102b7610709565b604051808215151515815260200191505060405180910390f35b34156102dc57600080fd5b61031560048080356000191690602001909190803573ffffffffffffffffffffffffffffffffffffffff16906020019091905050610760565b604051808215151515815260200191505060405180910390f35b341561033a57600080fd5b61037360048080356000191690602001909190803573ffffffffffffffffffffffffffffffffffffffff169060200190919050506108a9565b604051808215151515815260200191505060405180910390f35b341561039857600080fd5b6103a061091c565b604051808215151515815260200191505060405180910390f35b60006103c4610709565b15156103cf57600080fd5b6000600260007f61646d696e73000000000000000000000000000000000000000000000000000060001916815260200190815260200160002060000160008473ffffffffffffffffffffffffffffffffffffffff1673ffffffffffffffffffffffffffffffffffffffff16815260200190815260200160002060006101000a81548160ff02191690831515021790555060019050919050565b6000610472610709565b151561047d57600080fd5b81600160006101000a81548173ffffffffffffffffffffffffffffffffffffffff021916908373ffffffffffffffffffffffffffffffffffffffff16021790555060019050919050565b600160009054906101000a900473ffffffffffffffffffffffffffffffffffffffff1681565b60007f61646d696e73000000000000000000000000000000000000000000000000000060026000826000191660001916815260200190815260200160002060000160003373ffffffffffffffffffffffffffffffffffffffff1673ffffffffffffffffffffffffffffffffffffffff16815260200190815260200160002060009054906101000a900460ff16151561058457600080fd5b7f61646d696e7300000000000000000000000000000000000000000000000000008460001916141515156105b757600080fd5b600160026000866000191660001916815260200190815260200160002060000160008573ffffffffffffffffffffffffffffffffffffffff1673ffffffffffffffffffffffffffffffffffffffff16815260200190815260200160002060006101000a81548160ff021916908315150217905550600191505092915050565b6000610640610709565b151561064b57600080fd5b6001600260007f61646d696e73000000000000000000000000000000000000000000000000000060001916815260200190815260200160002060000160008473ffffffffffffffffffffffffffffffffffffffff1673ffffffffffffffffffffffffffffffffffffffff16815260200190815260200160002060006101000a81548160ff02191690831515021790555060019050919050565b6000809054906101000a900473ffffffffffffffffffffffffffffffffffffffff1681565b60008060009054906101000a900473ffffffffffffffffffffffffffffffffffffffff1673ffffffffffffffffffffffffffffffffffffffff163373ffffffffffffffffffffffffffffffffffffffff1614905090565b60007f61646d696e73000000000000000000000000000000000000000000000000000060026000826000191660001916815260200190815260200160002060000160003373ffffffffffffffffffffffffffffffffffffffff1673ffffffffffffffffffffffffffffffffffffffff16815260200190815260200160002060009054906101000a900460ff1615156107f757600080fd5b7f61646d696e73000000000000000000000000000000000000000000000000000084600019161415151561082a57600080fd5b600060026000866000191660001916815260200190815260200160002060000160008573ffffffffffffffffffffffffffffffffffffffff1673ffffffffffffffffffffffffffffffffffffffff16815260200190815260200160002060006101000a81548160ff021916908315150217905550600191505092915050565b600060026000846000191660001916815260200190815260200160002060000160008373ffffffffffffffffffffffffffffffffffffffff1673ffffffffffffffffffffffffffffffffffffffff16815260200190815260200160002060009054906101000a900460ff16905092915050565b600080600260007f61646d696e73000000000000000000000000000000000000000000000000000060001916815260200190815260200160002060000160008060009054906101000a900473ffffffffffffffffffffffffffffffffffffffff1673ffffffffffffffffffffffffffffffffffffffff1673ffffffffffffffffffffffffffffffffffffffff16815260200190815260200160002060006101000a81548160ff0219169083151502179055506001600260007f61646d696e7300000000000000000000000000000000000000000000000000006000191681526020019081526020016000206000016000600160009054906101000a900473ffffffffffffffffffffffffffffffffffffffff1673ffffffffffffffffffffffffffffffffffffffff1673ffffffffffffffffffffffffffffffffffffffff16815260200190815260200160002060006101000a81548160ff021916908315150217905550610a88610a8d565b905090565b6000600160009054906101000a900473ffffffffffffffffffffffffffffffffffffffff1673ffffffffffffffffffffffffffffffffffffffff163373ffffffffffffffffffffffffffffffffffffffff16141515610aeb57600080fd5b600160009054906101000a900473ffffffffffffffffffffffffffffffffffffffff166000806101000a81548173ffffffffffffffffffffffffffffffffffffffff021916908373ffffffffffffffffffffffffffffffffffffffff16021790555060019050905600a165627a7a72305820dc6e057e1514b3d8574e0a518d497ba2d0dde10da974f1d34744ea78aea2d6f00029",
  "source": "pragma solidity ^0.4.19;\n\nimport \"./ACOwned.sol\";\n\n/// @title Owner based access control\n/// @author DigixGlobal\n\ncontract ACGroups is ACOwned {\n\n  bool is_ac_groups_init = false;\n\n  struct Group {\n    mapping(address => bool) members;\n  }\n\n  mapping (bytes32 => Group) groups;\n\n  modifier if_group(bytes32 _group_name) {\n    require(groups[_group_name].members[msg.sender]);\n    _;\n  }\n\n  function init_ac_groups()\n           internal\n           returns (bool _success)\n  {\n    if(is_ac_owned_init == false) {\n      init_ac_owned();\n    }\n    if(is_ac_groups_init == false) {\n      groups[\"admins\"].members[msg.sender] = true;\n      is_ac_groups_init = true;\n    }\n    _success = true;\n  }\n\n  function register_admin(address _newadmin)\n           if_owner\n           public\n           returns (bool _success)\n  {\n    groups[\"admins\"].members[_newadmin] = true;\n    _success = true;\n  }\n\n  function unregister_admin(address _oldadmin)\n           if_owner\n           public\n           returns (bool _success)\n  {\n    groups[\"admins\"].members[_oldadmin] = false;\n    _success = true;\n  }\n\n  function add_user_to_group(bytes32 _group, address _user)\n           if_group(\"admins\")\n           public\n           returns (bool _success)\n  {\n    require(_group != \"admins\");\n    groups[_group].members[_user] = true;\n    _success = true;\n  }\n\n  function delete_user_from_group(bytes32 _group, address _user)\n           if_group(\"admins\")\n           public\n           returns (bool _success)\n  {\n    require(_group != \"admins\");\n    groups[_group].members[_user] = false;\n    _success = true;\n  }\n\n  function is_group_member_of(bytes32 _group, address _user)\n           public\n           constant\n           returns (bool _ismember)\n  {\n    _ismember = groups[_group].members[_user];\n  }\n\n  function claim_ownership()\n           public\n           returns (bool _success)\n  {\n    // revoke admins role of old owner, add new owner to admins\n    groups[\"admins\"].members[owner] = false;\n    groups[\"admins\"].members[new_owner] = true;\n    _success = super.claim_ownership();\n  }\n}\n",
  "sourcePath": "/home/rohit/Develop/cacp-contracts/contracts/ACGroups.sol",
  "compiler": {
    "name": "solc",
    "version": "0.4.19+commit.c4cbbb05.Emscripten.clang"
  },
  "schemaVersion": "1.0.1",
  "updatedAt": "2018-03-19T06:11:47.552Z"
}