{
  "contractName": "ACOwned",
  "abi": [
    {
      "constant": true,
      "inputs": [],
      "name": "new_owner",
      "outputs": [
        {
          "name": "",
          "type": "address"
        }
      ],
      "payable": false,
      "stateMutability": "view",
      "type": "function"
    },
    {
      "constant": true,
      "inputs": [],
      "name": "owner",
      "outputs": [
        {
          "name": "",
          "type": "address"
        }
      ],
      "payable": false,
      "stateMutability": "view",
      "type": "function"
    },
    {
      "constant": false,
      "inputs": [
        {
          "name": "_new_owner",
          "type": "address"
        }
      ],
      "name": "change_owner",
      "outputs": [
        {
          "name": "_success",
          "type": "bool"
        }
      ],
      "payable": false,
      "stateMutability": "nonpayable",
      "type": "function"
    },
    {
      "constant": false,
      "inputs": [],
      "name": "claim_ownership",
      "outputs": [
        {
          "name": "_success",
          "type": "bool"
        }
      ],
      "payable": false,
      "stateMutability": "nonpayable",
      "type": "function"
    }
  ],
  "bytecode": "0x6060604052341561000f57600080fd5b6103838061001e6000396000f300606060405260043610610062576000357c0100000000000000000000000000000000000000000000000000000000900463ffffffff168063253c8bd4146100675780634552b04f146100b85780638da5cb5b1461010d578063f7a79a0214610162575b600080fd5b341561007257600080fd5b61009e600480803573ffffffffffffffffffffffffffffffffffffffff1690602001909190505061018f565b604051808215151515815260200191505060405180910390f35b34156100c357600080fd5b6100cb6101ee565b604051808273ffffffffffffffffffffffffffffffffffffffff1673ffffffffffffffffffffffffffffffffffffffff16815260200191505060405180910390f35b341561011857600080fd5b610120610214565b604051808273ffffffffffffffffffffffffffffffffffffffff1673ffffffffffffffffffffffffffffffffffffffff16815260200191505060405180910390f35b341561016d57600080fd5b610175610239565b604051808215151515815260200191505060405180910390f35b6000610199610300565b15156101a457600080fd5b81600160006101000a81548173ffffffffffffffffffffffffffffffffffffffff021916908373ffffffffffffffffffffffffffffffffffffffff16021790555060019050919050565b600160009054906101000a900473ffffffffffffffffffffffffffffffffffffffff1681565b6000809054906101000a900473ffffffffffffffffffffffffffffffffffffffff1681565b6000600160009054906101000a900473ffffffffffffffffffffffffffffffffffffffff1673ffffffffffffffffffffffffffffffffffffffff163373ffffffffffffffffffffffffffffffffffffffff1614151561029757600080fd5b600160009054906101000a900473ffffffffffffffffffffffffffffffffffffffff166000806101000a81548173ffffffffffffffffffffffffffffffffffffffff021916908373ffffffffffffffffffffffffffffffffffffffff1602179055506001905090565b60008060009054906101000a900473ffffffffffffffffffffffffffffffffffffffff1673ffffffffffffffffffffffffffffffffffffffff163373ffffffffffffffffffffffffffffffffffffffff16149050905600a165627a7a723058209a7f34b6b6f95e2a91ee9abe3e3a87c7f33387abb1b7f1fff45f41681d5247490029",
  "source": "pragma solidity ^0.4.19;\n\n/// @title Owner based access control\n/// @author DigixGlobal\n\ncontract ACOwned {\n\n  address public owner;\n  address public new_owner;\n  bool is_ac_owned_init;\n\n  /// @dev Modifier to check if msg.sender is the contract owner\n  modifier if_owner() {\n    require(is_owner());\n    _;\n  }\n\n  function init_ac_owned()\n           internal\n           returns (bool _success)\n  {\n    if (is_ac_owned_init == false) {\n      owner = msg.sender;\n      is_ac_owned_init = true;\n    }\n    _success = true;\n  }\n\n  function is_owner()\n           private\n           constant\n           returns (bool _is_owner)\n  {\n    _is_owner = (msg.sender == owner);\n  }\n\n  function change_owner(address _new_owner)\n           if_owner()\n           public\n           returns (bool _success)\n  {\n    new_owner = _new_owner;\n    _success = true;\n  }\n\n  function claim_ownership()\n           public\n           returns (bool _success)\n  {\n    require(msg.sender == new_owner);\n    owner = new_owner;\n    _success = true;\n  }\n\n}\n",
  "sourcePath": "/home/vu/digix/cacp-contracts/contracts/ACOwned.sol",
  "compiler": {
    "name": "solc",
    "version": "0.4.19+commit.c4cbbb05.Emscripten.clang"
  },
  "schemaVersion": "2.0.0",
  "updatedAt": "2018-04-25T08:41:31.284Z"
}