{
  "contractName": "ACOwned",
  "abi": [
    {
      "constant": true,
      "inputs": [],
      "name": "new_owner",
      "outputs": [
        {
          "name": "",
          "type": "address"
        }
      ],
      "payable": false,
      "stateMutability": "view",
      "type": "function"
    },
    {
      "constant": true,
      "inputs": [],
      "name": "owner",
      "outputs": [
        {
          "name": "",
          "type": "address"
        }
      ],
      "payable": false,
      "stateMutability": "view",
      "type": "function"
    },
    {
      "constant": true,
      "inputs": [],
      "name": "is_owner",
      "outputs": [
        {
          "name": "_is_owner",
          "type": "bool"
        }
      ],
      "payable": false,
      "stateMutability": "view",
      "type": "function"
    },
    {
      "constant": false,
      "inputs": [
        {
          "name": "_new_owner",
          "type": "address"
        }
      ],
      "name": "change_owner",
      "outputs": [
        {
          "name": "_success",
          "type": "bool"
        }
      ],
      "payable": false,
      "stateMutability": "nonpayable",
      "type": "function"
    },
    {
      "constant": false,
      "inputs": [],
      "name": "claim_ownership",
      "outputs": [
        {
          "name": "_success",
          "type": "bool"
        }
      ],
      "payable": false,
      "stateMutability": "nonpayable",
      "type": "function"
    }
  ],
  "bytecode": "0x6060604052341561000f57600080fd5b6103bb8061001e6000396000f30060606040526004361061006d576000357c0100000000000000000000000000000000000000000000000000000000900463ffffffff168063253c8bd4146100725780634552b04f146100c35780638da5cb5b14610118578063ad721ff61461016d578063f7a79a021461019a575b600080fd5b341561007d57600080fd5b6100a9600480803573ffffffffffffffffffffffffffffffffffffffff169060200190919050506101c7565b604051808215151515815260200191505060405180910390f35b34156100ce57600080fd5b6100d6610226565b604051808273ffffffffffffffffffffffffffffffffffffffff1673ffffffffffffffffffffffffffffffffffffffff16815260200191505060405180910390f35b341561012357600080fd5b61012b61024c565b604051808273ffffffffffffffffffffffffffffffffffffffff1673ffffffffffffffffffffffffffffffffffffffff16815260200191505060405180910390f35b341561017857600080fd5b610180610271565b604051808215151515815260200191505060405180910390f35b34156101a557600080fd5b6101ad6102c8565b604051808215151515815260200191505060405180910390f35b60006101d1610271565b15156101dc57600080fd5b81600160006101000a81548173ffffffffffffffffffffffffffffffffffffffff021916908373ffffffffffffffffffffffffffffffffffffffff16021790555060019050919050565b600160009054906101000a900473ffffffffffffffffffffffffffffffffffffffff1681565b6000809054906101000a900473ffffffffffffffffffffffffffffffffffffffff1681565b60008060009054906101000a900473ffffffffffffffffffffffffffffffffffffffff1673ffffffffffffffffffffffffffffffffffffffff163373ffffffffffffffffffffffffffffffffffffffff1614905090565b6000600160009054906101000a900473ffffffffffffffffffffffffffffffffffffffff1673ffffffffffffffffffffffffffffffffffffffff163373ffffffffffffffffffffffffffffffffffffffff1614151561032657600080fd5b600160009054906101000a900473ffffffffffffffffffffffffffffffffffffffff166000806101000a81548173ffffffffffffffffffffffffffffffffffffffff021916908373ffffffffffffffffffffffffffffffffffffffff16021790555060019050905600a165627a7a72305820aa01ba57eee7bb7217fe27d11d1a94c8cb210d10c78a1a798b64d1ec79a28c570029",
  "source": "pragma solidity ^0.4.19;\n\n/// @title Owner based access control\n/// @author DigixGlobal\n\ncontract ACOwned {\n\n  address public owner;\n  address public new_owner;\n  bool is_ac_owned_init;\n\n  /// @dev Modifier to check if msg.sender is the contract owner\n  modifier if_owner() {\n    require(is_owner());\n    _;\n  }\n\n  function init_ac_owned()\n           internal\n           returns (bool _success)\n  {\n    if (is_ac_owned_init == false) {\n      owner = msg.sender;\n      is_ac_owned_init = true;\n    }\n    _success = true;\n  }\n\n  function is_owner()\n           public\n           constant\n           returns (bool _is_owner)\n  {\n    _is_owner = (msg.sender == owner);\n  }\n\n  function change_owner(address _new_owner)\n           if_owner()\n           public\n           returns (bool _success)\n  {\n    new_owner = _new_owner;\n    _success = true;\n  }\n\n  function claim_ownership()\n           public\n           returns (bool _success)\n  {\n    require(msg.sender == new_owner);\n    owner = new_owner;\n    _success = true;\n  }\n\n}\n",
  "sourcePath": "/home/rohit/Develop/cacp-contracts/contracts/ACOwned.sol",
  "compiler": {
    "name": "solc",
    "version": "0.4.19+commit.c4cbbb05.Emscripten.clang"
  },
  "schemaVersion": "1.0.1",
  "updatedAt": "2018-03-19T02:59:12.427Z"
}