{
  "contractName": "ACSimpleMutex",
  "abi": [
    {
      "constant": true,
      "inputs": [
        {
          "name": "_mutex_id",
          "type": "bytes32"
        }
      ],
      "name": "is_simple_mutex_locked",
      "outputs": [
        {
          "name": "_locked",
          "type": "bool"
        }
      ],
      "payable": false,
      "stateMutability": "view",
      "type": "function"
    }
  ],
  "bytecode": "0x6060604052341561000f57600080fd5b60dd8061001d6000396000f300606060405260043610603f576000357c0100000000000000000000000000000000000000000000000000000000900463ffffffff16806327379aa7146044575b600080fd5b3415604e57600080fd5b60666004808035600019169060200190919050506080565b604051808215151515815260200191505060405180910390f35b6000806000836000191660001916815260200190815260200160002060009054906101000a900460ff1690509190505600a165627a7a723058204f5435873e13d86a1dd6613c12f6888a2cf003715d00c31b80072865304d11ef0029",
  "source": "pragma solidity ^0.4.19;\n\n/// @title Locking based access control\n/// @author DigixGlobal\n\ncontract ACSimpleMutex {\n\n  mapping (bytes32 => bool) locks;\n\n  modifier if_simple_mutex_is_locked(bytes32 _mutex_id) {\n    require(is_simple_mutex_locked(_mutex_id) == true);\n    _;\n  }\n\n  modifier unless_simple_mutex_is_locked(bytes32 _mutex_id) {\n    require(is_simple_mutex_locked(_mutex_id) == false);\n    _;\n  }\n\n  function lock_simple_mutex(bytes32 _mutex_id)\n           internal\n           returns (bool _success)\n  {\n    locks[_mutex_id] = true;\n    _success = true;\n  }\n\n  function unlock_simple_mutex(bytes32 _mutex_id)\n           internal\n           returns (bool _success)\n  {\n    locks[_mutex_id] = false;\n    _success = true;\n  }\n\n  function is_simple_mutex_locked(bytes32 _mutex_id)\n           public\n           constant\n           returns (bool _locked)\n  {\n    _locked = locks[_mutex_id];\n  }\n\n}\n",
  "sourcePath": "/home/rohit/Develop/cacp-contracts/contracts/ACSimpleMutex.sol",
  "compiler": {
    "name": "solc",
    "version": "0.4.19+commit.c4cbbb05.Emscripten.clang"
  },
  "schemaVersion": "1.0.1",
  "updatedAt": "2018-03-16T03:08:38.882Z"
}