{
  "contractName": "ACSimpleMutex",
  "abi": [
    {
      "constant": true,
      "inputs": [
        {
          "name": "_mutex_id",
          "type": "bytes32"
        }
      ],
      "name": "is_simple_mutex_locked",
      "outputs": [
        {
          "name": "_locked",
          "type": "bool"
        }
      ],
      "payable": false,
      "stateMutability": "view",
      "type": "function"
    }
  ],
  "bytecode": "0x608060405234801561001057600080fd5b5060e78061001f6000396000f300608060405260043610603f576000357c0100000000000000000000000000000000000000000000000000000000900463ffffffff16806327379aa7146044575b600080fd5b348015604f57600080fd5b5060706004803603810190808035600019169060200190929190505050608a565b604051808215151515815260200191505060405180910390f35b6000806000836000191660001916815260200190815260200160002060009054906101000a900460ff1690509190505600a165627a7a7230582065a194c3a38480f861a74a8cf8a131b3ce81e56208ca0d90bd3db4b91f0c7dc20029",
  "source": "pragma solidity ^0.4.19;\n\n/// @title Locking based access control\n/// @author DigixGlobal\n\ncontract ACSimpleMutex {\n\n  mapping (bytes32 => bool) locks;\n\n  modifier if_simple_mutex_is_locked(bytes32 _mutex_id) {\n    require(is_simple_mutex_locked(_mutex_id) == true);\n    _;\n  }\n\n  modifier unless_simple_mutex_is_locked(bytes32 _mutex_id) {\n    require(is_simple_mutex_locked(_mutex_id) == false);\n    _;\n  }\n\n  function lock_simple_mutex(bytes32 _mutex_id)\n           internal\n           returns (bool _success)\n  {\n    locks[_mutex_id] = true;\n    _success = true;\n  }\n\n  function unlock_simple_mutex(bytes32 _mutex_id)\n           internal\n           returns (bool _success)\n  {\n    locks[_mutex_id] = false;\n    _success = true;\n  }\n\n  function is_simple_mutex_locked(bytes32 _mutex_id)\n           public\n           constant\n           returns (bool _locked)\n  {\n    _locked = locks[_mutex_id];\n  }\n\n}\n",
  "sourcePath": "/home/rohit/Develop/cacp-contracts/contracts/ACSimpleMutex.sol",
  "compiler": {
    "name": "solc",
    "version": "0.4.23+commit.124ca40d.Emscripten.clang"
  },
  "schemaVersion": "2.0.0",
  "updatedAt": "2018-05-30T03:27:23.385Z"
}