{
  "contractName": "ACUserLevels",
  "abi": [
    {
      "constant": false,
      "inputs": [
        {
          "name": "_oldadmin",
          "type": "address"
        }
      ],
      "name": "unregister_admin",
      "outputs": [
        {
          "name": "_success",
          "type": "bool"
        }
      ],
      "payable": false,
      "stateMutability": "nonpayable",
      "type": "function"
    },
    {
      "constant": false,
      "inputs": [
        {
          "name": "_new_owner",
          "type": "address"
        }
      ],
      "name": "change_owner",
      "outputs": [
        {
          "name": "_success",
          "type": "bool"
        }
      ],
      "payable": false,
      "stateMutability": "nonpayable",
      "type": "function"
    },
    {
      "constant": true,
      "inputs": [],
      "name": "new_owner",
      "outputs": [
        {
          "name": "",
          "type": "address"
        }
      ],
      "payable": false,
      "stateMutability": "view",
      "type": "function"
    },
    {
      "constant": false,
      "inputs": [
        {
          "name": "_group",
          "type": "bytes32"
        },
        {
          "name": "_user",
          "type": "address"
        }
      ],
      "name": "add_user_to_group",
      "outputs": [
        {
          "name": "_success",
          "type": "bool"
        }
      ],
      "payable": false,
      "stateMutability": "nonpayable",
      "type": "function"
    },
    {
      "constant": false,
      "inputs": [
        {
          "name": "_newadmin",
          "type": "address"
        }
      ],
      "name": "register_admin",
      "outputs": [
        {
          "name": "_success",
          "type": "bool"
        }
      ],
      "payable": false,
      "stateMutability": "nonpayable",
      "type": "function"
    },
    {
      "constant": true,
      "inputs": [],
      "name": "owner",
      "outputs": [
        {
          "name": "",
          "type": "address"
        }
      ],
      "payable": false,
      "stateMutability": "view",
      "type": "function"
    },
    {
      "constant": true,
      "inputs": [],
      "name": "is_owner",
      "outputs": [
        {
          "name": "_is_owner",
          "type": "bool"
        }
      ],
      "payable": false,
      "stateMutability": "view",
      "type": "function"
    },
    {
      "constant": false,
      "inputs": [
        {
          "name": "_group",
          "type": "bytes32"
        },
        {
          "name": "_user",
          "type": "address"
        }
      ],
      "name": "delete_user_from_group",
      "outputs": [
        {
          "name": "_success",
          "type": "bool"
        }
      ],
      "payable": false,
      "stateMutability": "nonpayable",
      "type": "function"
    },
    {
      "constant": true,
      "inputs": [
        {
          "name": "_group",
          "type": "bytes32"
        },
        {
          "name": "_user",
          "type": "address"
        }
      ],
      "name": "is_group_member_of",
      "outputs": [
        {
          "name": "_ismember",
          "type": "bool"
        }
      ],
      "payable": false,
      "stateMutability": "view",
      "type": "function"
    },
    {
      "constant": false,
      "inputs": [],
      "name": "claim_ownership",
      "outputs": [
        {
          "name": "_success",
          "type": "bool"
        }
      ],
      "payable": false,
      "stateMutability": "nonpayable",
      "type": "function"
    }
  ],
  "bytecode": "0x60606040526000600160156101000a81548160ff021916908315150217905550341561002a57600080fd5b610a0f806100396000396000f3006060604052600436106100a4576000357c0100000000000000000000000000000000000000000000000000000000900463ffffffff1680630207e20e146100a9578063253c8bd4146100fa5780634552b04f1461014b578063682d038a146101a057806379f0a895146101fe5780638da5cb5b1461024f578063ad721ff6146102a4578063b692ee23146102d1578063e6fc01a91461032f578063f7a79a021461038d575b600080fd5b34156100b457600080fd5b6100e0600480803573ffffffffffffffffffffffffffffffffffffffff169060200190919050506103ba565b604051808215151515815260200191505060405180910390f35b341561010557600080fd5b610131600480803573ffffffffffffffffffffffffffffffffffffffff16906020019091905050610468565b604051808215151515815260200191505060405180910390f35b341561015657600080fd5b61015e6104c7565b604051808273ffffffffffffffffffffffffffffffffffffffff1673ffffffffffffffffffffffffffffffffffffffff16815260200191505060405180910390f35b34156101ab57600080fd5b6101e460048080356000191690602001909190803573ffffffffffffffffffffffffffffffffffffffff169060200190919050506104ed565b604051808215151515815260200191505060405180910390f35b341561020957600080fd5b610235600480803573ffffffffffffffffffffffffffffffffffffffff16906020019091905050610636565b604051808215151515815260200191505060405180910390f35b341561025a57600080fd5b6102626106e4565b604051808273ffffffffffffffffffffffffffffffffffffffff1673ffffffffffffffffffffffffffffffffffffffff16815260200191505060405180910390f35b34156102af57600080fd5b6102b7610709565b604051808215151515815260200191505060405180910390f35b34156102dc57600080fd5b61031560048080356000191690602001909190803573ffffffffffffffffffffffffffffffffffffffff16906020019091905050610760565b604051808215151515815260200191505060405180910390f35b341561033a57600080fd5b61037360048080356000191690602001909190803573ffffffffffffffffffffffffffffffffffffffff169060200190919050506108a9565b604051808215151515815260200191505060405180910390f35b341561039857600080fd5b6103a061091c565b604051808215151515815260200191505060405180910390f35b60006103c4610709565b15156103cf57600080fd5b6000600260007f61646d696e73000000000000000000000000000000000000000000000000000060001916815260200190815260200160002060000160008473ffffffffffffffffffffffffffffffffffffffff1673ffffffffffffffffffffffffffffffffffffffff16815260200190815260200160002060006101000a81548160ff02191690831515021790555060019050919050565b6000610472610709565b151561047d57600080fd5b81600160006101000a81548173ffffffffffffffffffffffffffffffffffffffff021916908373ffffffffffffffffffffffffffffffffffffffff16021790555060019050919050565b600160009054906101000a900473ffffffffffffffffffffffffffffffffffffffff1681565b60007f61646d696e73000000000000000000000000000000000000000000000000000060026000826000191660001916815260200190815260200160002060000160003373ffffffffffffffffffffffffffffffffffffffff1673ffffffffffffffffffffffffffffffffffffffff16815260200190815260200160002060009054906101000a900460ff16151561058457600080fd5b7f61646d696e7300000000000000000000000000000000000000000000000000008460001916141515156105b757600080fd5b600160026000866000191660001916815260200190815260200160002060000160008573ffffffffffffffffffffffffffffffffffffffff1673ffffffffffffffffffffffffffffffffffffffff16815260200190815260200160002060006101000a81548160ff021916908315150217905550600191505092915050565b6000610640610709565b151561064b57600080fd5b6001600260007f61646d696e73000000000000000000000000000000000000000000000000000060001916815260200190815260200160002060000160008473ffffffffffffffffffffffffffffffffffffffff1673ffffffffffffffffffffffffffffffffffffffff16815260200190815260200160002060006101000a81548160ff02191690831515021790555060019050919050565b6000809054906101000a900473ffffffffffffffffffffffffffffffffffffffff1681565b60008060009054906101000a900473ffffffffffffffffffffffffffffffffffffffff1673ffffffffffffffffffffffffffffffffffffffff163373ffffffffffffffffffffffffffffffffffffffff1614905090565b60007f61646d696e73000000000000000000000000000000000000000000000000000060026000826000191660001916815260200190815260200160002060000160003373ffffffffffffffffffffffffffffffffffffffff1673ffffffffffffffffffffffffffffffffffffffff16815260200190815260200160002060009054906101000a900460ff1615156107f757600080fd5b7f61646d696e73000000000000000000000000000000000000000000000000000084600019161415151561082a57600080fd5b600060026000866000191660001916815260200190815260200160002060000160008573ffffffffffffffffffffffffffffffffffffffff1673ffffffffffffffffffffffffffffffffffffffff16815260200190815260200160002060006101000a81548160ff021916908315150217905550600191505092915050565b600060026000846000191660001916815260200190815260200160002060000160008373ffffffffffffffffffffffffffffffffffffffff1673ffffffffffffffffffffffffffffffffffffffff16815260200190815260200160002060009054906101000a900460ff16905092915050565b6000600160009054906101000a900473ffffffffffffffffffffffffffffffffffffffff1673ffffffffffffffffffffffffffffffffffffffff163373ffffffffffffffffffffffffffffffffffffffff1614151561097a57600080fd5b600160009054906101000a900473ffffffffffffffffffffffffffffffffffffffff166000806101000a81548173ffffffffffffffffffffffffffffffffffffffff021916908373ffffffffffffffffffffffffffffffffffffffff16021790555060019050905600a165627a7a72305820cf150f31c31566116c6357828e1931d7cdbc9206cda1cf011b2d509cc5897fee0029",
  "source": "pragma solidity ^0.4.19;\n\nimport \"./ACGroups.sol\";\n\n/// @title User levels based access control\n/// @author DigixGlobal\n\ncontract ACUserLevels is ACGroups {\n\n  bool is_ac_user_levels_init;\n  mapping (bytes32 => mapping (address => uint8)) user_levels;\n\n  modifier if_above_level(address _user, bytes32 _category, uint8 _required_level) {\n    require(user_levels[_category][_user] > _required_level);\n    _;\n  }\n\n  modifier if_below_level(address _user, bytes32 _category, uint8 _required_level) {\n    require(user_levels[_category][_user] < _required_level);\n    _;\n  }\n\n  modifier if_at_level(address _user, bytes32 _category, uint8 _required_level) {\n    require(user_levels[_category][_user] == _required_level);\n    _;\n  }\n\n  modifier unless_ac_user_levels_initialized() {\n    require(is_ac_user_levels_init == false);\n    _;\n  }\n\n  function init_ac_user_levels()\n           unless_ac_user_levels_initialized()\n           internal\n           returns (bool _success)\n  {\n    is_ac_user_levels_init = true;\n    require(init_ac_groups());\n    require(add_user_to_group(\"uladmins\", msg.sender));\n    _success = true;\n  }\n\n}\n",
  "sourcePath": "/home/vu/digix/cacp-contracts/contracts/ACUserLevels.sol",
  "compiler": {
    "name": "solc",
    "version": "0.4.19+commit.c4cbbb05.Emscripten.clang"
  },
  "schemaVersion": "2.0.0",
  "updatedAt": "2018-03-06T07:13:23.735Z"
}