{
  "contractName": "ContractResolver",
  "abi": [
    {
      "constant": false,
      "inputs": [
        {
          "name": "_oldadmin",
          "type": "address"
        }
      ],
      "name": "unregister_admin",
      "outputs": [
        {
          "name": "_success",
          "type": "bool"
        }
      ],
      "payable": false,
      "stateMutability": "nonpayable",
      "type": "function"
    },
    {
      "constant": false,
      "inputs": [
        {
          "name": "_new_owner",
          "type": "address"
        }
      ],
      "name": "change_owner",
      "outputs": [
        {
          "name": "_success",
          "type": "bool"
        }
      ],
      "payable": false,
      "stateMutability": "nonpayable",
      "type": "function"
    },
    {
      "constant": true,
      "inputs": [],
      "name": "new_owner",
      "outputs": [
        {
          "name": "",
          "type": "address"
        }
      ],
      "payable": false,
      "stateMutability": "view",
      "type": "function"
    },
    {
      "constant": true,
      "inputs": [],
      "name": "time_locked",
      "outputs": [
        {
          "name": "",
          "type": "bool"
        }
      ],
      "payable": false,
      "stateMutability": "view",
      "type": "function"
    },
    {
      "constant": false,
      "inputs": [
        {
          "name": "_group",
          "type": "bytes32"
        },
        {
          "name": "_user",
          "type": "address"
        }
      ],
      "name": "add_user_to_group",
      "outputs": [
        {
          "name": "_success",
          "type": "bool"
        }
      ],
      "payable": false,
      "stateMutability": "nonpayable",
      "type": "function"
    },
    {
      "constant": false,
      "inputs": [
        {
          "name": "_newadmin",
          "type": "address"
        }
      ],
      "name": "register_admin",
      "outputs": [
        {
          "name": "_success",
          "type": "bool"
        }
      ],
      "payable": false,
      "stateMutability": "nonpayable",
      "type": "function"
    },
    {
      "constant": true,
      "inputs": [],
      "name": "owner",
      "outputs": [
        {
          "name": "",
          "type": "address"
        }
      ],
      "payable": false,
      "stateMutability": "view",
      "type": "function"
    },
    {
      "constant": false,
      "inputs": [
        {
          "name": "_group",
          "type": "bytes32"
        },
        {
          "name": "_user",
          "type": "address"
        }
      ],
      "name": "delete_user_from_group",
      "outputs": [
        {
          "name": "_success",
          "type": "bool"
        }
      ],
      "payable": false,
      "stateMutability": "nonpayable",
      "type": "function"
    },
    {
      "constant": true,
      "inputs": [],
      "name": "locked",
      "outputs": [
        {
          "name": "",
          "type": "bool"
        }
      ],
      "payable": false,
      "stateMutability": "view",
      "type": "function"
    },
    {
      "constant": true,
      "inputs": [
        {
          "name": "_group",
          "type": "bytes32"
        },
        {
          "name": "_user",
          "type": "address"
        }
      ],
      "name": "is_group_member_of",
      "outputs": [
        {
          "name": "_ismember",
          "type": "bool"
        }
      ],
      "payable": false,
      "stateMutability": "view",
      "type": "function"
    },
    {
      "constant": true,
      "inputs": [],
      "name": "grace_period",
      "outputs": [
        {
          "name": "",
          "type": "uint256"
        }
      ],
      "payable": false,
      "stateMutability": "view",
      "type": "function"
    },
    {
      "inputs": [],
      "payable": false,
      "stateMutability": "nonpayable",
      "type": "constructor"
    },
    {
      "anonymous": false,
      "inputs": [
        {
          "indexed": true,
          "name": "_contract_name",
          "type": "bytes32"
        },
        {
          "indexed": true,
          "name": "_contract_address",
          "type": "address"
        }
      ],
      "name": "RegisterEvent",
      "type": "event"
    },
    {
      "anonymous": false,
      "inputs": [
        {
          "indexed": true,
          "name": "_contract_name",
          "type": "bytes32"
        }
      ],
      "name": "UnRegisterEvent",
      "type": "event"
    },
    {
      "constant": false,
      "inputs": [
        {
          "name": "_key",
          "type": "bytes32"
        },
        {
          "name": "_contract_address",
          "type": "address"
        }
      ],
      "name": "init_register_contract",
      "outputs": [
        {
          "name": "_success",
          "type": "bool"
        }
      ],
      "payable": false,
      "stateMutability": "nonpayable",
      "type": "function"
    },
    {
      "constant": false,
      "inputs": [],
      "name": "lock_resolver",
      "outputs": [
        {
          "name": "_success",
          "type": "bool"
        }
      ],
      "payable": false,
      "stateMutability": "nonpayable",
      "type": "function"
    },
    {
      "constant": false,
      "inputs": [],
      "name": "unlock_resolver",
      "outputs": [
        {
          "name": "_success",
          "type": "bool"
        }
      ],
      "payable": false,
      "stateMutability": "nonpayable",
      "type": "function"
    },
    {
      "constant": false,
      "inputs": [
        {
          "name": "_grace_period",
          "type": "uint256"
        }
      ],
      "name": "enable_time_locking",
      "outputs": [
        {
          "name": "_success",
          "type": "bool"
        }
      ],
      "payable": false,
      "stateMutability": "nonpayable",
      "type": "function"
    },
    {
      "constant": false,
      "inputs": [
        {
          "name": "_key",
          "type": "bytes32"
        },
        {
          "name": "_contract",
          "type": "address"
        }
      ],
      "name": "register_contract",
      "outputs": [
        {
          "name": "_success",
          "type": "bool"
        }
      ],
      "payable": false,
      "stateMutability": "nonpayable",
      "type": "function"
    },
    {
      "constant": true,
      "inputs": [
        {
          "name": "_key",
          "type": "bytes32"
        }
      ],
      "name": "get_contract",
      "outputs": [
        {
          "name": "_contract",
          "type": "address"
        }
      ],
      "payable": false,
      "stateMutability": "view",
      "type": "function"
    },
    {
      "constant": false,
      "inputs": [],
      "name": "claim_ownership",
      "outputs": [
        {
          "name": "_success",
          "type": "bool"
        }
      ],
      "payable": false,
      "stateMutability": "nonpayable",
      "type": "function"
    }
  ],
  "bytecode": "0x60806040526000600160156101000a81548160ff0219169083151502179055503480156200002c57600080fd5b506200004662000124640100000000026401000000009004565b15156200005257600080fd5b6001600260007f6e7361646d696e7300000000000000000000000000000000000000000000000060001916815260200190815260200160002060000160008060009054906101000a900473ffffffffffffffffffffffffffffffffffffffff1673ffffffffffffffffffffffffffffffffffffffff1673ffffffffffffffffffffffffffffffffffffffff16815260200190815260200160002060006101000a81548160ff0219169083151502179055506000600460006101000a81548160ff021916908315150217905550620002ac565b6000801515600160149054906101000a900460ff16151514156200015d576200015b6200022c640100000000026401000000009004565b505b60001515600160159054906101000a900460ff161515141562000225576001600260007f61646d696e73000000000000000000000000000000000000000000000000000060001916815260200190815260200160002060000160003373ffffffffffffffffffffffffffffffffffffffff1673ffffffffffffffffffffffffffffffffffffffff16815260200190815260200160002060006101000a81548160ff02191690831515021790555060018060156101000a81548160ff0219169083151502179055505b6001905090565b6000801515600160149054906101000a900460ff1615151415620002a557336000806101000a81548173ffffffffffffffffffffffffffffffffffffffff021916908373ffffffffffffffffffffffffffffffffffffffff16021790555060018060146101000a81548160ff0219169083151502179055505b6001905090565b61183a80620002bc6000396000f3006080604052600436106100fc576000357c0100000000000000000000000000000000000000000000000000000000900463ffffffff1680630207e20e14610101578063253c8bd41461015c5780633f83acff146101b75780634552b04f146102285780634cb76b851461027f578063630f1275146102ae578063682d038a146102dd57806374bfd4371461034657806379f0a8951461037557806384a02763146103d05780638da5cb5b14610439578063b692ee2314610490578063c0f6ef4a146104f9578063cf30901214610562578063e6fc01a914610591578063ec5e40c2146105fa578063f7a79a0214610625578063ff574fb414610654575b600080fd5b34801561010d57600080fd5b50610142600480360381019080803573ffffffffffffffffffffffffffffffffffffffff169060200190929190505050610699565b604051808215151515815260200191505060405180910390f35b34801561016857600080fd5b5061019d600480360381019080803573ffffffffffffffffffffffffffffffffffffffff169060200190929190505050610747565b604051808215151515815260200191505060405180910390f35b3480156101c357600080fd5b506101e660048036038101908080356000191690602001909291905050506107a6565b604051808273ffffffffffffffffffffffffffffffffffffffff1673ffffffffffffffffffffffffffffffffffffffff16815260200191505060405180910390f35b34801561023457600080fd5b5061023d610861565b604051808273ffffffffffffffffffffffffffffffffffffffff1673ffffffffffffffffffffffffffffffffffffffff16815260200191505060405180910390f35b34801561028b57600080fd5b50610294610887565b604051808215151515815260200191505060405180910390f35b3480156102ba57600080fd5b506102c361089a565b604051808215151515815260200191505060405180910390f35b3480156102e957600080fd5b5061032c6004803603810190808035600019169060200190929190803573ffffffffffffffffffffffffffffffffffffffff169060200190929190505050610954565b604051808215151515815260200191505060405180910390f35b34801561035257600080fd5b5061035b610a9d565b604051808215151515815260200191505060405180910390f35b34801561038157600080fd5b506103b6600480360381019080803573ffffffffffffffffffffffffffffffffffffffff169060200190929190505050610b57565b604051808215151515815260200191505060405180910390f35b3480156103dc57600080fd5b5061041f6004803603810190808035600019169060200190929190803573ffffffffffffffffffffffffffffffffffffffff169060200190929190505050610c05565b604051808215151515815260200191505060405180910390f35b34801561044557600080fd5b5061044e610f8f565b604051808273ffffffffffffffffffffffffffffffffffffffff1673ffffffffffffffffffffffffffffffffffffffff16815260200191505060405180910390f35b34801561049c57600080fd5b506104df6004803603810190808035600019169060200190929190803573ffffffffffffffffffffffffffffffffffffffff169060200190929190505050610fb4565b604051808215151515815260200191505060405180910390f35b34801561050557600080fd5b506105486004803603810190808035600019169060200190929190803573ffffffffffffffffffffffffffffffffffffffff1690602001909291905050506110fd565b604051808215151515815260200191505060405180910390f35b34801561056e57600080fd5b506105776112e9565b604051808215151515815260200191505060405180910390f35b34801561059d57600080fd5b506105e06004803603810190808035600019169060200190929190803573ffffffffffffffffffffffffffffffffffffffff1690602001909291905050506112fc565b604051808215151515815260200191505060405180910390f35b34801561060657600080fd5b5061060f61136f565b6040518082815260200191505060405180910390f35b34801561063157600080fd5b5061063a611375565b604051808215151515815260200191505060405180910390f35b34801561066057600080fd5b5061067f600480360381019080803590602001909291905050506114e6565b604051808215151515815260200191505060405180910390f35b60006106a361157f565b15156106ae57600080fd5b6000600260007f61646d696e73000000000000000000000000000000000000000000000000000060001916815260200190815260200160002060000160008473ffffffffffffffffffffffffffffffffffffffff1673ffffffffffffffffffffffffffffffffffffffff16815260200190815260200160002060006101000a81548160ff02191690831515021790555060019050919050565b600061075161157f565b151561075c57600080fd5b81600160006101000a81548173ffffffffffffffffffffffffffffffffffffffff021916908373ffffffffffffffffffffffffffffffffffffffff16021790555060019050919050565b60008073ffffffffffffffffffffffffffffffffffffffff1660036000846000191660001916815260200190815260200160002060009054906101000a900473ffffffffffffffffffffffffffffffffffffffff1673ffffffffffffffffffffffffffffffffffffffff161415151561081e57600080fd5b60036000836000191660001916815260200190815260200160002060009054906101000a900473ffffffffffffffffffffffffffffffffffffffff169050919050565b600160009054906101000a900473ffffffffffffffffffffffffffffffffffffffff1681565b600460019054906101000a900460ff1681565b60007f6e7361646d696e7300000000000000000000000000000000000000000000000060026000826000191660001916815260200190815260200160002060000160003373ffffffffffffffffffffffffffffffffffffffff1673ffffffffffffffffffffffffffffffffffffffff16815260200190815260200160002060009054906101000a900460ff16151561093157600080fd5b6001600460006101000a81548160ff021916908315150217905550600191505090565b60007f61646d696e73000000000000000000000000000000000000000000000000000060026000826000191660001916815260200190815260200160002060000160003373ffffffffffffffffffffffffffffffffffffffff1673ffffffffffffffffffffffffffffffffffffffff16815260200190815260200160002060009054906101000a900460ff1615156109eb57600080fd5b7f61646d696e730000000000000000000000000000000000000000000000000000846000191614151515610a1e57600080fd5b600160026000866000191660001916815260200190815260200160002060000160008573ffffffffffffffffffffffffffffffffffffffff1673ffffffffffffffffffffffffffffffffffffffff16815260200190815260200160002060006101000a81548160ff021916908315150217905550600191505092915050565b60007f6e7361646d696e7300000000000000000000000000000000000000000000000060026000826000191660001916815260200190815260200160002060000160003373ffffffffffffffffffffffffffffffffffffffff1673ffffffffffffffffffffffffffffffffffffffff16815260200190815260200160002060009054906101000a900460ff161515610b3457600080fd5b6000600460006101000a81548160ff021916908315150217905550600191505090565b6000610b6161157f565b1515610b6c57600080fd5b6001600260007f61646d696e73000000000000000000000000000000000000000000000000000060001916815260200190815260200160002060000160008473ffffffffffffffffffffffffffffffffffffffff1673ffffffffffffffffffffffffffffffffffffffff16815260200190815260200160002060006101000a81548160ff02191690831515021790555060019050919050565b60007f6e7361646d696e7300000000000000000000000000000000000000000000000060026000826000191660001916815260200190815260200160002060000160003373ffffffffffffffffffffffffffffffffffffffff1673ffffffffffffffffffffffffffffffffffffffff16815260200190815260200160002060009054906101000a900460ff161515610c9c57600080fd5b6000809054906101000a900473ffffffffffffffffffffffffffffffffffffffff1673ffffffffffffffffffffffffffffffffffffffff163273ffffffffffffffffffffffffffffffffffffffff16141515610cf757600080fd5b60001515600460009054906101000a900460ff161515141515610d1957600080fd5b60001515600460019054906101000a900460ff1615151415610e585783600073ffffffffffffffffffffffffffffffffffffffff1660036000836000191660001916815260200190815260200160002060009054906101000a900473ffffffffffffffffffffffffffffffffffffffff1673ffffffffffffffffffffffffffffffffffffffff16141515610dac57600080fd5b8360036000876000191660001916815260200190815260200160002060006101000a81548173ffffffffffffffffffffffffffffffffffffffff021916908373ffffffffffffffffffffffffffffffffffffffff1602179055508373ffffffffffffffffffffffffffffffffffffffff1685600019167f27e557aefbcc3fa913f6a0f3247454cc65d53c65be8555a10a9dbf48a4d70ec760405160405180910390a36001925050610f88565b4260055410151515610e6957600080fd5b83600073ffffffffffffffffffffffffffffffffffffffff1660036000836000191660001916815260200190815260200160002060009054906101000a900473ffffffffffffffffffffffffffffffffffffffff1673ffffffffffffffffffffffffffffffffffffffff16141515610ee057600080fd5b8360036000876000191660001916815260200190815260200160002060006101000a81548173ffffffffffffffffffffffffffffffffffffffff021916908373ffffffffffffffffffffffffffffffffffffffff1602179055508373ffffffffffffffffffffffffffffffffffffffff1685600019167f27e557aefbcc3fa913f6a0f3247454cc65d53c65be8555a10a9dbf48a4d70ec760405160405180910390a360019250505b5092915050565b6000809054906101000a900473ffffffffffffffffffffffffffffffffffffffff1681565b60007f61646d696e73000000000000000000000000000000000000000000000000000060026000826000191660001916815260200190815260200160002060000160003373ffffffffffffffffffffffffffffffffffffffff1673ffffffffffffffffffffffffffffffffffffffff16815260200190815260200160002060009054906101000a900460ff16151561104b57600080fd5b7f61646d696e73000000000000000000000000000000000000000000000000000084600019161415151561107e57600080fd5b600060026000866000191660001916815260200190815260200160002060000160008573ffffffffffffffffffffffffffffffffffffffff1673ffffffffffffffffffffffffffffffffffffffff16815260200190815260200160002060006101000a81548160ff021916908315150217905550600191505092915050565b60008060009054906101000a900473ffffffffffffffffffffffffffffffffffffffff1673ffffffffffffffffffffffffffffffffffffffff163273ffffffffffffffffffffffffffffffffffffffff1614151561115a57600080fd5b60001515600460009054906101000a900460ff16151514151561117c57600080fd5b82600073ffffffffffffffffffffffffffffffffffffffff1660036000836000191660001916815260200190815260200160002060009054906101000a900473ffffffffffffffffffffffffffffffffffffffff1673ffffffffffffffffffffffffffffffffffffffff161415156111f357600080fd5b60001515600460019054906101000a900460ff1615151415611272578260036000866000191660001916815260200190815260200160002060006101000a81548173ffffffffffffffffffffffffffffffffffffffff021916908373ffffffffffffffffffffffffffffffffffffffff160217905550600191506112e2565b426005541015151561128357600080fd5b8260036000866000191660001916815260200190815260200160002060006101000a81548173ffffffffffffffffffffffffffffffffffffffff021916908373ffffffffffffffffffffffffffffffffffffffff160217905550600191505b5092915050565b600460009054906101000a900460ff1681565b600060026000846000191660001916815260200190815260200160002060000160008373ffffffffffffffffffffffffffffffffffffffff1673ffffffffffffffffffffffffffffffffffffffff16815260200190815260200160002060009054906101000a900460ff16905092915050565b60055481565b600080600260007f6e7361646d696e7300000000000000000000000000000000000000000000000060001916815260200190815260200160002060000160008060009054906101000a900473ffffffffffffffffffffffffffffffffffffffff1673ffffffffffffffffffffffffffffffffffffffff1673ffffffffffffffffffffffffffffffffffffffff16815260200190815260200160002060006101000a81548160ff0219169083151502179055506001600260007f6e7361646d696e730000000000000000000000000000000000000000000000006000191681526020019081526020016000206000016000600160009054906101000a900473ffffffffffffffffffffffffffffffffffffffff1673ffffffffffffffffffffffffffffffffffffffff1673ffffffffffffffffffffffffffffffffffffffff16815260200190815260200160002060006101000a81548160ff0219169083151502179055506114e16115d6565b905090565b60006114f061157f565b15156114fb57600080fd5b60001515600460019054906101000a900460ff161515141561154257816005819055506001600460016101000a81548160ff0219169083151502179055506001905061157a565b426005541015151561155357600080fd5b816005819055506001600460016101000a81548160ff021916908315150217905550600190505b919050565b60008060009054906101000a900473ffffffffffffffffffffffffffffffffffffffff1673ffffffffffffffffffffffffffffffffffffffff163373ffffffffffffffffffffffffffffffffffffffff1614905090565b600080600260007f61646d696e73000000000000000000000000000000000000000000000000000060001916815260200190815260200160002060000160008060009054906101000a900473ffffffffffffffffffffffffffffffffffffffff1673ffffffffffffffffffffffffffffffffffffffff1673ffffffffffffffffffffffffffffffffffffffff16815260200190815260200160002060006101000a81548160ff0219169083151502179055506001600260007f61646d696e7300000000000000000000000000000000000000000000000000006000191681526020019081526020016000206000016000600160009054906101000a900473ffffffffffffffffffffffffffffffffffffffff1673ffffffffffffffffffffffffffffffffffffffff1673ffffffffffffffffffffffffffffffffffffffff16815260200190815260200160002060006101000a81548160ff021916908315150217905550611742611747565b905090565b6000600160009054906101000a900473ffffffffffffffffffffffffffffffffffffffff1673ffffffffffffffffffffffffffffffffffffffff163373ffffffffffffffffffffffffffffffffffffffff161415156117a557600080fd5b600160009054906101000a900473ffffffffffffffffffffffffffffffffffffffff166000806101000a81548173ffffffffffffffffffffffffffffffffffffffff021916908373ffffffffffffffffffffffffffffffffffffffff16021790555060019050905600a165627a7a72305820689b14328175564cf8f4627e1a9a1d24c3ef1b5d443e90eb7cb008c1e1d06bfd0029",
  "source": "pragma solidity ^0.4.19;\n\nimport \"./ACGroups.sol\";\nimport \"./Constants.sol\";\n\n/// @title Contract Name Registry\n/// @author DigixGlobal\n\ncontract ContractResolver is ACGroups, Constants {\n\n  mapping (bytes32 => address) contracts;\n  event RegisterEvent(bytes32 indexed _contract_name,\n                      address indexed _contract_address);\n  event UnRegisterEvent(bytes32 indexed _contract_name);\n  bool public locked;\n  bool public time_locked;\n  uint public grace_period;\n\n  modifier unless_registered(bytes32 _key) {\n    require(contracts[_key] == NULL_ADDRESS);\n    _;\n  }\n\n  modifier if_owner_origin() {\n    require(tx.origin == owner);\n    _;\n  }\n\n  /// Function modifier to check if msg.sender corresponds to the resolved address of a given key\n  /// @param _contract The resolver key\n  modifier if_sender_is(bytes32 _contract) {\n    require(msg.sender == get_contract(_contract));\n    _;\n  }\n\n  modifier locked_after_period() {\n    if (time_locked == false) {\n      _;\n    } else {\n      require(grace_period >= now);\n      _;\n    }\n  }\n\n  modifier if_not_locked() {\n    require(locked == false);\n    _;\n  }\n\n  /// @dev ContractResolver constructor will perform the following: 1. Set msg.sender as the contract owner.  2. Adds msg.sender to the default groups 'admins' and 'nsadmins'\n  constructor() public\n  {\n    require(init_ac_groups());\n    groups[\"nsadmins\"].members[owner] = true;\n    locked = false;\n  }\n\n  /// TODO: this function can basically do everything register_contract can do (except for emitting an event). Maybe we should require that this function can only be called by a contract?\n  /// @dev Called at contract initialization\n  /// @param _key bytestring for CACP name\n  /// @param _contract_address The address of the contract to be registered\n  /// @return _success if the operation is successful\n  function init_register_contract(bytes32 _key, address _contract_address)\n           if_owner_origin()\n           if_not_locked()\n           unless_registered(_key)\n           locked_after_period()\n           public\n           returns (bool _success)\n  {\n    contracts[_key] = _contract_address;\n    _success = true;\n  }\n\n  /// @dev Lock the resolver from any further modifications.  This can only be called from an account that is part of the nsadmins group\n  /// @return _success if the operation is successful\n  function lock_resolver()\n           if_group(\"nsadmins\")\n           public\n           returns (bool _success)\n  {\n    locked = true;\n    _success = true;\n  }\n\n  /// @dev Unlock the resolver to allow further modifications.  This can only be called from an account that is part of the nsadmins group\n  /// @return _success if the operation is successful\n  function unlock_resolver()\n           if_group(\"nsadmins\")\n           public\n           returns (bool _success)\n  {\n     locked = false;\n     _success = true;\n  }\n\n  /// @dev Enable time locking. This is potentially dangerous and must be from the owner\n  /// @param _grace_period the unix timestamp when the resolver is locked forever\n  function enable_time_locking(uint _grace_period)\n           if_owner()\n           locked_after_period()\n           public\n           returns (bool _success)\n  {\n    grace_period = _grace_period;\n    time_locked = true;\n    _success = true;\n  }\n\n  /// @dev Register a contract.  This can only be called from an account that is part of the nsadmins group\n  /// @param _key the bytestring of the contract name\n  /// @param _contract the address of the contract\n  /// @return _success if the operation is successful\n  function register_contract(bytes32 _key, address _contract)\n           if_group(\"nsadmins\")\n           if_owner_origin()\n           if_not_locked()\n           locked_after_period()\n           unless_registered(_key)\n           public\n           returns (bool _success)\n  {\n    contracts[_key] = _contract;\n    emit RegisterEvent(_key, _contract);\n    _success = true;\n  }\n\n  /// @dev Unregister a contract.  This can only be called from the contract with the key itself, which should be destroyed in the process\n  /// this must also be originated from the owner of this ContractResolver as well.\n  /// @param _key the bytestring of the contract name\n  /// @return _success if the operation is successful\n  /* function unregister_contract(bytes32 _key)\n           locked_after_period()\n           if_owner_origin()\n           if_not_locked()\n           if_sender_is(_key)\n           public\n           returns (bool _success)\n  {\n    delete contracts[_key];\n    UnRegisterEvent(_key);\n    _success = true;\n  } */\n\n  /// @dev Get address of a contract\n  /// @param _key the bytestring name of the contract to look up\n  /// @return _contract the address of the contract\n  function get_contract(bytes32 _key)\n           public\n           constant\n           returns (address _contract)\n  {\n    require(contracts[_key] != NULL_ADDRESS);\n    _contract = contracts[_key];\n  }\n\n  function claim_ownership()\n           public\n           returns (bool _success)\n  {\n    // revoke nsadmins role of old owner, add new owner to nsadmins\n    groups[\"nsadmins\"].members[owner] = false;\n    groups[\"nsadmins\"].members[new_owner] = true;\n    _success = super.claim_ownership();\n  }\n}\n",
  "sourcePath": "/home/rohit/Develop/cacp-contracts/contracts/ContractResolver.sol",
  "compiler": {
    "name": "solc",
    "version": "0.4.24+commit.e67f0147.Emscripten.clang"
  },
  "schemaVersion": "2.0.0",
  "updatedAt": "2018-08-17T06:51:00.387Z"
}