{
  "contractName": "ContractResolver",
  "abi": [
    {
      "constant": false,
      "inputs": [
        {
          "name": "_oldadmin",
          "type": "address"
        }
      ],
      "name": "unregister_admin",
      "outputs": [
        {
          "name": "_success",
          "type": "bool"
        }
      ],
      "payable": false,
      "stateMutability": "nonpayable",
      "type": "function"
    },
    {
      "constant": false,
      "inputs": [
        {
          "name": "_new_owner",
          "type": "address"
        }
      ],
      "name": "change_owner",
      "outputs": [
        {
          "name": "_success",
          "type": "bool"
        }
      ],
      "payable": false,
      "stateMutability": "nonpayable",
      "type": "function"
    },
    {
      "constant": true,
      "inputs": [],
      "name": "new_owner",
      "outputs": [
        {
          "name": "",
          "type": "address"
        }
      ],
      "payable": false,
      "stateMutability": "view",
      "type": "function"
    },
    {
      "constant": true,
      "inputs": [],
      "name": "time_locked",
      "outputs": [
        {
          "name": "",
          "type": "bool"
        }
      ],
      "payable": false,
      "stateMutability": "view",
      "type": "function"
    },
    {
      "constant": false,
      "inputs": [
        {
          "name": "_group",
          "type": "bytes32"
        },
        {
          "name": "_user",
          "type": "address"
        }
      ],
      "name": "add_user_to_group",
      "outputs": [
        {
          "name": "_success",
          "type": "bool"
        }
      ],
      "payable": false,
      "stateMutability": "nonpayable",
      "type": "function"
    },
    {
      "constant": false,
      "inputs": [
        {
          "name": "_newadmin",
          "type": "address"
        }
      ],
      "name": "register_admin",
      "outputs": [
        {
          "name": "_success",
          "type": "bool"
        }
      ],
      "payable": false,
      "stateMutability": "nonpayable",
      "type": "function"
    },
    {
      "constant": true,
      "inputs": [],
      "name": "owner",
      "outputs": [
        {
          "name": "",
          "type": "address"
        }
      ],
      "payable": false,
      "stateMutability": "view",
      "type": "function"
    },
    {
      "constant": true,
      "inputs": [],
      "name": "is_owner",
      "outputs": [
        {
          "name": "_is_owner",
          "type": "bool"
        }
      ],
      "payable": false,
      "stateMutability": "view",
      "type": "function"
    },
    {
      "constant": false,
      "inputs": [
        {
          "name": "_group",
          "type": "bytes32"
        },
        {
          "name": "_user",
          "type": "address"
        }
      ],
      "name": "delete_user_from_group",
      "outputs": [
        {
          "name": "_success",
          "type": "bool"
        }
      ],
      "payable": false,
      "stateMutability": "nonpayable",
      "type": "function"
    },
    {
      "constant": true,
      "inputs": [],
      "name": "locked",
      "outputs": [
        {
          "name": "",
          "type": "bool"
        }
      ],
      "payable": false,
      "stateMutability": "view",
      "type": "function"
    },
    {
      "constant": true,
      "inputs": [
        {
          "name": "_group",
          "type": "bytes32"
        },
        {
          "name": "_user",
          "type": "address"
        }
      ],
      "name": "is_group_member_of",
      "outputs": [
        {
          "name": "_ismember",
          "type": "bool"
        }
      ],
      "payable": false,
      "stateMutability": "view",
      "type": "function"
    },
    {
      "constant": true,
      "inputs": [],
      "name": "grace_period",
      "outputs": [
        {
          "name": "",
          "type": "uint256"
        }
      ],
      "payable": false,
      "stateMutability": "view",
      "type": "function"
    },
    {
      "inputs": [],
      "payable": false,
      "stateMutability": "nonpayable",
      "type": "constructor"
    },
    {
      "anonymous": false,
      "inputs": [
        {
          "indexed": true,
          "name": "_contract_name",
          "type": "bytes32"
        },
        {
          "indexed": true,
          "name": "_contract_address",
          "type": "address"
        }
      ],
      "name": "RegisterEvent",
      "type": "event"
    },
    {
      "anonymous": false,
      "inputs": [
        {
          "indexed": true,
          "name": "_contract_name",
          "type": "bytes32"
        }
      ],
      "name": "UnRegisterEvent",
      "type": "event"
    },
    {
      "constant": false,
      "inputs": [
        {
          "name": "_key",
          "type": "bytes32"
        },
        {
          "name": "_contract_address",
          "type": "address"
        }
      ],
      "name": "init_register_contract",
      "outputs": [
        {
          "name": "_success",
          "type": "bool"
        }
      ],
      "payable": false,
      "stateMutability": "nonpayable",
      "type": "function"
    },
    {
      "constant": false,
      "inputs": [],
      "name": "lock_resolver",
      "outputs": [
        {
          "name": "_success",
          "type": "bool"
        }
      ],
      "payable": false,
      "stateMutability": "nonpayable",
      "type": "function"
    },
    {
      "constant": false,
      "inputs": [],
      "name": "unlock_resolver",
      "outputs": [
        {
          "name": "_success",
          "type": "bool"
        }
      ],
      "payable": false,
      "stateMutability": "nonpayable",
      "type": "function"
    },
    {
      "constant": false,
      "inputs": [
        {
          "name": "_grace_period",
          "type": "uint256"
        }
      ],
      "name": "enable_time_locking",
      "outputs": [
        {
          "name": "_success",
          "type": "bool"
        }
      ],
      "payable": false,
      "stateMutability": "nonpayable",
      "type": "function"
    },
    {
      "constant": false,
      "inputs": [
        {
          "name": "_key",
          "type": "bytes32"
        },
        {
          "name": "_contract",
          "type": "address"
        }
      ],
      "name": "register_contract",
      "outputs": [
        {
          "name": "_success",
          "type": "bool"
        }
      ],
      "payable": false,
      "stateMutability": "nonpayable",
      "type": "function"
    },
    {
      "constant": false,
      "inputs": [
        {
          "name": "_key",
          "type": "bytes32"
        }
      ],
      "name": "unregister_contract",
      "outputs": [
        {
          "name": "_success",
          "type": "bool"
        }
      ],
      "payable": false,
      "stateMutability": "nonpayable",
      "type": "function"
    },
    {
      "constant": true,
      "inputs": [
        {
          "name": "_key",
          "type": "bytes32"
        }
      ],
      "name": "get_contract",
      "outputs": [
        {
          "name": "_contract",
          "type": "address"
        }
      ],
      "payable": false,
      "stateMutability": "view",
      "type": "function"
    },
    {
      "constant": false,
      "inputs": [],
      "name": "claim_ownership",
      "outputs": [
        {
          "name": "_success",
          "type": "bool"
        }
      ],
      "payable": false,
      "stateMutability": "nonpayable",
      "type": "function"
    }
  ],
  "bytecode": "0x60606040526000600160156101000a81548160ff02191690831515021790555034156200002b57600080fd5b62000049620001276401000000000262001ab8176401000000009004565b15156200005557600080fd5b6001600260007f6e7361646d696e7300000000000000000000000000000000000000000000000060001916815260200190815260200160002060000160008060009054906101000a900473ffffffffffffffffffffffffffffffffffffffff1673ffffffffffffffffffffffffffffffffffffffff1673ffffffffffffffffffffffffffffffffffffffff16815260200190815260200160002060006101000a81548160ff0219169083151502179055506000600460006101000a81548160ff021916908315150217905550620002b4565b6000801515600160149054906101000a900460ff1615151415620001655762000163620002346401000000000262001bad176401000000009004565b505b60001515600160159054906101000a900460ff16151514156200022d576001600260007f61646d696e73000000000000000000000000000000000000000000000000000060001916815260200190815260200160002060000160003373ffffffffffffffffffffffffffffffffffffffff1673ffffffffffffffffffffffffffffffffffffffff16815260200190815260200160002060006101000a81548160ff02191690831515021790555060018060156101000a81548160ff0219169083151502179055505b6001905090565b6000801515600160149054906101000a900460ff1615151415620002ad57336000806101000a81548173ffffffffffffffffffffffffffffffffffffffff021916908373ffffffffffffffffffffffffffffffffffffffff16021790555060018060146101000a81548160ff0219169083151502179055505b6001905090565b611c5880620002c46000396000f300606060405260043610610112576000357c0100000000000000000000000000000000000000000000000000000000900463ffffffff1680630207e20e14610117578063253c8bd4146101685780633f83acff146101b95780634552b04f146102205780634cb76b8514610275578063630f1275146102a2578063682d038a146102cf57806374bfd4371461032d57806379f0a8951461035a57806384a02763146103ab5780638da5cb5b14610409578063ad721ff61461045e578063b692ee231461048b578063c0f6ef4a146104e9578063c8b56bda14610547578063cf30901214610586578063e6fc01a9146105b3578063ec5e40c214610611578063f7a79a021461063a578063ff574fb414610667575b600080fd5b341561012257600080fd5b61014e600480803573ffffffffffffffffffffffffffffffffffffffff169060200190919050506106a2565b604051808215151515815260200191505060405180910390f35b341561017357600080fd5b61019f600480803573ffffffffffffffffffffffffffffffffffffffff16906020019091905050610750565b604051808215151515815260200191505060405180910390f35b34156101c457600080fd5b6101de6004808035600019169060200190919050506107af565b604051808273ffffffffffffffffffffffffffffffffffffffff1673ffffffffffffffffffffffffffffffffffffffff16815260200191505060405180910390f35b341561022b57600080fd5b61023361086a565b604051808273ffffffffffffffffffffffffffffffffffffffff1673ffffffffffffffffffffffffffffffffffffffff16815260200191505060405180910390f35b341561028057600080fd5b610288610890565b604051808215151515815260200191505060405180910390f35b34156102ad57600080fd5b6102b56108a3565b604051808215151515815260200191505060405180910390f35b34156102da57600080fd5b61031360048080356000191690602001909190803573ffffffffffffffffffffffffffffffffffffffff1690602001909190505061095d565b604051808215151515815260200191505060405180910390f35b341561033857600080fd5b610340610aa6565b604051808215151515815260200191505060405180910390f35b341561036557600080fd5b610391600480803573ffffffffffffffffffffffffffffffffffffffff16906020019091905050610b60565b604051808215151515815260200191505060405180910390f35b34156103b657600080fd5b6103ef60048080356000191690602001909190803573ffffffffffffffffffffffffffffffffffffffff16906020019091905050610c0e565b604051808215151515815260200191505060405180910390f35b341561041457600080fd5b61041c610f98565b604051808273ffffffffffffffffffffffffffffffffffffffff1673ffffffffffffffffffffffffffffffffffffffff16815260200191505060405180910390f35b341561046957600080fd5b610471610fbd565b604051808215151515815260200191505060405180910390f35b341561049657600080fd5b6104cf60048080356000191690602001909190803573ffffffffffffffffffffffffffffffffffffffff16906020019091905050611014565b604051808215151515815260200191505060405180910390f35b34156104f457600080fd5b61052d60048080356000191690602001909190803573ffffffffffffffffffffffffffffffffffffffff1690602001909190505061115d565b604051808215151515815260200191505060405180910390f35b341561055257600080fd5b61056c600480803560001916906020019091905050611349565b604051808215151515815260200191505060405180910390f35b341561059157600080fd5b6105996115ea565b604051808215151515815260200191505060405180910390f35b34156105be57600080fd5b6105f760048080356000191690602001909190803573ffffffffffffffffffffffffffffffffffffffff169060200190919050506115fd565b604051808215151515815260200191505060405180910390f35b341561061c57600080fd5b610624611670565b6040518082815260200191505060405180910390f35b341561064557600080fd5b61064d611676565b604051808215151515815260200191505060405180910390f35b341561067257600080fd5b61068860048080359060200190919050506117e7565b604051808215151515815260200191505060405180910390f35b60006106ac610fbd565b15156106b757600080fd5b6000600260007f61646d696e73000000000000000000000000000000000000000000000000000060001916815260200190815260200160002060000160008473ffffffffffffffffffffffffffffffffffffffff1673ffffffffffffffffffffffffffffffffffffffff16815260200190815260200160002060006101000a81548160ff02191690831515021790555060019050919050565b600061075a610fbd565b151561076557600080fd5b81600160006101000a81548173ffffffffffffffffffffffffffffffffffffffff021916908373ffffffffffffffffffffffffffffffffffffffff16021790555060019050919050565b60008073ffffffffffffffffffffffffffffffffffffffff1660036000846000191660001916815260200190815260200160002060009054906101000a900473ffffffffffffffffffffffffffffffffffffffff1673ffffffffffffffffffffffffffffffffffffffff161415151561082757600080fd5b60036000836000191660001916815260200190815260200160002060009054906101000a900473ffffffffffffffffffffffffffffffffffffffff169050919050565b600160009054906101000a900473ffffffffffffffffffffffffffffffffffffffff1681565b600460019054906101000a900460ff1681565b60007f6e7361646d696e7300000000000000000000000000000000000000000000000060026000826000191660001916815260200190815260200160002060000160003373ffffffffffffffffffffffffffffffffffffffff1673ffffffffffffffffffffffffffffffffffffffff16815260200190815260200160002060009054906101000a900460ff16151561093a57600080fd5b6001600460006101000a81548160ff021916908315150217905550600191505090565b60007f61646d696e73000000000000000000000000000000000000000000000000000060026000826000191660001916815260200190815260200160002060000160003373ffffffffffffffffffffffffffffffffffffffff1673ffffffffffffffffffffffffffffffffffffffff16815260200190815260200160002060009054906101000a900460ff1615156109f457600080fd5b7f61646d696e730000000000000000000000000000000000000000000000000000846000191614151515610a2757600080fd5b600160026000866000191660001916815260200190815260200160002060000160008573ffffffffffffffffffffffffffffffffffffffff1673ffffffffffffffffffffffffffffffffffffffff16815260200190815260200160002060006101000a81548160ff021916908315150217905550600191505092915050565b60007f6e7361646d696e7300000000000000000000000000000000000000000000000060026000826000191660001916815260200190815260200160002060000160003373ffffffffffffffffffffffffffffffffffffffff1673ffffffffffffffffffffffffffffffffffffffff16815260200190815260200160002060009054906101000a900460ff161515610b3d57600080fd5b6000600460006101000a81548160ff021916908315150217905550600191505090565b6000610b6a610fbd565b1515610b7557600080fd5b6001600260007f61646d696e73000000000000000000000000000000000000000000000000000060001916815260200190815260200160002060000160008473ffffffffffffffffffffffffffffffffffffffff1673ffffffffffffffffffffffffffffffffffffffff16815260200190815260200160002060006101000a81548160ff02191690831515021790555060019050919050565b60007f6e7361646d696e7300000000000000000000000000000000000000000000000060026000826000191660001916815260200190815260200160002060000160003373ffffffffffffffffffffffffffffffffffffffff1673ffffffffffffffffffffffffffffffffffffffff16815260200190815260200160002060009054906101000a900460ff161515610ca557600080fd5b6000809054906101000a900473ffffffffffffffffffffffffffffffffffffffff1673ffffffffffffffffffffffffffffffffffffffff163273ffffffffffffffffffffffffffffffffffffffff16141515610d0057600080fd5b60001515600460009054906101000a900460ff161515141515610d2257600080fd5b60001515600460019054906101000a900460ff1615151415610e615783600073ffffffffffffffffffffffffffffffffffffffff1660036000836000191660001916815260200190815260200160002060009054906101000a900473ffffffffffffffffffffffffffffffffffffffff1673ffffffffffffffffffffffffffffffffffffffff16141515610db557600080fd5b8360036000876000191660001916815260200190815260200160002060006101000a81548173ffffffffffffffffffffffffffffffffffffffff021916908373ffffffffffffffffffffffffffffffffffffffff1602179055508373ffffffffffffffffffffffffffffffffffffffff1685600019167f27e557aefbcc3fa913f6a0f3247454cc65d53c65be8555a10a9dbf48a4d70ec760405160405180910390a36001925050610f91565b4260055410151515610e7257600080fd5b83600073ffffffffffffffffffffffffffffffffffffffff1660036000836000191660001916815260200190815260200160002060009054906101000a900473ffffffffffffffffffffffffffffffffffffffff1673ffffffffffffffffffffffffffffffffffffffff16141515610ee957600080fd5b8360036000876000191660001916815260200190815260200160002060006101000a81548173ffffffffffffffffffffffffffffffffffffffff021916908373ffffffffffffffffffffffffffffffffffffffff1602179055508373ffffffffffffffffffffffffffffffffffffffff1685600019167f27e557aefbcc3fa913f6a0f3247454cc65d53c65be8555a10a9dbf48a4d70ec760405160405180910390a360019250505b5092915050565b6000809054906101000a900473ffffffffffffffffffffffffffffffffffffffff1681565b60008060009054906101000a900473ffffffffffffffffffffffffffffffffffffffff1673ffffffffffffffffffffffffffffffffffffffff163373ffffffffffffffffffffffffffffffffffffffff1614905090565b60007f61646d696e73000000000000000000000000000000000000000000000000000060026000826000191660001916815260200190815260200160002060000160003373ffffffffffffffffffffffffffffffffffffffff1673ffffffffffffffffffffffffffffffffffffffff16815260200190815260200160002060009054906101000a900460ff1615156110ab57600080fd5b7f61646d696e7300000000000000000000000000000000000000000000000000008460001916141515156110de57600080fd5b600060026000866000191660001916815260200190815260200160002060000160008573ffffffffffffffffffffffffffffffffffffffff1673ffffffffffffffffffffffffffffffffffffffff16815260200190815260200160002060006101000a81548160ff021916908315150217905550600191505092915050565b60008060009054906101000a900473ffffffffffffffffffffffffffffffffffffffff1673ffffffffffffffffffffffffffffffffffffffff163273ffffffffffffffffffffffffffffffffffffffff161415156111ba57600080fd5b60001515600460009054906101000a900460ff1615151415156111dc57600080fd5b82600073ffffffffffffffffffffffffffffffffffffffff1660036000836000191660001916815260200190815260200160002060009054906101000a900473ffffffffffffffffffffffffffffffffffffffff1673ffffffffffffffffffffffffffffffffffffffff1614151561125357600080fd5b60001515600460019054906101000a900460ff16151514156112d2578260036000866000191660001916815260200190815260200160002060006101000a81548173ffffffffffffffffffffffffffffffffffffffff021916908373ffffffffffffffffffffffffffffffffffffffff16021790555060019150611342565b42600554101515156112e357600080fd5b8260036000866000191660001916815260200190815260200160002060006101000a81548173ffffffffffffffffffffffffffffffffffffffff021916908373ffffffffffffffffffffffffffffffffffffffff160217905550600191505b5092915050565b6000801515600460019054906101000a900460ff161515141561149f576000809054906101000a900473ffffffffffffffffffffffffffffffffffffffff1673ffffffffffffffffffffffffffffffffffffffff163273ffffffffffffffffffffffffffffffffffffffff161415156113c157600080fd5b60001515600460009054906101000a900460ff1615151415156113e357600080fd5b816113ed816107af565b73ffffffffffffffffffffffffffffffffffffffff163373ffffffffffffffffffffffffffffffffffffffff1614151561142657600080fd5b60036000846000191660001916815260200190815260200160002060006101000a81549073ffffffffffffffffffffffffffffffffffffffff021916905582600019167f5c4b05c43b1a8e8b3002834583b01787a4aa54d155929110a7367ae19996d1f260405160405180910390a260019150506115e5565b42600554101515156114b057600080fd5b6000809054906101000a900473ffffffffffffffffffffffffffffffffffffffff1673ffffffffffffffffffffffffffffffffffffffff163273ffffffffffffffffffffffffffffffffffffffff1614151561150b57600080fd5b60001515600460009054906101000a900460ff16151514151561152d57600080fd5b81611537816107af565b73ffffffffffffffffffffffffffffffffffffffff163373ffffffffffffffffffffffffffffffffffffffff1614151561157057600080fd5b60036000846000191660001916815260200190815260200160002060006101000a81549073ffffffffffffffffffffffffffffffffffffffff021916905582600019167f5c4b05c43b1a8e8b3002834583b01787a4aa54d155929110a7367ae19996d1f260405160405180910390a260019150505b919050565b600460009054906101000a900460ff1681565b600060026000846000191660001916815260200190815260200160002060000160008373ffffffffffffffffffffffffffffffffffffffff1673ffffffffffffffffffffffffffffffffffffffff16815260200190815260200160002060009054906101000a900460ff16905092915050565b60055481565b600080600260007f6e7361646d696e7300000000000000000000000000000000000000000000000060001916815260200190815260200160002060000160008060009054906101000a900473ffffffffffffffffffffffffffffffffffffffff1673ffffffffffffffffffffffffffffffffffffffff1673ffffffffffffffffffffffffffffffffffffffff16815260200190815260200160002060006101000a81548160ff0219169083151502179055506001600260007f6e7361646d696e730000000000000000000000000000000000000000000000006000191681526020019081526020016000206000016000600160009054906101000a900473ffffffffffffffffffffffffffffffffffffffff1673ffffffffffffffffffffffffffffffffffffffff1673ffffffffffffffffffffffffffffffffffffffff16815260200190815260200160002060006101000a81548160ff0219169083151502179055506117e2611880565b905090565b60006117f1610fbd565b15156117fc57600080fd5b60001515600460019054906101000a900460ff161515141561184357816005819055506001600460016101000a81548160ff0219169083151502179055506001905061187b565b426005541015151561185457600080fd5b816005819055506001600460016101000a81548160ff021916908315150217905550600190505b919050565b600080600260007f61646d696e73000000000000000000000000000000000000000000000000000060001916815260200190815260200160002060000160008060009054906101000a900473ffffffffffffffffffffffffffffffffffffffff1673ffffffffffffffffffffffffffffffffffffffff1673ffffffffffffffffffffffffffffffffffffffff16815260200190815260200160002060006101000a81548160ff0219169083151502179055506001600260007f61646d696e7300000000000000000000000000000000000000000000000000006000191681526020019081526020016000206000016000600160009054906101000a900473ffffffffffffffffffffffffffffffffffffffff1673ffffffffffffffffffffffffffffffffffffffff1673ffffffffffffffffffffffffffffffffffffffff16815260200190815260200160002060006101000a81548160ff0219169083151502179055506119ec6119f1565b905090565b6000600160009054906101000a900473ffffffffffffffffffffffffffffffffffffffff1673ffffffffffffffffffffffffffffffffffffffff163373ffffffffffffffffffffffffffffffffffffffff16141515611a4f57600080fd5b600160009054906101000a900473ffffffffffffffffffffffffffffffffffffffff166000806101000a81548173ffffffffffffffffffffffffffffffffffffffff021916908373ffffffffffffffffffffffffffffffffffffffff1602179055506001905090565b6000801515600160149054906101000a900460ff1615151415611adf57611add611bad565b505b60001515600160159054906101000a900460ff1615151415611ba6576001600260007f61646d696e73000000000000000000000000000000000000000000000000000060001916815260200190815260200160002060000160003373ffffffffffffffffffffffffffffffffffffffff1673ffffffffffffffffffffffffffffffffffffffff16815260200190815260200160002060006101000a81548160ff02191690831515021790555060018060156101000a81548160ff0219169083151502179055505b6001905090565b6000801515600160149054906101000a900460ff1615151415611c2557336000806101000a81548173ffffffffffffffffffffffffffffffffffffffff021916908373ffffffffffffffffffffffffffffffffffffffff16021790555060018060146101000a81548160ff0219169083151502179055505b60019050905600a165627a7a72305820ce124c77e623b17438c5472b22153718b704f3c3edebf0e67bd388e56abb16d20029",
  "source": "pragma solidity ^0.4.19;\n\nimport \"./ACGroups.sol\";\nimport \"./Constants.sol\";\n\n/// @title Contract Name Registry\n/// @author DigixGlobal\n\ncontract ContractResolver is ACGroups, Constants {\n\n  mapping (bytes32 => address) contracts;\n  event RegisterEvent(bytes32 indexed _contract_name,\n                      address indexed _contract_address);\n  event UnRegisterEvent(bytes32 indexed _contract_name);\n  bool public locked;\n  bool public time_locked;\n  uint public grace_period;\n\n  modifier unless_registered(bytes32 _key) {\n    require(contracts[_key] == NULL_ADDRESS);\n    _;\n  }\n\n  modifier if_owner_origin() {\n    require(tx.origin == owner);\n    _;\n  }\n\n  /// Function modifier to check if msg.sender corresponds to the resolved address of a given key\n  /// @param _contract The resolver key\n  modifier if_sender_is(bytes32 _contract) {\n    require(msg.sender == get_contract(_contract));\n    _;\n  }\n\n  modifier locked_after_period() {\n    if (time_locked == false) {\n      _;\n    } else {\n      require(grace_period >= now);\n      _;\n    }\n  }\n\n  modifier if_not_locked() {\n    require(locked == false);\n    _;\n  }\n\n  /// @dev ContractResolver constructor will perform the following: 1. Set msg.sender as the contract owner.  2. Adds msg.sender to the default groups 'admins' and 'nsadmins'\n  function ContractResolver() public\n  {\n    require(init_ac_groups());\n    groups[\"nsadmins\"].members[owner] = true;\n    locked = false;\n  }\n\n  /// @dev Called at contract initialization\n  /// @param _key bytestring for CACP name\n  /// @param _contract_address The address of the contract to be registered\n  /// @return _success if the operation is successful\n  function init_register_contract(bytes32 _key, address _contract_address)\n           if_owner_origin()\n           if_not_locked()\n           unless_registered(_key)\n           locked_after_period()\n           public\n           returns (bool _success)\n  {\n    contracts[_key] = _contract_address;\n    _success = true;\n  }\n\n  /// @dev Lock the resolver from any further modifications.  This can only be called from an account that is part of the nsadmins group\n  /// @return _success if the operation is successful\n  function lock_resolver()\n           if_group(\"nsadmins\")\n           public\n           returns (bool _success)\n  {\n    locked = true;\n    _success = true;\n  }\n\n  /// @dev Unlock the resolver to allow further modifications.  This can only be called from an account that is part of the nsadmins group\n  /// @return _success if the operation is successful\n  function unlock_resolver()\n           if_group(\"nsadmins\")\n           public\n           returns (bool _success)\n  {\n     locked = false;\n     _success = true;\n  }\n\n  /// @dev Enable time locking. This is potentially dangerous and must be from the owner\n  /// @param _grace_period the unix timestamp when the resolver is locked forever\n  function enable_time_locking(uint _grace_period)\n           if_owner()\n           locked_after_period()\n           public\n           returns (bool _success)\n  {\n    grace_period = _grace_period;\n    time_locked = true;\n    _success = true;\n  }\n\n  /// @dev Register a contract.  This can only be called from an account that is part of the nsadmins group\n  /// @param _key the bytestring of the contract name\n  /// @param _contract the address of the contract\n  /// @return _success if the operation is successful\n  function register_contract(bytes32 _key, address _contract)\n           if_group(\"nsadmins\")\n           if_owner_origin()\n           if_not_locked()\n           locked_after_period()\n           unless_registered(_key)\n           public\n           returns (bool _success)\n  {\n    contracts[_key] = _contract;\n    RegisterEvent(_key, _contract);\n    _success = true;\n  }\n\n  /// @dev Unregister a contract.  This can only be called from the contract with the key itself, which should be destroyed in the process\n  /// this must also be originated from the owner of this ContractResolver as well.\n  /// @param _key the bytestring of the contract name\n  /// @return _success if the operation is successful\n  function unregister_contract(bytes32 _key)\n           locked_after_period()\n           if_owner_origin()\n           if_not_locked()\n           if_sender_is(_key)\n           public\n           returns (bool _success)\n  {\n    delete contracts[_key];\n    UnRegisterEvent(_key);\n    _success = true;\n  }\n\n  /// @dev Get address of a contract\n  /// @param _key the bytestring name of the contract to look up\n  /// @return _contract the address of the contract\n  function get_contract(bytes32 _key)\n           public\n           constant\n           returns (address _contract)\n  {\n    require(contracts[_key] != NULL_ADDRESS);\n    _contract = contracts[_key];\n  }\n\n  function claim_ownership()\n           public\n           returns (bool _success)\n  {\n    // revoke nsadmins role of old owner, add new owner to nsadmins\n    groups[\"nsadmins\"].members[owner] = false;\n    groups[\"nsadmins\"].members[new_owner] = true;\n    _success = super.claim_ownership();\n  }\n}\n",
  "sourcePath": "/home/rohit/Develop/cacp-contracts/contracts/ContractResolver.sol",
  "compiler": {
    "name": "solc",
    "version": "0.4.19+commit.c4cbbb05.Emscripten.clang"
  },
  "schemaVersion": "1.0.1",
  "updatedAt": "2018-03-14T04:27:32.117Z"
}