{
  "contractName": "MockACUserMutex",
  "abi": [
    {
      "constant": false,
      "inputs": [
        {
          "name": "_user",
          "type": "address"
        },
        {
          "name": "_mutex_id",
          "type": "bytes32"
        },
        {
          "name": "_value",
          "type": "bool"
        }
      ],
      "name": "mock_setup_set_user_mutex",
      "outputs": [],
      "payable": false,
      "stateMutability": "nonpayable",
      "type": "function"
    },
    {
      "constant": true,
      "inputs": [
        {
          "name": "_user",
          "type": "address"
        },
        {
          "name": "_mutex_id",
          "type": "bytes32"
        }
      ],
      "name": "mock_get_user_mutex",
      "outputs": [
        {
          "name": "_value",
          "type": "bool"
        }
      ],
      "payable": false,
      "stateMutability": "view",
      "type": "function"
    },
    {
      "constant": true,
      "inputs": [
        {
          "name": "_mutex_id",
          "type": "bytes32"
        }
      ],
      "name": "test_if_user_mutex_locked",
      "outputs": [
        {
          "name": "_success",
          "type": "bool"
        }
      ],
      "payable": false,
      "stateMutability": "view",
      "type": "function"
    },
    {
      "constant": true,
      "inputs": [
        {
          "name": "_mutex_id",
          "type": "bytes32"
        }
      ],
      "name": "test_unless_user_mutex_locked",
      "outputs": [
        {
          "name": "_success",
          "type": "bool"
        }
      ],
      "payable": false,
      "stateMutability": "view",
      "type": "function"
    },
    {
      "constant": false,
      "inputs": [
        {
          "name": "_mutex_id",
          "type": "bytes32"
        }
      ],
      "name": "test_lock_before_action",
      "outputs": [
        {
          "name": "_success",
          "type": "bool"
        }
      ],
      "payable": false,
      "stateMutability": "nonpayable",
      "type": "function"
    },
    {
      "constant": false,
      "inputs": [
        {
          "name": "_mutex_id",
          "type": "bytes32"
        }
      ],
      "name": "test_unlock_after_action",
      "outputs": [
        {
          "name": "_success",
          "type": "bool"
        }
      ],
      "payable": false,
      "stateMutability": "nonpayable",
      "type": "function"
    },
    {
      "constant": false,
      "inputs": [
        {
          "name": "_mutex_id",
          "type": "bytes32"
        }
      ],
      "name": "test_lock_user_mutex",
      "outputs": [
        {
          "name": "_success",
          "type": "bool"
        }
      ],
      "payable": false,
      "stateMutability": "nonpayable",
      "type": "function"
    },
    {
      "constant": false,
      "inputs": [
        {
          "name": "_mutex_id",
          "type": "bytes32"
        }
      ],
      "name": "test_unlock_user_mutex",
      "outputs": [
        {
          "name": "_success",
          "type": "bool"
        }
      ],
      "payable": false,
      "stateMutability": "nonpayable",
      "type": "function"
    }
  ],
  "bytecode": "0x6060604052341561000f57600080fd5b6107218061001e6000396000f30060606040526004361061008e576000357c0100000000000000000000000000000000000000000000000000000000900463ffffffff168063150a5cd014610093578063167ee22c146100d257806389cdb1ab146101115780639db7000c1461016f578063a521f29d146101ae578063d0dd72f9146101ed578063daccaf011461022c578063f7d3d5021461026b575b600080fd5b341561009e57600080fd5b6100b86004808035600019169060200190919050506102bc565b604051808215151515815260200191505060405180910390f35b34156100dd57600080fd5b6100f76004808035600019169060200190919050506102ce565b604051808215151515815260200191505060405180910390f35b341561011c57600080fd5b610155600480803573ffffffffffffffffffffffffffffffffffffffff1690602001909190803560001916906020019091905050610352565b604051808215151515815260200191505060405180910390f35b341561017a57600080fd5b6101946004808035600019169060200190919050506103c1565b604051808215151515815260200191505060405180910390f35b34156101b957600080fd5b6101d36004808035600019169060200190919050506103e2565b604051808215151515815260200191505060405180910390f35b34156101f857600080fd5b610212600480803560001916906020019091905050610466565b604051808215151515815260200191505060405180910390f35b341561023757600080fd5b610251600480803560001916906020019091905050610478565b604051808215151515815260200191505060405180910390f35b341561027657600080fd5b6102ba600480803573ffffffffffffffffffffffffffffffffffffffff16906020019091908035600019169060200190919080351515906020019091905050610499565b005b60006102c78261050d565b9050919050565b600081600015156000803373ffffffffffffffffffffffffffffffffffffffff1673ffffffffffffffffffffffffffffffffffffffff1681526020019081526020016000206000836000191660001916815260200190815260200160002060009054906101000a900460ff16151514151561034857600080fd5b6001915050919050565b60008060008473ffffffffffffffffffffffffffffffffffffffff1673ffffffffffffffffffffffffffffffffffffffff1681526020019081526020016000206000836000191660001916815260200190815260200160002060009054906101000a900460ff16905092915050565b600081600191506103d181610601565b15156103dc57600080fd5b50919050565b600081600115156000803373ffffffffffffffffffffffffffffffffffffffff1673ffffffffffffffffffffffffffffffffffffffff1681526020019081526020016000206000836000191660001916815260200190815260200160002060009054906101000a900460ff16151514151561045c57600080fd5b6001915050919050565b600061047182610601565b9050919050565b6000816104848161050d565b151561048f57600080fd5b6001915050919050565b806000808573ffffffffffffffffffffffffffffffffffffffff1673ffffffffffffffffffffffffffffffffffffffff1681526020019081526020016000206000846000191660001916815260200190815260200160002060006101000a81548160ff021916908315150217905550505050565b600081600015156000803373ffffffffffffffffffffffffffffffffffffffff1673ffffffffffffffffffffffffffffffffffffffff1681526020019081526020016000206000836000191660001916815260200190815260200160002060009054906101000a900460ff16151514151561058757600080fd5b60016000803373ffffffffffffffffffffffffffffffffffffffff1673ffffffffffffffffffffffffffffffffffffffff1681526020019081526020016000206000856000191660001916815260200190815260200160002060006101000a81548160ff0219169083151502179055506001915050919050565b600081600115156000803373ffffffffffffffffffffffffffffffffffffffff1673ffffffffffffffffffffffffffffffffffffffff1681526020019081526020016000206000836000191660001916815260200190815260200160002060009054906101000a900460ff16151514151561067b57600080fd5b60008060003373ffffffffffffffffffffffffffffffffffffffff1673ffffffffffffffffffffffffffffffffffffffff1681526020019081526020016000206000856000191660001916815260200190815260200160002060006101000a81548160ff02191690831515021790555060019150509190505600a165627a7a7230582017e37f222405f6391599d400c16ed277dd3f56db676557a27c0c76ab694abe090029",
  "source": "pragma solidity ^0.4.19;\n\n/// @title Per user locking based access control\n/// @author DigixGlobal\nimport '../ACUserMutex.sol';\n\ncontract MockACUserMutex is ACUserMutex {\n\n  function mock_setup_set_user_mutex (address _user, bytes32 _mutex_id, bool _value)\n           public\n  {\n    user_mutexes[_user][_mutex_id] = _value;\n  }\n\n  function mock_get_user_mutex (address _user, bytes32 _mutex_id)\n           public\n           constant\n           returns (bool _value)\n  {\n    _value = user_mutexes[_user][_mutex_id];\n  }\n\n  function test_if_user_mutex_locked (bytes32 _mutex_id)\n           if_user_mutex_locked (_mutex_id)\n           public\n           constant\n           returns (bool _success)\n  {\n    _success = true;\n  }\n\n  function test_unless_user_mutex_locked (bytes32 _mutex_id)\n           unless_user_mutex_locked (_mutex_id)\n           public\n           constant\n           returns (bool _success)\n  {\n    _success = true;\n  }\n\n  function test_lock_before_action (bytes32 _mutex_id)\n           lock_before_action (_mutex_id)\n           public\n           returns (bool _success)\n  {\n    _success = true;\n  }\n\n  function test_unlock_after_action (bytes32 _mutex_id)\n           unlock_after_action (_mutex_id)\n           public\n           returns (bool _success)\n  {\n    _success = true;\n  }\n\n  function test_lock_user_mutex (bytes32 _mutex_id)\n           public\n           returns (bool _success)\n  {\n    _success = lock_user_mutex(_mutex_id);\n  }\n\n  function test_unlock_user_mutex (bytes32 _mutex_id)\n           public\n           returns (bool _success)\n  {\n    _success = unlock_user_mutex(_mutex_id);\n  }\n\n}\n",
  "sourcePath": "/home/vu/digix/cacp-contracts/contracts/Mock/MockACUserMutex.sol",
  "compiler": {
    "name": "solc",
    "version": "0.4.19+commit.c4cbbb05.Emscripten.clang"
  },
  "schemaVersion": "2.0.0",
  "updatedAt": "2018-03-13T06:46:52.612Z"
}