{
  "contractName": "MockACUserLevels",
  "abi": [
    {
      "constant": false,
      "inputs": [
        {
          "name": "_oldadmin",
          "type": "address"
        }
      ],
      "name": "unregister_admin",
      "outputs": [
        {
          "name": "_success",
          "type": "bool"
        }
      ],
      "payable": false,
      "stateMutability": "nonpayable",
      "type": "function"
    },
    {
      "constant": false,
      "inputs": [
        {
          "name": "_new_owner",
          "type": "address"
        }
      ],
      "name": "change_owner",
      "outputs": [
        {
          "name": "_success",
          "type": "bool"
        }
      ],
      "payable": false,
      "stateMutability": "nonpayable",
      "type": "function"
    },
    {
      "constant": true,
      "inputs": [],
      "name": "new_owner",
      "outputs": [
        {
          "name": "",
          "type": "address"
        }
      ],
      "payable": false,
      "stateMutability": "view",
      "type": "function"
    },
    {
      "constant": false,
      "inputs": [
        {
          "name": "_group",
          "type": "bytes32"
        },
        {
          "name": "_user",
          "type": "address"
        }
      ],
      "name": "add_user_to_group",
      "outputs": [
        {
          "name": "_success",
          "type": "bool"
        }
      ],
      "payable": false,
      "stateMutability": "nonpayable",
      "type": "function"
    },
    {
      "constant": false,
      "inputs": [
        {
          "name": "_newadmin",
          "type": "address"
        }
      ],
      "name": "register_admin",
      "outputs": [
        {
          "name": "_success",
          "type": "bool"
        }
      ],
      "payable": false,
      "stateMutability": "nonpayable",
      "type": "function"
    },
    {
      "constant": true,
      "inputs": [],
      "name": "owner",
      "outputs": [
        {
          "name": "",
          "type": "address"
        }
      ],
      "payable": false,
      "stateMutability": "view",
      "type": "function"
    },
    {
      "constant": false,
      "inputs": [
        {
          "name": "_group",
          "type": "bytes32"
        },
        {
          "name": "_user",
          "type": "address"
        }
      ],
      "name": "delete_user_from_group",
      "outputs": [
        {
          "name": "_success",
          "type": "bool"
        }
      ],
      "payable": false,
      "stateMutability": "nonpayable",
      "type": "function"
    },
    {
      "constant": true,
      "inputs": [
        {
          "name": "_group",
          "type": "bytes32"
        },
        {
          "name": "_user",
          "type": "address"
        }
      ],
      "name": "is_group_member_of",
      "outputs": [
        {
          "name": "_ismember",
          "type": "bool"
        }
      ],
      "payable": false,
      "stateMutability": "view",
      "type": "function"
    },
    {
      "constant": false,
      "inputs": [],
      "name": "claim_ownership",
      "outputs": [
        {
          "name": "_success",
          "type": "bool"
        }
      ],
      "payable": false,
      "stateMutability": "nonpayable",
      "type": "function"
    },
    {
      "constant": true,
      "inputs": [],
      "name": "get_is_ac_user_levels_init",
      "outputs": [
        {
          "name": "_is_ac_user_levels_init",
          "type": "bool"
        }
      ],
      "payable": false,
      "stateMutability": "view",
      "type": "function"
    },
    {
      "constant": false,
      "inputs": [
        {
          "name": "_user",
          "type": "address"
        },
        {
          "name": "_category",
          "type": "bytes32"
        },
        {
          "name": "_level",
          "type": "uint8"
        }
      ],
      "name": "mock_set_user_level",
      "outputs": [],
      "payable": false,
      "stateMutability": "nonpayable",
      "type": "function"
    },
    {
      "constant": false,
      "inputs": [
        {
          "name": "_is_ac_user_levels_init",
          "type": "bool"
        }
      ],
      "name": "mock_set_is_ac_user_levels_init",
      "outputs": [],
      "payable": false,
      "stateMutability": "nonpayable",
      "type": "function"
    },
    {
      "constant": false,
      "inputs": [],
      "name": "test_init_ac_user_levels",
      "outputs": [
        {
          "name": "_success",
          "type": "bool"
        }
      ],
      "payable": false,
      "stateMutability": "nonpayable",
      "type": "function"
    },
    {
      "constant": true,
      "inputs": [
        {
          "name": "_user",
          "type": "address"
        },
        {
          "name": "_category",
          "type": "bytes32"
        },
        {
          "name": "_required_level",
          "type": "uint8"
        }
      ],
      "name": "test_if_above_level",
      "outputs": [
        {
          "name": "_success",
          "type": "bool"
        }
      ],
      "payable": false,
      "stateMutability": "view",
      "type": "function"
    },
    {
      "constant": true,
      "inputs": [
        {
          "name": "_user",
          "type": "address"
        },
        {
          "name": "_category",
          "type": "bytes32"
        },
        {
          "name": "_required_level",
          "type": "uint8"
        }
      ],
      "name": "test_if_below_level",
      "outputs": [
        {
          "name": "_success",
          "type": "bool"
        }
      ],
      "payable": false,
      "stateMutability": "view",
      "type": "function"
    },
    {
      "constant": true,
      "inputs": [
        {
          "name": "_user",
          "type": "address"
        },
        {
          "name": "_category",
          "type": "bytes32"
        },
        {
          "name": "_required_level",
          "type": "uint8"
        }
      ],
      "name": "test_if_at_level",
      "outputs": [
        {
          "name": "_success",
          "type": "bool"
        }
      ],
      "payable": false,
      "stateMutability": "view",
      "type": "function"
    },
    {
      "constant": true,
      "inputs": [],
      "name": "test_unless_ac_user_levels_initialized",
      "outputs": [
        {
          "name": "_success",
          "type": "bool"
        }
      ],
      "payable": false,
      "stateMutability": "view",
      "type": "function"
    }
  ],
  "bytecode": "0x60606040526000600160156101000a81548160ff021916908315150217905550341561002a57600080fd5b611264806100396000396000f3006060604052600436106100f1576000357c0100000000000000000000000000000000000000000000000000000000900463ffffffff1680630207e20e146100f6578063253c8bd41461014757806330713194146101985780633ebb9fd5146102025780634552b04f1461025457806348e05b7c146102a9578063682d038a146102d65780636d7462941461033457806379f0a89514610361578063862578be146103b25780638da5cb5b1461041c57806393a72f4e14610471578063986e382b1461049e578063b692ee2314610508578063deef2b9c14610566578063e6fc01a91461058b578063f7a79a02146105e9575b600080fd5b341561010157600080fd5b61012d600480803573ffffffffffffffffffffffffffffffffffffffff16906020019091905050610616565b604051808215151515815260200191505060405180910390f35b341561015257600080fd5b61017e600480803573ffffffffffffffffffffffffffffffffffffffff169060200190919050506106c4565b604051808215151515815260200191505060405180910390f35b34156101a357600080fd5b6101e8600480803573ffffffffffffffffffffffffffffffffffffffff169060200190919080356000191690602001909190803560ff16906020019091905050610723565b604051808215151515815260200191505060405180910390f35b341561020d57600080fd5b610252600480803573ffffffffffffffffffffffffffffffffffffffff169060200190919080356000191690602001909190803560ff169060200190919050506107af565b005b341561025f57600080fd5b610267610825565b604051808273ffffffffffffffffffffffffffffffffffffffff1673ffffffffffffffffffffffffffffffffffffffff16815260200191505060405180910390f35b34156102b457600080fd5b6102bc61084b565b604051808215151515815260200191505060405180910390f35b34156102e157600080fd5b61031a60048080356000191690602001909190803573ffffffffffffffffffffffffffffffffffffffff16906020019091905050610875565b604051808215151515815260200191505060405180910390f35b341561033f57600080fd5b6103476109be565b604051808215151515815260200191505060405180910390f35b341561036c57600080fd5b610398600480803573ffffffffffffffffffffffffffffffffffffffff169060200190919050506109cd565b604051808215151515815260200191505060405180910390f35b34156103bd57600080fd5b610402600480803573ffffffffffffffffffffffffffffffffffffffff169060200190919080356000191690602001909190803560ff16906020019091905050610a7b565b604051808215151515815260200191505060405180910390f35b341561042757600080fd5b61042f610b07565b604051808273ffffffffffffffffffffffffffffffffffffffff1673ffffffffffffffffffffffffffffffffffffffff16815260200191505060405180910390f35b341561047c57600080fd5b610484610b2c565b604051808215151515815260200191505060405180910390f35b34156104a957600080fd5b6104ee600480803573ffffffffffffffffffffffffffffffffffffffff169060200190919080356000191690602001909190803560ff16906020019091905050610b43565b604051808215151515815260200191505060405180910390f35b341561051357600080fd5b61054c60048080356000191690602001909190803573ffffffffffffffffffffffffffffffffffffffff16906020019091905050610bcf565b604051808215151515815260200191505060405180910390f35b341561057157600080fd5b61058960048080351515906020019091905050610d18565b005b341561059657600080fd5b6105cf60048080356000191690602001909190803573ffffffffffffffffffffffffffffffffffffffff16906020019091905050610d35565b604051808215151515815260200191505060405180910390f35b34156105f457600080fd5b6105fc610da8565b604051808215151515815260200191505060405180910390f35b6000610620610f19565b151561062b57600080fd5b6000600260007f61646d696e73000000000000000000000000000000000000000000000000000060001916815260200190815260200160002060000160008473ffffffffffffffffffffffffffffffffffffffff1673ffffffffffffffffffffffffffffffffffffffff16815260200190815260200160002060006101000a81548160ff02191690831515021790555060019050919050565b60006106ce610f19565b15156106d957600080fd5b81600160006101000a81548173ffffffffffffffffffffffffffffffffffffffff021916908373ffffffffffffffffffffffffffffffffffffffff16021790555060019050919050565b60008383838060ff1660046000846000191660001916815260200190815260200160002060008573ffffffffffffffffffffffffffffffffffffffff1673ffffffffffffffffffffffffffffffffffffffff16815260200190815260200160002060009054906101000a900460ff1660ff161015156107a157600080fd5b600193505050509392505050565b8060046000846000191660001916815260200190815260200160002060008573ffffffffffffffffffffffffffffffffffffffff1673ffffffffffffffffffffffffffffffffffffffff16815260200190815260200160002060006101000a81548160ff021916908360ff160217905550505050565b600160009054906101000a900473ffffffffffffffffffffffffffffffffffffffff1681565b6000801515600360009054906101000a900460ff16151514151561086e57600080fd5b6001905090565b60007f61646d696e73000000000000000000000000000000000000000000000000000060026000826000191660001916815260200190815260200160002060000160003373ffffffffffffffffffffffffffffffffffffffff1673ffffffffffffffffffffffffffffffffffffffff16815260200190815260200160002060009054906101000a900460ff16151561090c57600080fd5b7f61646d696e73000000000000000000000000000000000000000000000000000084600019161415151561093f57600080fd5b600160026000866000191660001916815260200190815260200160002060000160008573ffffffffffffffffffffffffffffffffffffffff1673ffffffffffffffffffffffffffffffffffffffff16815260200190815260200160002060006101000a81548160ff021916908315150217905550600191505092915050565b60006109c8610f70565b905090565b60006109d7610f19565b15156109e257600080fd5b6001600260007f61646d696e73000000000000000000000000000000000000000000000000000060001916815260200190815260200160002060000160008473ffffffffffffffffffffffffffffffffffffffff1673ffffffffffffffffffffffffffffffffffffffff16815260200190815260200160002060006101000a81548160ff02191690831515021790555060019050919050565b60008383838060ff1660046000846000191660001916815260200190815260200160002060008573ffffffffffffffffffffffffffffffffffffffff1673ffffffffffffffffffffffffffffffffffffffff16815260200190815260200160002060009054906101000a900460ff1660ff16141515610af957600080fd5b600193505050509392505050565b6000809054906101000a900473ffffffffffffffffffffffffffffffffffffffff1681565b6000600360009054906101000a900460ff16905090565b60008383838060ff1660046000846000191660001916815260200190815260200160002060008573ffffffffffffffffffffffffffffffffffffffff1673ffffffffffffffffffffffffffffffffffffffff16815260200190815260200160002060009054906101000a900460ff1660ff16111515610bc157600080fd5b600193505050509392505050565b60007f61646d696e73000000000000000000000000000000000000000000000000000060026000826000191660001916815260200190815260200160002060000160003373ffffffffffffffffffffffffffffffffffffffff1673ffffffffffffffffffffffffffffffffffffffff16815260200190815260200160002060009054906101000a900460ff161515610c6657600080fd5b7f61646d696e730000000000000000000000000000000000000000000000000000846000191614151515610c9957600080fd5b600060026000866000191660001916815260200190815260200160002060000160008573ffffffffffffffffffffffffffffffffffffffff1673ffffffffffffffffffffffffffffffffffffffff16815260200190815260200160002060006101000a81548160ff021916908315150217905550600191505092915050565b80600360006101000a81548160ff02191690831515021790555050565b600060026000846000191660001916815260200190815260200160002060000160008373ffffffffffffffffffffffffffffffffffffffff1673ffffffffffffffffffffffffffffffffffffffff16815260200190815260200160002060009054906101000a900460ff16905092915050565b600080600260007f61646d696e73000000000000000000000000000000000000000000000000000060001916815260200190815260200160002060000160008060009054906101000a900473ffffffffffffffffffffffffffffffffffffffff1673ffffffffffffffffffffffffffffffffffffffff1673ffffffffffffffffffffffffffffffffffffffff16815260200190815260200160002060006101000a81548160ff0219169083151502179055506001600260007f61646d696e7300000000000000000000000000000000000000000000000000006000191681526020019081526020016000206000016000600160009054906101000a900473ffffffffffffffffffffffffffffffffffffffff1673ffffffffffffffffffffffffffffffffffffffff1673ffffffffffffffffffffffffffffffffffffffff16815260200190815260200160002060006101000a81548160ff021916908315150217905550610f14610ffd565b905090565b60008060009054906101000a900473ffffffffffffffffffffffffffffffffffffffff1673ffffffffffffffffffffffffffffffffffffffff163373ffffffffffffffffffffffffffffffffffffffff1614905090565b6000801515600360009054906101000a900460ff161515141515610f9357600080fd5b6001600360006101000a81548160ff021916908315150217905550610fb66110c4565b1515610fc157600080fd5b610feb7f756c61646d696e7300000000000000000000000000000000000000000000000033610875565b1515610ff657600080fd5b6001905090565b6000600160009054906101000a900473ffffffffffffffffffffffffffffffffffffffff1673ffffffffffffffffffffffffffffffffffffffff163373ffffffffffffffffffffffffffffffffffffffff1614151561105b57600080fd5b600160009054906101000a900473ffffffffffffffffffffffffffffffffffffffff166000806101000a81548173ffffffffffffffffffffffffffffffffffffffff021916908373ffffffffffffffffffffffffffffffffffffffff1602179055506001905090565b6000801515600160149054906101000a900460ff16151514156110eb576110e96111b9565b505b60001515600160159054906101000a900460ff16151514156111b2576001600260007f61646d696e73000000000000000000000000000000000000000000000000000060001916815260200190815260200160002060000160003373ffffffffffffffffffffffffffffffffffffffff1673ffffffffffffffffffffffffffffffffffffffff16815260200190815260200160002060006101000a81548160ff02191690831515021790555060018060156101000a81548160ff0219169083151502179055505b6001905090565b6000801515600160149054906101000a900460ff161515141561123157336000806101000a81548173ffffffffffffffffffffffffffffffffffffffff021916908373ffffffffffffffffffffffffffffffffffffffff16021790555060018060146101000a81548160ff0219169083151502179055505b60019050905600a165627a7a7230582078630da4ab0032c2a843d8b368a92a3cb1d8340f9757591dc511ac64aa00ded70029",
  "source": "pragma solidity ^0.4.19;\n\nimport \"../ACUserLevels.sol\";\n\n/// @title User levels based access control\n/// @author DigixGlobal\n\ncontract MockACUserLevels is ACUserLevels {\n\n  function get_is_ac_user_levels_init ()\n           public\n           constant\n           returns (bool _is_ac_user_levels_init)\n  {\n    _is_ac_user_levels_init = is_ac_user_levels_init;\n  }\n\n  function mock_set_user_level (address _user, bytes32 _category, uint8 _level) public {\n    user_levels[_category][_user] = _level;\n  }\n\n  function mock_set_is_ac_user_levels_init (bool _is_ac_user_levels_init) public {\n    is_ac_user_levels_init = _is_ac_user_levels_init;\n  }\n\n  function test_init_ac_user_levels()\n           public\n           returns (bool _success)\n  {\n    _success = init_ac_user_levels();\n  }\n\n  function test_if_above_level(address _user, bytes32 _category, uint8 _required_level)\n           if_above_level(_user, _category, _required_level)\n           public\n           constant\n           returns (bool _success)\n  {\n    _success = true;\n  }\n\n  function test_if_below_level(address _user, bytes32 _category, uint8 _required_level)\n           if_below_level(_user, _category, _required_level)\n           public\n           constant\n           returns (bool _success)\n  {\n    _success = true;\n  }\n\n\n  function test_if_at_level(address _user, bytes32 _category, uint8 _required_level)\n           if_at_level(_user, _category, _required_level)\n           public\n           constant\n           returns (bool _success)\n  {\n    _success = true;\n  }\n\n  function test_unless_ac_user_levels_initialized ()\n           unless_ac_user_levels_initialized ()\n           public\n           constant\n           returns (bool _success)\n  {\n    _success = true;\n  }\n}\n",
  "sourcePath": "/home/vu/digix/cacp-contracts/contracts/Mock/MockACUserLevels.sol",
  "compiler": {
    "name": "solc",
    "version": "0.4.19+commit.c4cbbb05.Emscripten.clang"
  },
  "schemaVersion": "2.0.0",
  "updatedAt": "2018-03-19T06:36:08.585Z"
}