{
  "contractName": "MockConstants",
  "abi": [
    {
      "constant": true,
      "inputs": [],
      "name": "test_constants",
      "outputs": [
        {
          "name": "",
          "type": "address"
        },
        {
          "name": "",
          "type": "uint256"
        },
        {
          "name": "",
          "type": "bytes32"
        }
      ],
      "payable": false,
      "stateMutability": "pure",
      "type": "function"
    }
  ],
  "bytecode": "0x6060604052341561000f57600080fd5b60ef8061001d6000396000f300606060405260043610603f576000357c0100000000000000000000000000000000000000000000000000000000900463ffffffff168063bc17db50146044575b600080fd5b3415604e57600080fd5b605460ac565b604051808473ffffffffffffffffffffffffffffffffffffffff1673ffffffffffffffffffffffffffffffffffffffff1681526020018381526020018260001916600019168152602001935050505060405180910390f35b6000806000806000806001029250925092509091925600a165627a7a723058205428cd4ba6508972a1bf172e4604ecf51aa31007b0d27b4cba2b352022665a7a0029",
  "source": "pragma solidity ^0.4.19;\nimport '../Constants.sol';\n/// @title Some useful constants\n/// @author DigixGlobal\n\ncontract MockConstants is Constants{\n  address constant NULL_ADDRESS = address(0x0);\n  uint256 constant ZERO = uint256(0);\n  bytes32 constant EMPTY = bytes32(0x0);\n\n  function test_constants() public pure returns (address, uint256, bytes32) {\n    return (NULL_ADDRESS, ZERO, EMPTY);\n  }\n\n}\n",
  "sourcePath": "/home/rohit/Develop/cacp-contracts/contracts/Mock/MockConstants.sol",
  "compiler": {
    "name": "solc",
    "version": "0.4.19+commit.c4cbbb05.Emscripten.clang"
  },
  "schemaVersion": "1.0.1",
  "updatedAt": "2018-03-19T02:59:12.431Z"
}