{
  "contractName": "MockACConditions",
  "abi": [
    {
      "constant": true,
      "inputs": [
        {
          "name": "_contract",
          "type": "address"
        }
      ],
      "name": "is_contract",
      "outputs": [
        {
          "name": "_is_contract",
          "type": "bool"
        }
      ],
      "payable": false,
      "stateMutability": "view",
      "type": "function"
    },
    {
      "constant": true,
      "inputs": [
        {
          "name": "_item",
          "type": "address"
        }
      ],
      "name": "test_not_null_address",
      "outputs": [
        {
          "name": "_success",
          "type": "bool"
        }
      ],
      "payable": false,
      "stateMutability": "pure",
      "type": "function"
    },
    {
      "constant": true,
      "inputs": [
        {
          "name": "_item",
          "type": "address"
        }
      ],
      "name": "test_if_null_address",
      "outputs": [
        {
          "name": "_success",
          "type": "bool"
        }
      ],
      "payable": false,
      "stateMutability": "pure",
      "type": "function"
    },
    {
      "constant": true,
      "inputs": [
        {
          "name": "_item",
          "type": "uint256"
        }
      ],
      "name": "test_not_null_uint",
      "outputs": [
        {
          "name": "_success",
          "type": "bool"
        }
      ],
      "payable": false,
      "stateMutability": "pure",
      "type": "function"
    },
    {
      "constant": true,
      "inputs": [
        {
          "name": "_item",
          "type": "uint256"
        }
      ],
      "name": "test_if_null_uint",
      "outputs": [
        {
          "name": "_success",
          "type": "bool"
        }
      ],
      "payable": false,
      "stateMutability": "pure",
      "type": "function"
    },
    {
      "constant": true,
      "inputs": [
        {
          "name": "_item",
          "type": "bytes32"
        }
      ],
      "name": "test_not_empty_bytes",
      "outputs": [
        {
          "name": "_success",
          "type": "bool"
        }
      ],
      "payable": false,
      "stateMutability": "pure",
      "type": "function"
    },
    {
      "constant": true,
      "inputs": [
        {
          "name": "_item",
          "type": "bytes32"
        }
      ],
      "name": "test_if_empty_bytes",
      "outputs": [
        {
          "name": "_success",
          "type": "bool"
        }
      ],
      "payable": false,
      "stateMutability": "pure",
      "type": "function"
    },
    {
      "constant": true,
      "inputs": [
        {
          "name": "_item",
          "type": "string"
        }
      ],
      "name": "test_not_null_string",
      "outputs": [
        {
          "name": "_success",
          "type": "bool"
        }
      ],
      "payable": false,
      "stateMutability": "pure",
      "type": "function"
    },
    {
      "constant": true,
      "inputs": [
        {
          "name": "_item",
          "type": "string"
        }
      ],
      "name": "test_if_null_string",
      "outputs": [
        {
          "name": "_success",
          "type": "bool"
        }
      ],
      "payable": false,
      "stateMutability": "pure",
      "type": "function"
    },
    {
      "constant": true,
      "inputs": [
        {
          "name": "_requiredgas",
          "type": "uint256"
        }
      ],
      "name": "test_require_gas",
      "outputs": [
        {
          "name": "_success",
          "type": "bool"
        }
      ],
      "payable": false,
      "stateMutability": "view",
      "type": "function"
    },
    {
      "constant": true,
      "inputs": [
        {
          "name": "_contract",
          "type": "address"
        }
      ],
      "name": "test_if_contract",
      "outputs": [
        {
          "name": "_success",
          "type": "bool"
        }
      ],
      "payable": false,
      "stateMutability": "view",
      "type": "function"
    },
    {
      "constant": true,
      "inputs": [
        {
          "name": "_contract",
          "type": "address"
        }
      ],
      "name": "test_unless_contract",
      "outputs": [
        {
          "name": "_success",
          "type": "bool"
        }
      ],
      "payable": false,
      "stateMutability": "view",
      "type": "function"
    }
  ],
  "bytecode": "0x6060604052341561000f57600080fd5b6106b18061001e6000396000f3006060604052600436106100b9576000357c0100000000000000000000000000000000000000000000000000000000900463ffffffff16806246e9ce146100be578063175cd48b14610133578063354794ad1461016e57806341436c9e146101bf5780636461d892146101fa578063649c07d5146102395780638bed61131461028a578063b2681da2146102c9578063c616ff5e1461031a578063cb29c2eb14610355578063e8cb773b146103a6578063f8d392de146103f7575b600080fd5b34156100c957600080fd5b610119600480803590602001908201803590602001908080601f0160208091040260200160405190810160405280939291908181526020018383808284378201915050505050509190505061046c565b604051808215151515815260200191505060405180910390f35b341561013e57600080fd5b6101546004808035906020019091905050610495565b604051808215151515815260200191505060405180910390f35b341561017957600080fd5b6101a5600480803573ffffffffffffffffffffffffffffffffffffffff169060200190919050506104b2565b604051808215151515815260200191505060405180910390f35b34156101ca57600080fd5b6101e060048080359060200190919050506104da565b604051808215151515815260200191505060405180910390f35b341561020557600080fd5b61021f6004808035600019169060200190919050506104fa565b604051808215151515815260200191505060405180910390f35b341561024457600080fd5b610270600480803573ffffffffffffffffffffffffffffffffffffffff16906020019091905050610522565b604051808215151515815260200191505060405180910390f35b341561029557600080fd5b6102af60048080356000191690602001909190505061054c565b604051808215151515815260200191505060405180910390f35b34156102d457600080fd5b610300600480803573ffffffffffffffffffffffffffffffffffffffff16906020019091905050610573565b604051808215151515815260200191505060405180910390f35b341561032557600080fd5b61033b600480803590602001909190505061059b565b604051808215151515815260200191505060405180910390f35b341561036057600080fd5b61038c600480803573ffffffffffffffffffffffffffffffffffffffff169060200190919050506105b7565b604051808215151515815260200191505060405180910390f35b34156103b157600080fd5b6103dd600480803573ffffffffffffffffffffffffffffffffffffffff16906020019091905050610600565b604051808215151515815260200191505060405180910390f35b341561040257600080fd5b610452600480803590602001908201803590602001908080601f01602080910402602001604051908101604052809392919081815260200183838082843782019150505050505091905050610648565b604051808215151515815260200191505060405180910390f35b600081610477610671565b8190506000815111151561048a57600080fd5b600192505050919050565b600081600081141515156104a857600080fd5b6001915050919050565b600081600115156104c282610522565b15151415156104d057600080fd5b6001915050919050565b6000816155f081035a101515156104f057600080fd5b6001915050919050565b60008160006001026000191681600019161415151561051857600080fd5b6001915050919050565b600080823b905060018163ffffffff1611156105415760019150610546565b600091505b50919050565b600081600060010260001916816000191614151561056957600080fd5b6001915050919050565b6000816000151561058382610522565b151514151561059157600080fd5b6001915050919050565b6000816000811415156105ad57600080fd5b6001915050919050565b600081600073ffffffffffffffffffffffffffffffffffffffff168173ffffffffffffffffffffffffffffffffffffffff16141515156105f657600080fd5b6001915050919050565b600081600073ffffffffffffffffffffffffffffffffffffffff168173ffffffffffffffffffffffffffffffffffffffff1614151561063e57600080fd5b6001915050919050565b600081610653610671565b8190506000815114151561066657600080fd5b600192505050919050565b6020604051908101604052806000815250905600a165627a7a7230582026d170cf0dbf987140a798c246a02f2f0e63b9eee79a927b171f1eba12543b6a0029",
  "source": "pragma solidity ^0.4.19;\n\nimport \"../ACConditions.sol\";\n\n/// @title Condition based access control\n/// @author DigixGlobal\n\ncontract MockACConditions is ACConditions {\n\n  function test_not_null_address (address _item) not_null_address(_item) public pure returns (bool _success){\n    return true;\n  }\n\n  function test_if_null_address (address _item) if_null_address(_item) public pure returns (bool _success){\n    return true;\n  }\n\n  function test_not_null_uint (uint256 _item) not_null_uint(_item) public pure returns (bool _success){\n    return true;\n  }\n\n  function test_if_null_uint (uint256 _item) if_null_uint(_item) public pure returns (bool _success){\n    return true;\n  }\n\n  function test_not_empty_bytes (bytes32 _item) not_empty_bytes(_item) public pure returns (bool _success){\n    return true;\n  }\n\n  function test_if_empty_bytes (bytes32 _item) if_empty_bytes(_item) public pure returns (bool _success){\n    return true;\n  }\n\n  function test_not_null_string (string _item) not_null_string(_item) public pure returns (bool _success) {\n    return true;\n  }\n\n  function test_if_null_string (string _item) if_null_string(_item) public pure returns (bool _success) {\n    return true;\n  }\n\n  function test_require_gas (uint256 _requiredgas) require_gas(_requiredgas) public constant returns (bool _success) {\n    return true;\n  }\n\n  function test_if_contract (address _contract) if_contract(_contract) public constant returns (bool _success) {\n    return true;\n  }\n\n  function test_unless_contract (address _contract) unless_contract(_contract) public constant returns (bool _success) {\n    return true;\n  }\n}\n",
  "sourcePath": "/home/vu/digix/cacp-contracts/contracts/Mock/MockACConditions.sol",
  "compiler": {
    "name": "solc",
    "version": "0.4.19+commit.c4cbbb05.Emscripten.clang"
  },
  "schemaVersion": "2.0.0",
  "updatedAt": "2018-03-13T06:46:52.609Z"
}