{
  "contractName": "MockACState",
  "abi": [
    {
      "constant": true,
      "inputs": [
        {
          "name": "_key",
          "type": "bytes32"
        },
        {
          "name": "_state",
          "type": "uint8"
        }
      ],
      "name": "test_if_state",
      "outputs": [
        {
          "name": "_success",
          "type": "bool"
        }
      ],
      "payable": false,
      "stateMutability": "view",
      "type": "function"
    },
    {
      "constant": true,
      "inputs": [
        {
          "name": "_key",
          "type": "bytes32"
        },
        {
          "name": "_state",
          "type": "uint8"
        }
      ],
      "name": "test_unless_state",
      "outputs": [
        {
          "name": "_success",
          "type": "bool"
        }
      ],
      "payable": false,
      "stateMutability": "view",
      "type": "function"
    },
    {
      "constant": false,
      "inputs": [
        {
          "name": "_key",
          "type": "bytes32"
        },
        {
          "name": "_state",
          "type": "uint8"
        }
      ],
      "name": "test_set_state_after",
      "outputs": [],
      "payable": false,
      "stateMutability": "nonpayable",
      "type": "function"
    },
    {
      "constant": false,
      "inputs": [
        {
          "name": "_key",
          "type": "bytes32"
        }
      ],
      "name": "test_increment_state_after",
      "outputs": [],
      "payable": false,
      "stateMutability": "nonpayable",
      "type": "function"
    },
    {
      "constant": false,
      "inputs": [
        {
          "name": "_key",
          "type": "bytes32"
        }
      ],
      "name": "test_decrement_state_after",
      "outputs": [],
      "payable": false,
      "stateMutability": "nonpayable",
      "type": "function"
    },
    {
      "constant": false,
      "inputs": [
        {
          "name": "_key",
          "type": "bytes32"
        }
      ],
      "name": "test_increment_state_before_set_100",
      "outputs": [],
      "payable": false,
      "stateMutability": "nonpayable",
      "type": "function"
    },
    {
      "constant": false,
      "inputs": [
        {
          "name": "_key",
          "type": "bytes32"
        }
      ],
      "name": "test_increment_state_before_increment_100",
      "outputs": [],
      "payable": false,
      "stateMutability": "nonpayable",
      "type": "function"
    },
    {
      "constant": false,
      "inputs": [
        {
          "name": "_key",
          "type": "bytes32"
        }
      ],
      "name": "test_decrement_state_before_increment_100",
      "outputs": [],
      "payable": false,
      "stateMutability": "nonpayable",
      "type": "function"
    },
    {
      "constant": false,
      "inputs": [
        {
          "name": "_key",
          "type": "bytes32"
        }
      ],
      "name": "test_decrement_state_before_set_100",
      "outputs": [],
      "payable": false,
      "stateMutability": "nonpayable",
      "type": "function"
    },
    {
      "constant": false,
      "inputs": [
        {
          "name": "_key",
          "type": "bytes32"
        },
        {
          "name": "_state",
          "type": "uint8"
        }
      ],
      "name": "test_set_state",
      "outputs": [
        {
          "name": "_success",
          "type": "bool"
        }
      ],
      "payable": false,
      "stateMutability": "nonpayable",
      "type": "function"
    },
    {
      "constant": false,
      "inputs": [
        {
          "name": "_key",
          "type": "bytes32"
        },
        {
          "name": "_state",
          "type": "uint8"
        }
      ],
      "name": "mock_setup_set_state",
      "outputs": [],
      "payable": false,
      "stateMutability": "nonpayable",
      "type": "function"
    },
    {
      "constant": true,
      "inputs": [
        {
          "name": "_key",
          "type": "bytes32"
        }
      ],
      "name": "get_state",
      "outputs": [
        {
          "name": "_state_value",
          "type": "uint256"
        }
      ],
      "payable": false,
      "stateMutability": "view",
      "type": "function"
    }
  ],
  "bytecode": "0x6060604052341561000f57600080fd5b6106978061001e6000396000f3006060604052600436106100b9576000357c0100000000000000000000000000000000000000000000000000000000900463ffffffff168062de9a22146100be57806318ca0582146100f9578063357c781314610120578063464059b81461014757806375709a281461017a57806376378568146101c5578063954df0d0146101ec57806397025c2814610213578063b38cd2a21461025e578063b3be90b5146102a9578063d401c3a3146102d0578063e36a5cad146102f7575b600080fd5b34156100c957600080fd5b6100e360048080356000191690602001909190505061032a565b6040518082815260200191505060405180910390f35b341561010457600080fd5b61011e60048080356000191690602001909190505061034e565b005b341561012b57600080fd5b61014560048080356000191690602001909190505061039e565b005b341561015257600080fd5b61017860048080356000191690602001909190803560ff169060200190919050506103f6565b005b341561018557600080fd5b6101ab60048080356000191690602001909190803560ff1690602001909190505061041c565b604051808215151515815260200191505060405180910390f35b34156101d057600080fd5b6101ea600480803560001916906020019091905050610430565b005b34156101f757600080fd5b610211600480803560001916906020019091905050610480565b005b341561021e57600080fd5b61024460048080356000191690602001909190803560ff169060200190919050506104cf565b604051808215151515815260200191505060405180910390f35b341561026957600080fd5b61028f60048080356000191690602001909190803560ff1690602001909190505061050b565b604051808215151515815260200191505060405180910390f35b34156102b457600080fd5b6102ce600480803560001916906020019091905050610546565b005b34156102db57600080fd5b6102f560048080356000191690602001909190505061059f565b005b341561030257600080fd5b61032860048080356000191690602001909190803560ff169060200190919050506105ee565b005b60008060008360001916600019168152602001908152602001600020549050919050565b806000808260001916600019168152602001908152602001600020600081548092919060019003919050555060646000808460001916600019168152602001908152602001600020819055505050565b8060008082600019166000191681526020019081526020016000206000815480929190600101919050555060646000808460001916600019168152602001908152602001600020600082825401925050819055505050565b8060ff166000808460001916600019168152602001908152602001600020819055505050565b6000610428838361063d565b905092915050565b806064600080846000191660001916815260200190815260200160002081905550600080826000191660001916815260200190815260200160002060008154809291906001900391905055505050565b8060646000808460001916600019168152602001908152602001600020819055506000808260001916600019168152602001908152602001600020600081548092919060010191905055505050565b600082828060ff16600080846000191660001916815260200190815260200160002054141515156104ff57600080fd5b60019250505092915050565b600082828060ff1660008084600019166000191681526020019081526020016000205414151561053a57600080fd5b60019250505092915050565b806000808260001916600019168152602001908152602001600020600081548092919060019003919050555060646000808460001916600019168152602001908152602001600020600082825401925050819055505050565b8060008082600019166000191681526020019081526020016000206000815480929190600101919050555060646000808460001916600019168152602001908152602001600020819055505050565b81816064830160ff166000808660001916600019168152602001908152602001600020819055508060ff1660008084600019166000191681526020019081526020016000208190555050505050565b60008160ff1660008085600019166000191681526020019081526020016000208190555060019050929150505600a165627a7a723058204183977edde7577230ecf1feac134b6b59e2be2615db73c544985eb4ac77b3e90029",
  "source": "pragma solidity ^0.4.19;\n\nimport \"../ACState.sol\";\n\ncontract MockACState is ACState {\n\n    function test_if_state(bytes32 _key, uint8 _state)\n             if_state(_key, _state)\n             public\n             constant\n             returns (bool _success)\n    {\n      return true;\n    }\n\n    function test_unless_state(bytes32 _key, uint8 _state)\n             unless_state(_key, _state)\n             public\n             constant\n             returns (bool _success)\n    {\n      return true;\n    }\n\n    function test_set_state_after(bytes32 _key, uint8 _state)\n             set_state_after(_key, _state)\n             public\n    {\n      states[_key] = _state + 100; //something that is not _state\n    }\n\n    function test_increment_state_after(bytes32 _key)\n             increment_state_after(_key)\n             public\n    {\n      states[_key] = 100; //fixed number\n    }\n\n    function test_decrement_state_after(bytes32 _key)\n             decrement_state_after(_key)\n             public\n    {\n      states[_key] = 100; //fixed number\n    }\n\n    function test_increment_state_before_set_100(bytes32 _key)\n             increment_state_before(_key)\n             public\n    {\n      states[_key] = 100; //set state = 100 in the function body\n    }\n\n    function test_increment_state_before_increment_100(bytes32 _key)\n             increment_state_before(_key)\n             public\n    {\n      states[_key] += 100; //increment by 100 in the function body\n    }\n\n\n    function test_decrement_state_before_increment_100(bytes32 _key)\n             decrement_state_before(_key)\n             public\n    {\n      states[_key] += 100; //always increment by 100 in the function body\n    }\n\n    function test_decrement_state_before_set_100(bytes32 _key)\n             decrement_state_before(_key)\n             public\n    {\n      states[_key] = 100; //always increment by 100 in the function body\n    }\n\n    function test_set_state(bytes32 _key, uint8 _state)\n             public\n             returns (bool _success)\n    {\n      _success = set_state(_key, _state);\n    }\n\n    function mock_setup_set_state(bytes32 _key, uint8 _state)\n             public\n    {\n      states[_key] = _state;\n    }\n\n    function get_state(bytes32 _key)\n             public\n             constant\n             returns (uint256 _state_value)\n    {\n      _state_value = states[_key];\n    }\n}\n",
  "sourcePath": "/home/vu/digix/cacp-contracts/contracts/Mock/MockACState.sol",
  "compiler": {
    "name": "solc",
    "version": "0.4.19+commit.c4cbbb05.Emscripten.clang"
  },
  "schemaVersion": "2.0.0",
  "updatedAt": "2018-03-19T06:36:08.584Z"
}