{
  "contractName": "MockACDates",
  "abi": [
    {
      "constant": true,
      "inputs": [
        {
          "name": "_date",
          "type": "uint256"
        }
      ],
      "name": "test_if_before",
      "outputs": [
        {
          "name": "_success",
          "type": "bool"
        }
      ],
      "payable": false,
      "stateMutability": "view",
      "type": "function"
    },
    {
      "constant": true,
      "inputs": [
        {
          "name": "_date",
          "type": "uint256"
        }
      ],
      "name": "test_if_after",
      "outputs": [
        {
          "name": "_success",
          "type": "bool"
        }
      ],
      "payable": false,
      "stateMutability": "view",
      "type": "function"
    }
  ],
  "bytecode": "0x608060405234801561001057600080fd5b5061013d806100206000396000f30060806040526004361061004c576000357c0100000000000000000000000000000000000000000000000000000000900463ffffffff16806355b3daac14610051578063689358cb14610096575b600080fd5b34801561005d57600080fd5b5061007c600480360381019080803590602001909291905050506100db565b604051808215151515815260200191505060405180910390f35b3480156100a257600080fd5b506100c1600480360381019080803590602001909291905050506100f6565b604051808215151515815260200191505060405180910390f35b60008180421015156100ec57600080fd5b6001915050919050565b600081804211151561010757600080fd5b60019150509190505600a165627a7a723058206695e3db0e231d5a301674ff143e25a8856ad96e513fa8c3dfa03faad72292880029",
  "source": "pragma solidity ^0.4.19;\n\n/// @title Blocktime based access control\n/// @author DigixGlobal\nimport '../ACDates.sol';\n\ncontract MockACDates is ACDates {\n\n  function test_if_before(uint256 _date) if_before(_date) public constant returns (bool _success) {\n\n    return true;\n  }\n\n  function test_if_after(uint256 _date) if_after(_date) public constant returns (bool _success) {\n    return true;\n  }\n}\n",
  "sourcePath": "/home/rohit/Develop/cacp-contracts/contracts/Mock/MockACDates.sol",
  "compiler": {
    "name": "solc",
    "version": "0.4.23+commit.124ca40d.Emscripten.clang"
  },
  "schemaVersion": "2.0.0",
  "updatedAt": "2018-05-30T02:43:30.982Z"
}