{
  "contractName": "MockACDates",
  "abi": [
    {
      "constant": true,
      "inputs": [
        {
          "name": "_date",
          "type": "uint256"
        }
      ],
      "name": "test_if_before",
      "outputs": [
        {
          "name": "_success",
          "type": "bool"
        }
      ],
      "payable": false,
      "stateMutability": "view",
      "type": "function"
    },
    {
      "constant": true,
      "inputs": [
        {
          "name": "_date",
          "type": "uint256"
        }
      ],
      "name": "test_if_after",
      "outputs": [
        {
          "name": "_success",
          "type": "bool"
        }
      ],
      "payable": false,
      "stateMutability": "view",
      "type": "function"
    }
  ],
  "bytecode": "0x6060604052341561000f57600080fd5b61011e8061001e6000396000f3006060604052600436106049576000357c0100000000000000000000000000000000000000000000000000000000900463ffffffff16806355b3daac14604e578063689358cb146086575b600080fd5b3415605857600080fd5b606c600480803590602001909190505060be565b604051808215151515815260200191505060405180910390f35b3415609057600080fd5b60a4600480803590602001909190505060d8565b604051808215151515815260200191505060405180910390f35b600081804210151560ce57600080fd5b6001915050919050565b600081804211151560e857600080fd5b60019150509190505600a165627a7a72305820dff35c157e4ca35e992a5ed209e918dc73f28f8969b24862810e2fcf79130a500029",
  "source": "pragma solidity ^0.4.19;\n\n/// @title Blocktime based access control\n/// @author DigixGlobal\nimport '../ACDates.sol';\n\ncontract MockACDates is ACDates {\n\n  function test_if_before(uint256 _date) if_before(_date) public constant returns (bool _success) {\n\n    return true;\n  }\n\n  function test_if_after(uint256 _date) if_after(_date) public constant returns (bool _success) {\n    return true;\n  }\n}\n",
  "sourcePath": "/home/vu/digix/cacp-contracts/contracts/Mock/MockACDates.sol",
  "compiler": {
    "name": "solc",
    "version": "0.4.19+commit.c4cbbb05.Emscripten.clang"
  },
  "schemaVersion": "2.0.0",
  "updatedAt": "2018-03-13T06:46:52.610Z"
}