{
  "contractName": "MockResolverClient",
  "abi": [
    {
      "constant": true,
      "inputs": [],
      "name": "resolver",
      "outputs": [
        {
          "name": "",
          "type": "address"
        }
      ],
      "payable": false,
      "stateMutability": "view",
      "type": "function"
    },
    {
      "constant": true,
      "inputs": [],
      "name": "key",
      "outputs": [
        {
          "name": "",
          "type": "bytes32"
        }
      ],
      "payable": false,
      "stateMutability": "view",
      "type": "function"
    },
    {
      "constant": true,
      "inputs": [],
      "name": "CONTRACT_ADDRESS",
      "outputs": [
        {
          "name": "",
          "type": "address"
        }
      ],
      "payable": false,
      "stateMutability": "view",
      "type": "function"
    },
    {
      "constant": false,
      "inputs": [
        {
          "name": "_resolver",
          "type": "address"
        }
      ],
      "name": "mock_set_resolver",
      "outputs": [],
      "payable": false,
      "stateMutability": "nonpayable",
      "type": "function"
    },
    {
      "constant": true,
      "inputs": [
        {
          "name": "_contract",
          "type": "bytes32"
        }
      ],
      "name": "test_if_sender_is",
      "outputs": [
        {
          "name": "_success",
          "type": "bool"
        }
      ],
      "payable": false,
      "stateMutability": "view",
      "type": "function"
    },
    {
      "constant": true,
      "inputs": [
        {
          "name": "_contracts",
          "type": "bytes32[3]"
        }
      ],
      "name": "test_if_sender_is_from",
      "outputs": [
        {
          "name": "_success",
          "type": "bool"
        }
      ],
      "payable": false,
      "stateMutability": "view",
      "type": "function"
    },
    {
      "constant": true,
      "inputs": [],
      "name": "test_unless_resolver_is_locked",
      "outputs": [
        {
          "name": "_success",
          "type": "bool"
        }
      ],
      "payable": false,
      "stateMutability": "view",
      "type": "function"
    },
    {
      "constant": false,
      "inputs": [
        {
          "name": "_key",
          "type": "bytes32"
        },
        {
          "name": "_resolver",
          "type": "address"
        }
      ],
      "name": "test_init",
      "outputs": [
        {
          "name": "_success",
          "type": "bool"
        }
      ],
      "payable": false,
      "stateMutability": "nonpayable",
      "type": "function"
    },
    {
      "constant": true,
      "inputs": [
        {
          "name": "_key",
          "type": "bytes32"
        }
      ],
      "name": "get_contract",
      "outputs": [
        {
          "name": "_contract",
          "type": "address"
        }
      ],
      "payable": false,
      "stateMutability": "view",
      "type": "function"
    },
    {
      "constant": false,
      "inputs": [],
      "name": "test_add_ether",
      "outputs": [
        {
          "name": "_success",
          "type": "bool"
        }
      ],
      "payable": true,
      "stateMutability": "payable",
      "type": "function"
    }
  ],
  "bytecode": "0x608060405234801561001057600080fd5b50610bea806100206000396000f3006080604052600436106100a4576000357c0100000000000000000000000000000000000000000000000000000000900463ffffffff16806304f3bcec146100a95780630c52023a1461010057806315cb09f2146101225780633943380c146101515780633f83acff146101845780636974fa02146101f557806381f5883414610238578063980e14e1146102a2578063c320f351146102eb578063db4ecbc114610354575b600080fd5b3480156100b557600080fd5b506100be6103ab565b604051808273ffffffffffffffffffffffffffffffffffffffff1673ffffffffffffffffffffffffffffffffffffffff16815260200191505060405180910390f35b6101086103d0565b604051808215151515815260200191505060405180910390f35b34801561012e57600080fd5b506101376103d9565b604051808215151515815260200191505060405180910390f35b34801561015d57600080fd5b506101666103fb565b60405180826000191660001916815260200191505060405180910390f35b34801561019057600080fd5b506101b36004803603810190808035600019169060200190929190505050610401565b604051808273ffffffffffffffffffffffffffffffffffffffff1673ffffffffffffffffffffffffffffffffffffffff16815260200191505060405180910390f35b34801561020157600080fd5b50610236600480360381019080803573ffffffffffffffffffffffffffffffffffffffff1690602001909291905050506104dd565b005b34801561024457600080fd5b506102886004803603810190808060600190600380602002604051908101604052809291908260036020028082843782019150505050509192919290505050610576565b604051808215151515815260200191505060405180910390f35b3480156102ae57600080fd5b506102d16004803603810190808035600019169060200190929190505050610597565b604051808215151515815260200191505060405180910390f35b3480156102f757600080fd5b5061033a6004803603810190808035600019169060200190929190803573ffffffffffffffffffffffffffffffffffffffff1690602001909291905050506105b8565b604051808215151515815260200191505060405180910390f35b34801561036057600080fd5b506103696105cc565b604051808273ffffffffffffffffffffffffffffffffffffffff1673ffffffffffffffffffffffffffffffffffffffff16815260200191505060405180910390f35b6000809054906101000a900473ffffffffffffffffffffffffffffffffffffffff1681565b60006001905090565b60008015156103e66105f2565b15151415156103f457600080fd5b6001905090565b60015481565b60008060009054906101000a900473ffffffffffffffffffffffffffffffffffffffff1673ffffffffffffffffffffffffffffffffffffffff16633f83acff836040518263ffffffff167c0100000000000000000000000000000000000000000000000000000000028152600401808260001916600019168152602001915050602060405180830381600087803b15801561049b57600080fd5b505af11580156104af573d6000803e3d6000fd5b505050506040513d60208110156104c557600080fd5b81019080805190602001909291905050509050919050565b806000806101000a81548173ffffffffffffffffffffffffffffffffffffffff021916908373ffffffffffffffffffffffffffffffffffffffff1602179055506105687f6d6f636b3a726573636c69656e740000000000000000000000000000000000006000809054906101000a900473ffffffffffffffffffffffffffffffffffffffff166106b9565b151561057357600080fd5b50565b60008161058281610941565b151561058d57600080fd5b6001915050919050565b6000816105a381610ab4565b15156105ae57600080fd5b6001915050919050565b60006105c483836106b9565b905092915050565b600260009054906101000a900473ffffffffffffffffffffffffffffffffffffffff1681565b60008060009054906101000a900473ffffffffffffffffffffffffffffffffffffffff1673ffffffffffffffffffffffffffffffffffffffff1663cf3090126040518163ffffffff167c0100000000000000000000000000000000000000000000000000000000028152600401602060405180830381600087803b15801561067957600080fd5b505af115801561068d573d6000803e3d6000fd5b505050506040513d60208110156106a357600080fd5b8101908080519060200190929190505050905090565b6000808273ffffffffffffffffffffffffffffffffffffffff1663cf3090126040518163ffffffff167c0100000000000000000000000000000000000000000000000000000000028152600401602060405180830381600087803b15801561072057600080fd5b505af1158015610734573d6000803e3d6000fd5b505050506040513d602081101561074a57600080fd5b810190808051906020019092919050505090506000151581151514156109355730600260006101000a81548173ffffffffffffffffffffffffffffffffffffffff021916908373ffffffffffffffffffffffffffffffffffffffff160217905550826000806101000a81548173ffffffffffffffffffffffffffffffffffffffff021916908373ffffffffffffffffffffffffffffffffffffffff16021790555083600181600019169055506000809054906101000a900473ffffffffffffffffffffffffffffffffffffffff1673ffffffffffffffffffffffffffffffffffffffff1663c0f6ef4a600154600260009054906101000a900473ffffffffffffffffffffffffffffffffffffffff166040518363ffffffff167c01000000000000000000000000000000000000000000000000000000000281526004018083600019166000191681526020018273ffffffffffffffffffffffffffffffffffffffff1673ffffffffffffffffffffffffffffffffffffffff16815260200192505050602060405180830381600087803b1580156108e657600080fd5b505af11580156108fa573d6000803e3d6000fd5b505050506040513d602081101561091057600080fd5b8101908080519060200190929190505050151561092c57600080fd5b6001915061093a565b600091505b5092915050565b600080600060039150600090505b81811015610aad57600060010260001916848260038110151561096e57fe5b602002015160001916141561098257610aa0565b6000809054906101000a900473ffffffffffffffffffffffffffffffffffffffff1673ffffffffffffffffffffffffffffffffffffffff16633f83acff85836003811015156109cd57fe5b60200201516040518263ffffffff167c0100000000000000000000000000000000000000000000000000000000028152600401808260001916600019168152602001915050602060405180830381600087803b158015610a2c57600080fd5b505af1158015610a40573d6000803e3d6000fd5b505050506040513d6020811015610a5657600080fd5b810190808051906020019092919050505073ffffffffffffffffffffffffffffffffffffffff163373ffffffffffffffffffffffffffffffffffffffff161415610a9f57600192505b5b808060010191505061094f565b5050919050565b60008060009054906101000a900473ffffffffffffffffffffffffffffffffffffffff1673ffffffffffffffffffffffffffffffffffffffff16633f83acff836040518263ffffffff167c0100000000000000000000000000000000000000000000000000000000028152600401808260001916600019168152602001915050602060405180830381600087803b158015610b4e57600080fd5b505af1158015610b62573d6000803e3d6000fd5b505050506040513d6020811015610b7857600080fd5b810190808051906020019092919050505073ffffffffffffffffffffffffffffffffffffffff163373ffffffffffffffffffffffffffffffffffffffff161490509190505600a165627a7a72305820bb3d06604605c42869090ef57597a2a5db610f3d2f816b2e96c39a2747abeead0029",
  "source": "pragma solidity ^0.4.19;\n\nimport \"../ResolverClient.sol\";\n\n/// @title Contract Resolver Interface\n/// @author DigixGlobal\n\ncontract MockResolverClient is ResolverClient {\n\n  function mock_set_resolver(address _resolver)\n           public\n  {\n    resolver = _resolver;\n    require(init('mock:resclient', resolver));\n  }\n\n  function test_if_sender_is (bytes32 _contract)\n           if_sender_is(_contract)\n           public\n           constant\n           returns (bool _success)\n  {\n    _success = true;\n  }\n\n  function test_if_sender_is_from(bytes32[3] _contracts)\n           if_sender_is_from(_contracts)\n           public\n           constant\n           returns (bool _success)\n  {\n    _success = true;\n  }\n\n  function test_unless_resolver_is_locked ()\n           unless_resolver_is_locked ()\n           public\n           constant\n           returns (bool _success)\n  {\n    _success = true;\n  }\n\n  function test_init(bytes32 _key, address _resolver)\n           public\n           returns (bool _success)\n  {\n    _success = init(_key, _resolver);\n  }\n\n  /// @dev Get the address of a contract\n  /// @param _key the resolver key to look up\n  /// @return _contract the address of the contract\n  function get_contract(bytes32 _key)\n           public\n           constant\n           returns (address _contract)\n  {\n    _contract = ContractResolver(resolver).get_contract(_key);\n  }\n\n  function test_add_ether()\n           public\n           payable\n           returns (bool _success)\n  {\n    _success = true;\n  }\n}\n",
  "sourcePath": "/home/rohit/Develop/cacp-contracts/contracts/Mock/MockResolverClient.sol",
  "compiler": {
    "name": "solc",
    "version": "0.4.24+commit.e67f0147.Emscripten.clang"
  },
  "schemaVersion": "2.0.0",
  "updatedAt": "2018-08-17T06:51:00.392Z"
}