{
  "contractName": "MockACSimpleMutex",
  "abi": [
    {
      "constant": true,
      "inputs": [
        {
          "name": "_mutex_id",
          "type": "bytes32"
        }
      ],
      "name": "is_simple_mutex_locked",
      "outputs": [
        {
          "name": "_locked",
          "type": "bool"
        }
      ],
      "payable": false,
      "stateMutability": "view",
      "type": "function"
    },
    {
      "constant": false,
      "inputs": [
        {
          "name": "_mutex_id",
          "type": "bytes32"
        }
      ],
      "name": "set_mutex",
      "outputs": [],
      "payable": false,
      "stateMutability": "nonpayable",
      "type": "function"
    },
    {
      "constant": true,
      "inputs": [
        {
          "name": "_mutex_id",
          "type": "bytes32"
        }
      ],
      "name": "get_mutex",
      "outputs": [
        {
          "name": "_result",
          "type": "bool"
        }
      ],
      "payable": false,
      "stateMutability": "view",
      "type": "function"
    },
    {
      "constant": true,
      "inputs": [
        {
          "name": "_mutex_id",
          "type": "bytes32"
        }
      ],
      "name": "test_if_simple_mutex_is_locked",
      "outputs": [
        {
          "name": "_success",
          "type": "bool"
        }
      ],
      "payable": false,
      "stateMutability": "view",
      "type": "function"
    },
    {
      "constant": true,
      "inputs": [
        {
          "name": "_mutex_id",
          "type": "bytes32"
        }
      ],
      "name": "test_unless_simple_mutex_is_locked",
      "outputs": [
        {
          "name": "_success",
          "type": "bool"
        }
      ],
      "payable": false,
      "stateMutability": "view",
      "type": "function"
    },
    {
      "constant": false,
      "inputs": [
        {
          "name": "_mutex_id",
          "type": "bytes32"
        }
      ],
      "name": "test_lock_simple_mutex",
      "outputs": [
        {
          "name": "_success",
          "type": "bool"
        }
      ],
      "payable": false,
      "stateMutability": "nonpayable",
      "type": "function"
    },
    {
      "constant": false,
      "inputs": [
        {
          "name": "_mutex_id",
          "type": "bytes32"
        }
      ],
      "name": "test_unlock_simple_mutex",
      "outputs": [
        {
          "name": "_success",
          "type": "bool"
        }
      ],
      "payable": false,
      "stateMutability": "nonpayable",
      "type": "function"
    }
  ],
  "bytecode": "0x608060405234801561001057600080fd5b50610422806100206000396000f300608060405260043610610083576000357c0100000000000000000000000000000000000000000000000000000000900463ffffffff16806315e9904214610088578063221db71e146100d157806327379aa71461011a578063806a2b8714610163578063981a67fb146101ac578063b0cfd597146101dd578063b46c167814610226575b600080fd5b34801561009457600080fd5b506100b7600480360381019080803560001916906020019092919050505061026f565b604051808215151515815260200191505060405180910390f35b3480156100dd57600080fd5b506101006004803603810190808035600019169060200190929190505050610281565b604051808215151515815260200191505060405180910390f35b34801561012657600080fd5b506101496004803603810190808035600019169060200190929190505050610293565b604051808215151515815260200191505060405180910390f35b34801561016f57600080fd5b5061019260048036038101908080356000191690602001909291905050506102c4565b604051808215151515815260200191505060405180910390f35b3480156101b857600080fd5b506101db60048036038101908080356000191690602001909291905050506102ec565b005b3480156101e957600080fd5b5061020c6004803603810190808035600019169060200190929190505050610322565b604051808215151515815260200191505060405180910390f35b34801561023257600080fd5b506102556004803603810190808035600019169060200190929190505050610353565b604051808215151515815260200191505060405180910390f35b600061027a8261037b565b9050919050565b600061028c826103b8565b9050919050565b6000806000836000191660001916815260200190815260200160002060009054906101000a900460ff169050919050565b600081600015156102d482610293565b15151415156102e257600080fd5b6001915050919050565b6001600080836000191660001916815260200190815260200160002060006101000a81548160ff02191690831515021790555050565b6000806000836000191660001916815260200190815260200160002060009054906101000a900460ff169050919050565b6000816001151561036382610293565b151514151561037157600080fd5b6001915050919050565b600080600080846000191660001916815260200190815260200160002060006101000a81548160ff02191690831515021790555060019050919050565b60006001600080846000191660001916815260200190815260200160002060006101000a81548160ff021916908315150217905550600190509190505600a165627a7a723058207a86cdf47d6b4721c0e6cb3ecdc8630d9cd79d6322d335f7da0bed13e1a2489f0029",
  "source": "pragma solidity ^0.4.19;\n\n/// @title Locking based access control\n/// @author DigixGlobal\nimport '../ACSimpleMutex.sol';\n\ncontract MockACSimpleMutex is ACSimpleMutex {\n\n  function set_mutex(bytes32 _mutex_id) public {\n    locks[_mutex_id] = true;\n  }\n\n  function get_mutex(bytes32 _mutex_id)\n           public\n           constant\n           returns (bool _result)\n  {\n    _result = locks[_mutex_id];\n  }\n\n  function test_if_simple_mutex_is_locked(bytes32 _mutex_id)\n           if_simple_mutex_is_locked(_mutex_id)\n           public\n           constant\n           returns (bool _success)\n  {\n        _success = true;\n  }\n\n  function test_unless_simple_mutex_is_locked(bytes32 _mutex_id)\n           unless_simple_mutex_is_locked(_mutex_id)\n           public\n           constant\n           returns (bool _success)\n  {\n    _success = true;\n  }\n\n  function test_lock_simple_mutex(bytes32 _mutex_id)\n           public\n           returns (bool _success)\n  {\n    _success = lock_simple_mutex(_mutex_id);\n  }\n\n  function test_unlock_simple_mutex(bytes32 _mutex_id)\n           public\n           returns (bool _success)\n  {\n    _success = unlock_simple_mutex(_mutex_id);\n  }\n\n}\n",
  "sourcePath": "/home/rohit/Develop/cacp-contracts/contracts/Mock/MockACSimpleMutex.sol",
  "compiler": {
    "name": "solc",
    "version": "0.4.23+commit.124ca40d.Emscripten.clang"
  },
  "schemaVersion": "2.0.0",
  "updatedAt": "2018-05-30T03:27:23.391Z"
}