{
  "contractName": "MockACUserLevels",
  "abi": [
    {
      "constant": false,
      "inputs": [
        {
          "name": "_oldadmin",
          "type": "address"
        }
      ],
      "name": "unregister_admin",
      "outputs": [
        {
          "name": "_success",
          "type": "bool"
        }
      ],
      "payable": false,
      "stateMutability": "nonpayable",
      "type": "function"
    },
    {
      "constant": false,
      "inputs": [
        {
          "name": "_new_owner",
          "type": "address"
        }
      ],
      "name": "change_owner",
      "outputs": [
        {
          "name": "_success",
          "type": "bool"
        }
      ],
      "payable": false,
      "stateMutability": "nonpayable",
      "type": "function"
    },
    {
      "constant": true,
      "inputs": [],
      "name": "new_owner",
      "outputs": [
        {
          "name": "",
          "type": "address"
        }
      ],
      "payable": false,
      "stateMutability": "view",
      "type": "function"
    },
    {
      "constant": false,
      "inputs": [
        {
          "name": "_group",
          "type": "bytes32"
        },
        {
          "name": "_user",
          "type": "address"
        }
      ],
      "name": "add_user_to_group",
      "outputs": [
        {
          "name": "_success",
          "type": "bool"
        }
      ],
      "payable": false,
      "stateMutability": "nonpayable",
      "type": "function"
    },
    {
      "constant": false,
      "inputs": [
        {
          "name": "_newadmin",
          "type": "address"
        }
      ],
      "name": "register_admin",
      "outputs": [
        {
          "name": "_success",
          "type": "bool"
        }
      ],
      "payable": false,
      "stateMutability": "nonpayable",
      "type": "function"
    },
    {
      "constant": true,
      "inputs": [],
      "name": "owner",
      "outputs": [
        {
          "name": "",
          "type": "address"
        }
      ],
      "payable": false,
      "stateMutability": "view",
      "type": "function"
    },
    {
      "constant": true,
      "inputs": [],
      "name": "is_owner",
      "outputs": [
        {
          "name": "_is_owner",
          "type": "bool"
        }
      ],
      "payable": false,
      "stateMutability": "view",
      "type": "function"
    },
    {
      "constant": false,
      "inputs": [
        {
          "name": "_group",
          "type": "bytes32"
        },
        {
          "name": "_user",
          "type": "address"
        }
      ],
      "name": "delete_user_from_group",
      "outputs": [
        {
          "name": "_success",
          "type": "bool"
        }
      ],
      "payable": false,
      "stateMutability": "nonpayable",
      "type": "function"
    },
    {
      "constant": true,
      "inputs": [
        {
          "name": "_group",
          "type": "bytes32"
        },
        {
          "name": "_user",
          "type": "address"
        }
      ],
      "name": "is_group_member_of",
      "outputs": [
        {
          "name": "_ismember",
          "type": "bool"
        }
      ],
      "payable": false,
      "stateMutability": "view",
      "type": "function"
    },
    {
      "constant": false,
      "inputs": [],
      "name": "claim_ownership",
      "outputs": [
        {
          "name": "_success",
          "type": "bool"
        }
      ],
      "payable": false,
      "stateMutability": "nonpayable",
      "type": "function"
    },
    {
      "constant": true,
      "inputs": [],
      "name": "get_is_ac_user_levels_init",
      "outputs": [
        {
          "name": "_is_ac_user_levels_init",
          "type": "bool"
        }
      ],
      "payable": false,
      "stateMutability": "view",
      "type": "function"
    },
    {
      "constant": false,
      "inputs": [
        {
          "name": "_user",
          "type": "address"
        },
        {
          "name": "_category",
          "type": "bytes32"
        },
        {
          "name": "_level",
          "type": "uint8"
        }
      ],
      "name": "mock_set_user_level",
      "outputs": [],
      "payable": false,
      "stateMutability": "nonpayable",
      "type": "function"
    },
    {
      "constant": false,
      "inputs": [
        {
          "name": "_is_ac_user_levels_init",
          "type": "bool"
        }
      ],
      "name": "mock_set_is_ac_user_levels_init",
      "outputs": [],
      "payable": false,
      "stateMutability": "nonpayable",
      "type": "function"
    },
    {
      "constant": false,
      "inputs": [],
      "name": "test_init_ac_user_levels",
      "outputs": [
        {
          "name": "_success",
          "type": "bool"
        }
      ],
      "payable": false,
      "stateMutability": "nonpayable",
      "type": "function"
    },
    {
      "constant": true,
      "inputs": [
        {
          "name": "_user",
          "type": "address"
        },
        {
          "name": "_category",
          "type": "bytes32"
        },
        {
          "name": "_required_level",
          "type": "uint8"
        }
      ],
      "name": "test_if_above_level",
      "outputs": [
        {
          "name": "_success",
          "type": "bool"
        }
      ],
      "payable": false,
      "stateMutability": "view",
      "type": "function"
    },
    {
      "constant": true,
      "inputs": [
        {
          "name": "_user",
          "type": "address"
        },
        {
          "name": "_category",
          "type": "bytes32"
        },
        {
          "name": "_required_level",
          "type": "uint8"
        }
      ],
      "name": "test_if_below_level",
      "outputs": [
        {
          "name": "_success",
          "type": "bool"
        }
      ],
      "payable": false,
      "stateMutability": "view",
      "type": "function"
    },
    {
      "constant": true,
      "inputs": [
        {
          "name": "_user",
          "type": "address"
        },
        {
          "name": "_category",
          "type": "bytes32"
        },
        {
          "name": "_required_level",
          "type": "uint8"
        }
      ],
      "name": "test_if_at_level",
      "outputs": [
        {
          "name": "_success",
          "type": "bool"
        }
      ],
      "payable": false,
      "stateMutability": "view",
      "type": "function"
    },
    {
      "constant": true,
      "inputs": [],
      "name": "test_unless_ac_user_levels_initialized",
      "outputs": [
        {
          "name": "_success",
          "type": "bool"
        }
      ],
      "payable": false,
      "stateMutability": "view",
      "type": "function"
    }
  ],
  "bytecode": "0x60606040526000600160156101000a81548160ff021916908315150217905550341561002a57600080fd5b61129c806100396000396000f3006060604052600436106100fc576000357c0100000000000000000000000000000000000000000000000000000000900463ffffffff1680630207e20e14610101578063253c8bd41461015257806330713194146101a35780633ebb9fd51461020d5780634552b04f1461025f57806348e05b7c146102b4578063682d038a146102e15780636d7462941461033f57806379f0a8951461036c578063862578be146103bd5780638da5cb5b1461042757806393a72f4e1461047c578063986e382b146104a9578063ad721ff614610513578063b692ee2314610540578063deef2b9c1461059e578063e6fc01a9146105c3578063f7a79a0214610621575b600080fd5b341561010c57600080fd5b610138600480803573ffffffffffffffffffffffffffffffffffffffff1690602001909190505061064e565b604051808215151515815260200191505060405180910390f35b341561015d57600080fd5b610189600480803573ffffffffffffffffffffffffffffffffffffffff169060200190919050506106fc565b604051808215151515815260200191505060405180910390f35b34156101ae57600080fd5b6101f3600480803573ffffffffffffffffffffffffffffffffffffffff169060200190919080356000191690602001909190803560ff1690602001909190505061075b565b604051808215151515815260200191505060405180910390f35b341561021857600080fd5b61025d600480803573ffffffffffffffffffffffffffffffffffffffff169060200190919080356000191690602001909190803560ff169060200190919050506107e7565b005b341561026a57600080fd5b61027261085d565b604051808273ffffffffffffffffffffffffffffffffffffffff1673ffffffffffffffffffffffffffffffffffffffff16815260200191505060405180910390f35b34156102bf57600080fd5b6102c7610883565b604051808215151515815260200191505060405180910390f35b34156102ec57600080fd5b61032560048080356000191690602001909190803573ffffffffffffffffffffffffffffffffffffffff169060200190919050506108ad565b604051808215151515815260200191505060405180910390f35b341561034a57600080fd5b6103526109f6565b604051808215151515815260200191505060405180910390f35b341561037757600080fd5b6103a3600480803573ffffffffffffffffffffffffffffffffffffffff16906020019091905050610a05565b604051808215151515815260200191505060405180910390f35b34156103c857600080fd5b61040d600480803573ffffffffffffffffffffffffffffffffffffffff169060200190919080356000191690602001909190803560ff16906020019091905050610ab3565b604051808215151515815260200191505060405180910390f35b341561043257600080fd5b61043a610b3f565b604051808273ffffffffffffffffffffffffffffffffffffffff1673ffffffffffffffffffffffffffffffffffffffff16815260200191505060405180910390f35b341561048757600080fd5b61048f610b64565b604051808215151515815260200191505060405180910390f35b34156104b457600080fd5b6104f9600480803573ffffffffffffffffffffffffffffffffffffffff169060200190919080356000191690602001909190803560ff16906020019091905050610b7b565b604051808215151515815260200191505060405180910390f35b341561051e57600080fd5b610526610c07565b604051808215151515815260200191505060405180910390f35b341561054b57600080fd5b61058460048080356000191690602001909190803573ffffffffffffffffffffffffffffffffffffffff16906020019091905050610c5e565b604051808215151515815260200191505060405180910390f35b34156105a957600080fd5b6105c160048080351515906020019091905050610da7565b005b34156105ce57600080fd5b61060760048080356000191690602001909190803573ffffffffffffffffffffffffffffffffffffffff16906020019091905050610dc4565b604051808215151515815260200191505060405180910390f35b341561062c57600080fd5b610634610e37565b604051808215151515815260200191505060405180910390f35b6000610658610c07565b151561066357600080fd5b6000600260007f61646d696e73000000000000000000000000000000000000000000000000000060001916815260200190815260200160002060000160008473ffffffffffffffffffffffffffffffffffffffff1673ffffffffffffffffffffffffffffffffffffffff16815260200190815260200160002060006101000a81548160ff02191690831515021790555060019050919050565b6000610706610c07565b151561071157600080fd5b81600160006101000a81548173ffffffffffffffffffffffffffffffffffffffff021916908373ffffffffffffffffffffffffffffffffffffffff16021790555060019050919050565b60008383838060ff1660046000846000191660001916815260200190815260200160002060008573ffffffffffffffffffffffffffffffffffffffff1673ffffffffffffffffffffffffffffffffffffffff16815260200190815260200160002060009054906101000a900460ff1660ff161015156107d957600080fd5b600193505050509392505050565b8060046000846000191660001916815260200190815260200160002060008573ffffffffffffffffffffffffffffffffffffffff1673ffffffffffffffffffffffffffffffffffffffff16815260200190815260200160002060006101000a81548160ff021916908360ff160217905550505050565b600160009054906101000a900473ffffffffffffffffffffffffffffffffffffffff1681565b6000801515600360009054906101000a900460ff1615151415156108a657600080fd5b6001905090565b60007f61646d696e73000000000000000000000000000000000000000000000000000060026000826000191660001916815260200190815260200160002060000160003373ffffffffffffffffffffffffffffffffffffffff1673ffffffffffffffffffffffffffffffffffffffff16815260200190815260200160002060009054906101000a900460ff16151561094457600080fd5b7f61646d696e73000000000000000000000000000000000000000000000000000084600019161415151561097757600080fd5b600160026000866000191660001916815260200190815260200160002060000160008573ffffffffffffffffffffffffffffffffffffffff1673ffffffffffffffffffffffffffffffffffffffff16815260200190815260200160002060006101000a81548160ff021916908315150217905550600191505092915050565b6000610a00610fa8565b905090565b6000610a0f610c07565b1515610a1a57600080fd5b6001600260007f61646d696e73000000000000000000000000000000000000000000000000000060001916815260200190815260200160002060000160008473ffffffffffffffffffffffffffffffffffffffff1673ffffffffffffffffffffffffffffffffffffffff16815260200190815260200160002060006101000a81548160ff02191690831515021790555060019050919050565b60008383838060ff1660046000846000191660001916815260200190815260200160002060008573ffffffffffffffffffffffffffffffffffffffff1673ffffffffffffffffffffffffffffffffffffffff16815260200190815260200160002060009054906101000a900460ff1660ff16141515610b3157600080fd5b600193505050509392505050565b6000809054906101000a900473ffffffffffffffffffffffffffffffffffffffff1681565b6000600360009054906101000a900460ff16905090565b60008383838060ff1660046000846000191660001916815260200190815260200160002060008573ffffffffffffffffffffffffffffffffffffffff1673ffffffffffffffffffffffffffffffffffffffff16815260200190815260200160002060009054906101000a900460ff1660ff16111515610bf957600080fd5b600193505050509392505050565b60008060009054906101000a900473ffffffffffffffffffffffffffffffffffffffff1673ffffffffffffffffffffffffffffffffffffffff163373ffffffffffffffffffffffffffffffffffffffff1614905090565b60007f61646d696e73000000000000000000000000000000000000000000000000000060026000826000191660001916815260200190815260200160002060000160003373ffffffffffffffffffffffffffffffffffffffff1673ffffffffffffffffffffffffffffffffffffffff16815260200190815260200160002060009054906101000a900460ff161515610cf557600080fd5b7f61646d696e730000000000000000000000000000000000000000000000000000846000191614151515610d2857600080fd5b600060026000866000191660001916815260200190815260200160002060000160008573ffffffffffffffffffffffffffffffffffffffff1673ffffffffffffffffffffffffffffffffffffffff16815260200190815260200160002060006101000a81548160ff021916908315150217905550600191505092915050565b80600360006101000a81548160ff02191690831515021790555050565b600060026000846000191660001916815260200190815260200160002060000160008373ffffffffffffffffffffffffffffffffffffffff1673ffffffffffffffffffffffffffffffffffffffff16815260200190815260200160002060009054906101000a900460ff16905092915050565b600080600260007f61646d696e73000000000000000000000000000000000000000000000000000060001916815260200190815260200160002060000160008060009054906101000a900473ffffffffffffffffffffffffffffffffffffffff1673ffffffffffffffffffffffffffffffffffffffff1673ffffffffffffffffffffffffffffffffffffffff16815260200190815260200160002060006101000a81548160ff0219169083151502179055506001600260007f61646d696e7300000000000000000000000000000000000000000000000000006000191681526020019081526020016000206000016000600160009054906101000a900473ffffffffffffffffffffffffffffffffffffffff1673ffffffffffffffffffffffffffffffffffffffff1673ffffffffffffffffffffffffffffffffffffffff16815260200190815260200160002060006101000a81548160ff021916908315150217905550610fa3611035565b905090565b6000801515600360009054906101000a900460ff161515141515610fcb57600080fd5b6001600360006101000a81548160ff021916908315150217905550610fee6110fc565b1515610ff957600080fd5b6110237f756c61646d696e73000000000000000000000000000000000000000000000000336108ad565b151561102e57600080fd5b6001905090565b6000600160009054906101000a900473ffffffffffffffffffffffffffffffffffffffff1673ffffffffffffffffffffffffffffffffffffffff163373ffffffffffffffffffffffffffffffffffffffff1614151561109357600080fd5b600160009054906101000a900473ffffffffffffffffffffffffffffffffffffffff166000806101000a81548173ffffffffffffffffffffffffffffffffffffffff021916908373ffffffffffffffffffffffffffffffffffffffff1602179055506001905090565b6000801515600160149054906101000a900460ff1615151415611123576111216111f1565b505b60001515600160159054906101000a900460ff16151514156111ea576001600260007f61646d696e73000000000000000000000000000000000000000000000000000060001916815260200190815260200160002060000160003373ffffffffffffffffffffffffffffffffffffffff1673ffffffffffffffffffffffffffffffffffffffff16815260200190815260200160002060006101000a81548160ff02191690831515021790555060018060156101000a81548160ff0219169083151502179055505b6001905090565b6000801515600160149054906101000a900460ff161515141561126957336000806101000a81548173ffffffffffffffffffffffffffffffffffffffff021916908373ffffffffffffffffffffffffffffffffffffffff16021790555060018060146101000a81548160ff0219169083151502179055505b60019050905600a165627a7a723058200ff854d0d07004e1837eaaf5e0e9ec1220dbb0b943169b752e221935981bb0e30029",
  "source": "pragma solidity ^0.4.19;\n\nimport \"../ACUserLevels.sol\";\n\n/// @title User levels based access control\n/// @author DigixGlobal\n\ncontract MockACUserLevels is ACUserLevels {\n\n  function get_is_ac_user_levels_init ()\n           public\n           constant\n           returns (bool _is_ac_user_levels_init)\n  {\n    _is_ac_user_levels_init = is_ac_user_levels_init;\n  }\n\n  function mock_set_user_level (address _user, bytes32 _category, uint8 _level) public {\n    user_levels[_category][_user] = _level;\n  }\n\n  function mock_set_is_ac_user_levels_init (bool _is_ac_user_levels_init) public {\n    is_ac_user_levels_init = _is_ac_user_levels_init;\n  }\n\n  function test_init_ac_user_levels()\n           public\n           returns (bool _success)\n  {\n    _success = init_ac_user_levels();\n  }\n\n  function test_if_above_level(address _user, bytes32 _category, uint8 _required_level)\n           if_above_level(_user, _category, _required_level)\n           public\n           constant\n           returns (bool _success)\n  {\n    _success = true;\n  }\n\n  function test_if_below_level(address _user, bytes32 _category, uint8 _required_level)\n           if_below_level(_user, _category, _required_level)\n           public\n           constant\n           returns (bool _success)\n  {\n    _success = true;\n  }\n\n\n  function test_if_at_level(address _user, bytes32 _category, uint8 _required_level)\n           if_at_level(_user, _category, _required_level)\n           public\n           constant\n           returns (bool _success)\n  {\n    _success = true;\n  }\n\n  function test_unless_ac_user_levels_initialized ()\n           unless_ac_user_levels_initialized ()\n           public\n           constant\n           returns (bool _success)\n  {\n    _success = true;\n  }\n}\n",
  "sourcePath": "/home/rohit/Develop/cacp-contracts/contracts/Mock/MockACUserLevels.sol",
  "compiler": {
    "name": "solc",
    "version": "0.4.19+commit.c4cbbb05.Emscripten.clang"
  },
  "schemaVersion": "1.0.1",
  "updatedAt": "2018-03-14T04:27:32.119Z"
}