{
  "contractName": "MockACState",
  "abi": [
    {
      "constant": true,
      "inputs": [
        {
          "name": "_key",
          "type": "bytes32"
        },
        {
          "name": "_state",
          "type": "uint8"
        }
      ],
      "name": "test_if_state",
      "outputs": [
        {
          "name": "_success",
          "type": "bool"
        }
      ],
      "payable": false,
      "stateMutability": "view",
      "type": "function"
    },
    {
      "constant": true,
      "inputs": [
        {
          "name": "_key",
          "type": "bytes32"
        },
        {
          "name": "_state",
          "type": "uint8"
        }
      ],
      "name": "test_unless_state",
      "outputs": [
        {
          "name": "_success",
          "type": "bool"
        }
      ],
      "payable": false,
      "stateMutability": "view",
      "type": "function"
    },
    {
      "constant": false,
      "inputs": [
        {
          "name": "_key",
          "type": "bytes32"
        },
        {
          "name": "_state",
          "type": "uint8"
        }
      ],
      "name": "test_set_state_after",
      "outputs": [],
      "payable": false,
      "stateMutability": "nonpayable",
      "type": "function"
    },
    {
      "constant": false,
      "inputs": [
        {
          "name": "_key",
          "type": "bytes32"
        }
      ],
      "name": "test_increment_state_after",
      "outputs": [],
      "payable": false,
      "stateMutability": "nonpayable",
      "type": "function"
    },
    {
      "constant": false,
      "inputs": [
        {
          "name": "_key",
          "type": "bytes32"
        }
      ],
      "name": "test_decrement_state_after",
      "outputs": [],
      "payable": false,
      "stateMutability": "nonpayable",
      "type": "function"
    },
    {
      "constant": false,
      "inputs": [
        {
          "name": "_key",
          "type": "bytes32"
        }
      ],
      "name": "test_increment_state_before_set_100",
      "outputs": [],
      "payable": false,
      "stateMutability": "nonpayable",
      "type": "function"
    },
    {
      "constant": false,
      "inputs": [
        {
          "name": "_key",
          "type": "bytes32"
        }
      ],
      "name": "test_increment_state_before_increment_100",
      "outputs": [],
      "payable": false,
      "stateMutability": "nonpayable",
      "type": "function"
    },
    {
      "constant": false,
      "inputs": [
        {
          "name": "_key",
          "type": "bytes32"
        }
      ],
      "name": "test_decrement_state_before_increment_100",
      "outputs": [],
      "payable": false,
      "stateMutability": "nonpayable",
      "type": "function"
    },
    {
      "constant": false,
      "inputs": [
        {
          "name": "_key",
          "type": "bytes32"
        }
      ],
      "name": "test_decrement_state_before_set_100",
      "outputs": [],
      "payable": false,
      "stateMutability": "nonpayable",
      "type": "function"
    },
    {
      "constant": false,
      "inputs": [
        {
          "name": "_key",
          "type": "bytes32"
        },
        {
          "name": "_state",
          "type": "uint8"
        }
      ],
      "name": "test_set_state",
      "outputs": [
        {
          "name": "_success",
          "type": "bool"
        }
      ],
      "payable": false,
      "stateMutability": "nonpayable",
      "type": "function"
    },
    {
      "constant": false,
      "inputs": [
        {
          "name": "_key",
          "type": "bytes32"
        },
        {
          "name": "_state",
          "type": "uint8"
        }
      ],
      "name": "mock_setup_set_state",
      "outputs": [],
      "payable": false,
      "stateMutability": "nonpayable",
      "type": "function"
    },
    {
      "constant": true,
      "inputs": [
        {
          "name": "_key",
          "type": "bytes32"
        }
      ],
      "name": "get_state",
      "outputs": [
        {
          "name": "_state_value",
          "type": "uint256"
        }
      ],
      "payable": false,
      "stateMutability": "view",
      "type": "function"
    }
  ],
  "bytecode": "0x608060405234801561001057600080fd5b50610714806100206000396000f3006080604052600436106100b9576000357c0100000000000000000000000000000000000000000000000000000000900463ffffffff168062de9a22146100be57806318ca058214610103578063357c781314610134578063464059b81461016557806375709a28146101a357806376378568146101f9578063954df0d01461022a57806397025c281461025b578063b38cd2a2146102b1578063b3be90b514610307578063d401c3a314610338578063e36a5cad14610369575b600080fd5b3480156100ca57600080fd5b506100ed60048036038101908080356000191690602001909291905050506103a7565b6040518082815260200191505060405180910390f35b34801561010f57600080fd5b5061013260048036038101908080356000191690602001909291905050506103cb565b005b34801561014057600080fd5b50610163600480360381019080803560001916906020019092919050505061041b565b005b34801561017157600080fd5b506101a16004803603810190808035600019169060200190929190803560ff169060200190929190505050610473565b005b3480156101af57600080fd5b506101df6004803603810190808035600019169060200190929190803560ff169060200190929190505050610499565b604051808215151515815260200191505060405180910390f35b34801561020557600080fd5b5061022860048036038101908080356000191690602001909291905050506104ad565b005b34801561023657600080fd5b5061025960048036038101908080356000191690602001909291905050506104fd565b005b34801561026757600080fd5b506102976004803603810190808035600019169060200190929190803560ff16906020019092919050505061054c565b604051808215151515815260200191505060405180910390f35b3480156102bd57600080fd5b506102ed6004803603810190808035600019169060200190929190803560ff169060200190929190505050610588565b604051808215151515815260200191505060405180910390f35b34801561031357600080fd5b5061033660048036038101908080356000191690602001909291905050506105c3565b005b34801561034457600080fd5b50610367600480360381019080803560001916906020019092919050505061061c565b005b34801561037557600080fd5b506103a56004803603810190808035600019169060200190929190803560ff16906020019092919050505061066b565b005b60008060008360001916600019168152602001908152602001600020549050919050565b806000808260001916600019168152602001908152602001600020600081548092919060019003919050555060646000808460001916600019168152602001908152602001600020819055505050565b8060008082600019166000191681526020019081526020016000206000815480929190600101919050555060646000808460001916600019168152602001908152602001600020600082825401925050819055505050565b8060ff166000808460001916600019168152602001908152602001600020819055505050565b60006104a583836106ba565b905092915050565b806064600080846000191660001916815260200190815260200160002081905550600080826000191660001916815260200190815260200160002060008154809291906001900391905055505050565b8060646000808460001916600019168152602001908152602001600020819055506000808260001916600019168152602001908152602001600020600081548092919060010191905055505050565b600082828060ff166000808460001916600019168152602001908152602001600020541415151561057c57600080fd5b60019250505092915050565b600082828060ff166000808460001916600019168152602001908152602001600020541415156105b757600080fd5b60019250505092915050565b806000808260001916600019168152602001908152602001600020600081548092919060019003919050555060646000808460001916600019168152602001908152602001600020600082825401925050819055505050565b8060008082600019166000191681526020019081526020016000206000815480929190600101919050555060646000808460001916600019168152602001908152602001600020819055505050565b81816064830160ff166000808660001916600019168152602001908152602001600020819055508060ff1660008084600019166000191681526020019081526020016000208190555050505050565b60008160ff1660008085600019166000191681526020019081526020016000208190555060019050929150505600a165627a7a72305820f8aef3549634818f9f8700995c6c2412780774bff04114519d2848d9ff63ac5b0029",
  "source": "pragma solidity ^0.4.19;\n\nimport \"../ACState.sol\";\n\ncontract MockACState is ACState {\n\n    function test_if_state(bytes32 _key, uint8 _state)\n             if_state(_key, _state)\n             public\n             constant\n             returns (bool _success)\n    {\n      return true;\n    }\n\n    function test_unless_state(bytes32 _key, uint8 _state)\n             unless_state(_key, _state)\n             public\n             constant\n             returns (bool _success)\n    {\n      return true;\n    }\n\n    function test_set_state_after(bytes32 _key, uint8 _state)\n             set_state_after(_key, _state)\n             public\n    {\n      states[_key] = _state + 100; //something that is not _state\n    }\n\n    function test_increment_state_after(bytes32 _key)\n             increment_state_after(_key)\n             public\n    {\n      states[_key] = 100; //fixed number\n    }\n\n    function test_decrement_state_after(bytes32 _key)\n             decrement_state_after(_key)\n             public\n    {\n      states[_key] = 100; //fixed number\n    }\n\n    function test_increment_state_before_set_100(bytes32 _key)\n             increment_state_before(_key)\n             public\n    {\n      states[_key] = 100; //set state = 100 in the function body\n    }\n\n    function test_increment_state_before_increment_100(bytes32 _key)\n             increment_state_before(_key)\n             public\n    {\n      states[_key] += 100; //increment by 100 in the function body\n    }\n\n\n    function test_decrement_state_before_increment_100(bytes32 _key)\n             decrement_state_before(_key)\n             public\n    {\n      states[_key] += 100; //always increment by 100 in the function body\n    }\n\n    function test_decrement_state_before_set_100(bytes32 _key)\n             decrement_state_before(_key)\n             public\n    {\n      states[_key] = 100; //always increment by 100 in the function body\n    }\n\n    function test_set_state(bytes32 _key, uint8 _state)\n             public\n             returns (bool _success)\n    {\n      _success = set_state(_key, _state);\n    }\n\n    function mock_setup_set_state(bytes32 _key, uint8 _state)\n             public\n    {\n      states[_key] = _state;\n    }\n\n    function get_state(bytes32 _key)\n             public\n             constant\n             returns (uint256 _state_value)\n    {\n      _state_value = states[_key];\n    }\n}\n",
  "sourcePath": "/home/rohit/Develop/cacp-contracts/contracts/Mock/MockACState.sol",
  "compiler": {
    "name": "solc",
    "version": "0.4.23+commit.124ca40d.Emscripten.clang"
  },
  "schemaVersion": "2.0.0",
  "updatedAt": "2018-05-30T03:27:23.391Z"
}