{
  "contractName": "MockConstants",
  "abi": [
    {
      "constant": true,
      "inputs": [],
      "name": "test_constants",
      "outputs": [
        {
          "name": "",
          "type": "address"
        },
        {
          "name": "",
          "type": "uint256"
        },
        {
          "name": "",
          "type": "bytes32"
        }
      ],
      "payable": false,
      "stateMutability": "pure",
      "type": "function"
    }
  ],
  "bytecode": "0x608060405234801561001057600080fd5b5060f18061001f6000396000f300608060405260043610603f576000357c0100000000000000000000000000000000000000000000000000000000900463ffffffff168063bc17db50146044575b600080fd5b348015604f57600080fd5b50605660ae565b604051808473ffffffffffffffffffffffffffffffffffffffff1673ffffffffffffffffffffffffffffffffffffffff1681526020018381526020018260001916600019168152602001935050505060405180910390f35b6000806000806000806001029250925092509091925600a165627a7a72305820a196b096267061f2e0fb30fe3d19a7e8775e934d97cd18ca804309243b2ef26c0029",
  "source": "pragma solidity ^0.4.19;\nimport '../Constants.sol';\n/// @title Some useful constants\n/// @author DigixGlobal\n\ncontract MockConstants is Constants{\n  address constant NULL_ADDRESS = address(0x0);\n  uint256 constant ZERO = uint256(0);\n  bytes32 constant EMPTY = bytes32(0x0);\n\n  function test_constants() public pure returns (address, uint256, bytes32) {\n    return (NULL_ADDRESS, ZERO, EMPTY);\n  }\n\n}\n",
  "sourcePath": "/home/rohit/Develop/cacp-contracts/contracts/Mock/MockConstants.sol",
  "compiler": {
    "name": "solc",
    "version": "0.4.24+commit.e67f0147.Emscripten.clang"
  },
  "schemaVersion": "2.0.0",
  "updatedAt": "2018-08-17T06:51:00.391Z"
}