{
  "contractName": "MockACOwned",
  "abi": [
    {
      "constant": false,
      "inputs": [
        {
          "name": "_new_owner",
          "type": "address"
        }
      ],
      "name": "change_owner",
      "outputs": [
        {
          "name": "_success",
          "type": "bool"
        }
      ],
      "payable": false,
      "stateMutability": "nonpayable",
      "type": "function"
    },
    {
      "constant": true,
      "inputs": [],
      "name": "new_owner",
      "outputs": [
        {
          "name": "",
          "type": "address"
        }
      ],
      "payable": false,
      "stateMutability": "view",
      "type": "function"
    },
    {
      "constant": true,
      "inputs": [],
      "name": "owner",
      "outputs": [
        {
          "name": "",
          "type": "address"
        }
      ],
      "payable": false,
      "stateMutability": "view",
      "type": "function"
    },
    {
      "constant": false,
      "inputs": [],
      "name": "claim_ownership",
      "outputs": [
        {
          "name": "_success",
          "type": "bool"
        }
      ],
      "payable": false,
      "stateMutability": "nonpayable",
      "type": "function"
    },
    {
      "constant": false,
      "inputs": [
        {
          "name": "_owner",
          "type": "address"
        }
      ],
      "name": "set_owner",
      "outputs": [],
      "payable": false,
      "stateMutability": "nonpayable",
      "type": "function"
    },
    {
      "constant": true,
      "inputs": [],
      "name": "get_owner",
      "outputs": [
        {
          "name": "_owner",
          "type": "address"
        }
      ],
      "payable": false,
      "stateMutability": "view",
      "type": "function"
    },
    {
      "constant": true,
      "inputs": [],
      "name": "get_is_ac_owned_init",
      "outputs": [
        {
          "name": "_is_ac_owned_init",
          "type": "bool"
        }
      ],
      "payable": false,
      "stateMutability": "view",
      "type": "function"
    },
    {
      "constant": true,
      "inputs": [],
      "name": "test_if_owner",
      "outputs": [
        {
          "name": "_success",
          "type": "bool"
        }
      ],
      "payable": false,
      "stateMutability": "view",
      "type": "function"
    },
    {
      "constant": false,
      "inputs": [],
      "name": "test_init_ac_owned",
      "outputs": [
        {
          "name": "_success",
          "type": "bool"
        }
      ],
      "payable": false,
      "stateMutability": "nonpayable",
      "type": "function"
    }
  ],
  "bytecode": "0x608060405234801561001057600080fd5b5061061e806100206000396000f300608060405260043610610099576000357c0100000000000000000000000000000000000000000000000000000000900463ffffffff1680630ac298dc1461009e578063253c8bd4146100f55780634552b04f146101505780637cb97b2b146101a75780637ed91206146101ea5780638519e631146102195780638da5cb5b146102485780638ef067f41461029f578063f7a79a02146102ce575b600080fd5b3480156100aa57600080fd5b506100b36102fd565b604051808273ffffffffffffffffffffffffffffffffffffffff1673ffffffffffffffffffffffffffffffffffffffff16815260200191505060405180910390f35b34801561010157600080fd5b50610136600480360381019080803573ffffffffffffffffffffffffffffffffffffffff169060200190929190505050610326565b604051808215151515815260200191505060405180910390f35b34801561015c57600080fd5b50610165610385565b604051808273ffffffffffffffffffffffffffffffffffffffff1673ffffffffffffffffffffffffffffffffffffffff16815260200191505060405180910390f35b3480156101b357600080fd5b506101e8600480360381019080803573ffffffffffffffffffffffffffffffffffffffff1690602001909291905050506103ab565b005b3480156101f657600080fd5b506101ff6103ee565b604051808215151515815260200191505060405180910390f35b34801561022557600080fd5b5061022e6103fd565b604051808215151515815260200191505060405180910390f35b34801561025457600080fd5b5061025d610419565b604051808273ffffffffffffffffffffffffffffffffffffffff1673ffffffffffffffffffffffffffffffffffffffff16815260200191505060405180910390f35b3480156102ab57600080fd5b506102b461043e565b604051808215151515815260200191505060405180910390f35b3480156102da57600080fd5b506102e3610455565b604051808215151515815260200191505060405180910390f35b60008060009054906101000a900473ffffffffffffffffffffffffffffffffffffffff16905090565b600061033061051c565b151561033b57600080fd5b81600160006101000a81548173ffffffffffffffffffffffffffffffffffffffff021916908373ffffffffffffffffffffffffffffffffffffffff16021790555060019050919050565b600160009054906101000a900473ffffffffffffffffffffffffffffffffffffffff1681565b806000806101000a81548173ffffffffffffffffffffffffffffffffffffffff021916908373ffffffffffffffffffffffffffffffffffffffff16021790555050565b60006103f8610573565b905090565b600061040761051c565b151561041257600080fd5b6001905090565b6000809054906101000a900473ffffffffffffffffffffffffffffffffffffffff1681565b6000600160149054906101000a900460ff16905090565b6000600160009054906101000a900473ffffffffffffffffffffffffffffffffffffffff1673ffffffffffffffffffffffffffffffffffffffff163373ffffffffffffffffffffffffffffffffffffffff161415156104b357600080fd5b600160009054906101000a900473ffffffffffffffffffffffffffffffffffffffff166000806101000a81548173ffffffffffffffffffffffffffffffffffffffff021916908373ffffffffffffffffffffffffffffffffffffffff1602179055506001905090565b60008060009054906101000a900473ffffffffffffffffffffffffffffffffffffffff1673ffffffffffffffffffffffffffffffffffffffff163373ffffffffffffffffffffffffffffffffffffffff1614905090565b6000801515600160149054906101000a900460ff16151514156105eb57336000806101000a81548173ffffffffffffffffffffffffffffffffffffffff021916908373ffffffffffffffffffffffffffffffffffffffff16021790555060018060146101000a81548160ff0219169083151502179055505b60019050905600a165627a7a723058208cfe379edccfbc577bdaa2395d51f9ddd5038d4bb5f1a4ede0bb4282ef74f1980029",
  "source": "pragma solidity ^0.4.19;\n\nimport '../ACOwned.sol';\n\ncontract MockACOwned is ACOwned {\n\n    function set_owner (address _owner) public {\n      owner = _owner;\n    }\n\n    function get_owner () public constant returns (address _owner) {\n      _owner = owner;\n    }\n\n    function get_is_ac_owned_init () public constant returns (bool _is_ac_owned_init) {\n      _is_ac_owned_init = is_ac_owned_init;\n    }\n\n    function test_if_owner () if_owner() public constant returns (bool _success) {\n      return true;\n    }\n\n    function test_init_ac_owned () public returns (bool _success) {\n      _success = init_ac_owned();\n    }\n\n\n}\n",
  "sourcePath": "/home/rohit/Develop/cacp-contracts/contracts/Mock/MockACOwned.sol",
  "compiler": {
    "name": "solc",
    "version": "0.4.23+commit.124ca40d.Emscripten.clang"
  },
  "schemaVersion": "2.0.0",
  "updatedAt": "2018-05-30T03:27:23.391Z"
}