{
  "contractName": "MockResolverClient",
  "abi": [
    {
      "constant": true,
      "inputs": [],
      "name": "resolver",
      "outputs": [
        {
          "name": "",
          "type": "address"
        }
      ],
      "payable": false,
      "stateMutability": "view",
      "type": "function"
    },
    {
      "constant": false,
      "inputs": [
        {
          "name": "_new_owner",
          "type": "address"
        }
      ],
      "name": "change_owner",
      "outputs": [
        {
          "name": "_success",
          "type": "bool"
        }
      ],
      "payable": false,
      "stateMutability": "nonpayable",
      "type": "function"
    },
    {
      "constant": true,
      "inputs": [],
      "name": "key",
      "outputs": [
        {
          "name": "",
          "type": "bytes32"
        }
      ],
      "payable": false,
      "stateMutability": "view",
      "type": "function"
    },
    {
      "constant": true,
      "inputs": [],
      "name": "new_owner",
      "outputs": [
        {
          "name": "",
          "type": "address"
        }
      ],
      "payable": false,
      "stateMutability": "view",
      "type": "function"
    },
    {
      "constant": false,
      "inputs": [],
      "name": "destroy",
      "outputs": [
        {
          "name": "_success",
          "type": "bool"
        }
      ],
      "payable": false,
      "stateMutability": "nonpayable",
      "type": "function"
    },
    {
      "constant": true,
      "inputs": [],
      "name": "owner",
      "outputs": [
        {
          "name": "",
          "type": "address"
        }
      ],
      "payable": false,
      "stateMutability": "view",
      "type": "function"
    },
    {
      "constant": true,
      "inputs": [],
      "name": "CONTRACT_ADDRESS",
      "outputs": [
        {
          "name": "",
          "type": "address"
        }
      ],
      "payable": false,
      "stateMutability": "view",
      "type": "function"
    },
    {
      "constant": false,
      "inputs": [],
      "name": "claim_ownership",
      "outputs": [
        {
          "name": "_success",
          "type": "bool"
        }
      ],
      "payable": false,
      "stateMutability": "nonpayable",
      "type": "function"
    },
    {
      "constant": false,
      "inputs": [
        {
          "name": "_resolver",
          "type": "address"
        }
      ],
      "name": "mock_set_resolver",
      "outputs": [],
      "payable": false,
      "stateMutability": "nonpayable",
      "type": "function"
    },
    {
      "constant": true,
      "inputs": [
        {
          "name": "_contract",
          "type": "bytes32"
        }
      ],
      "name": "test_if_sender_is",
      "outputs": [
        {
          "name": "_success",
          "type": "bool"
        }
      ],
      "payable": false,
      "stateMutability": "view",
      "type": "function"
    },
    {
      "constant": true,
      "inputs": [],
      "name": "test_unless_resolver_is_locked",
      "outputs": [
        {
          "name": "_success",
          "type": "bool"
        }
      ],
      "payable": false,
      "stateMutability": "view",
      "type": "function"
    },
    {
      "constant": false,
      "inputs": [
        {
          "name": "_key",
          "type": "bytes32"
        },
        {
          "name": "_resolver",
          "type": "address"
        }
      ],
      "name": "test_init",
      "outputs": [
        {
          "name": "_success",
          "type": "bool"
        }
      ],
      "payable": false,
      "stateMutability": "nonpayable",
      "type": "function"
    },
    {
      "constant": true,
      "inputs": [
        {
          "name": "_key",
          "type": "bytes32"
        }
      ],
      "name": "get_contract",
      "outputs": [
        {
          "name": "_contract",
          "type": "address"
        }
      ],
      "payable": false,
      "stateMutability": "view",
      "type": "function"
    }
  ],
  "bytecode": "0x6060604052341561000f57600080fd5b610e958061001e6000396000f3006060604052600436106100c5576000357c0100000000000000000000000000000000000000000000000000000000900463ffffffff16806304f3bcec146100ca57806315cb09f21461011f578063253c8bd41461014c5780633943380c1461019d5780633f83acff146101ce5780634552b04f146102355780636974fa021461028a57806383197ef0146102c35780638da5cb5b146102f0578063980e14e114610345578063c320f35114610384578063db4ecbc1146103e2578063f7a79a0214610437575b600080fd5b34156100d557600080fd5b6100dd610464565b604051808273ffffffffffffffffffffffffffffffffffffffff1673ffffffffffffffffffffffffffffffffffffffff16815260200191505060405180910390f35b341561012a57600080fd5b61013261048a565b604051808215151515815260200191505060405180910390f35b341561015757600080fd5b610183600480803573ffffffffffffffffffffffffffffffffffffffff169060200190919050506104ac565b604051808215151515815260200191505060405180910390f35b34156101a857600080fd5b6101b061050b565b60405180826000191660001916815260200191505060405180910390f35b34156101d957600080fd5b6101f3600480803560001916906020019091905050610511565b604051808273ffffffffffffffffffffffffffffffffffffffff1673ffffffffffffffffffffffffffffffffffffffff16815260200191505060405180910390f35b341561024057600080fd5b6102486105d6565b604051808273ffffffffffffffffffffffffffffffffffffffff1673ffffffffffffffffffffffffffffffffffffffff16815260200191505060405180910390f35b341561029557600080fd5b6102c1600480803573ffffffffffffffffffffffffffffffffffffffff169060200190919050506105fc565b005b34156102ce57600080fd5b6102d6610697565b604051808215151515815260200191505060405180910390f35b34156102fb57600080fd5b61030361084e565b604051808273ffffffffffffffffffffffffffffffffffffffff1673ffffffffffffffffffffffffffffffffffffffff16815260200191505060405180910390f35b341561035057600080fd5b61036a600480803560001916906020019091905050610873565b604051808215151515815260200191505060405180910390f35b341561038f57600080fd5b6103c860048080356000191690602001909190803573ffffffffffffffffffffffffffffffffffffffff16906020019091905050610975565b604051808215151515815260200191505060405180910390f35b34156103ed57600080fd5b6103f5610989565b604051808273ffffffffffffffffffffffffffffffffffffffff1673ffffffffffffffffffffffffffffffffffffffff16815260200191505060405180910390f35b341561044257600080fd5b61044a6109af565b604051808215151515815260200191505060405180910390f35b600260009054906101000a900473ffffffffffffffffffffffffffffffffffffffff1681565b6000801515610497610a76565b15151415156104a557600080fd5b6001905090565b60006104b6610b26565b15156104c157600080fd5b81600160006101000a81548173ffffffffffffffffffffffffffffffffffffffff021916908373ffffffffffffffffffffffffffffffffffffffff16021790555060019050919050565b60035481565b6000600260009054906101000a900473ffffffffffffffffffffffffffffffffffffffff1673ffffffffffffffffffffffffffffffffffffffff16633f83acff836000604051602001526040518263ffffffff167c0100000000000000000000000000000000000000000000000000000000028152600401808260001916600019168152602001915050602060405180830381600087803b15156105b457600080fd5b6102c65a03f115156105c557600080fd5b505050604051805190509050919050565b600160009054906101000a900473ffffffffffffffffffffffffffffffffffffffff1681565b80600260006101000a81548173ffffffffffffffffffffffffffffffffffffffff021916908373ffffffffffffffffffffffffffffffffffffffff1602179055506106897f6d6f636b3a726573636c69656e74000000000000000000000000000000000000600260009054906101000a900473ffffffffffffffffffffffffffffffffffffffff16610b7d565b151561069457600080fd5b50565b6000806106a2610b26565b15156106ad57600080fd5b600260009054906101000a900473ffffffffffffffffffffffffffffffffffffffff1673ffffffffffffffffffffffffffffffffffffffff1663cf3090126000604051602001526040518163ffffffff167c0100000000000000000000000000000000000000000000000000000000028152600401602060405180830381600087803b151561073b57600080fd5b6102c65a03f1151561074c57600080fd5b50505060405180519050905060001515811515141561084a57600260009054906101000a900473ffffffffffffffffffffffffffffffffffffffff1673ffffffffffffffffffffffffffffffffffffffff1663c8b56bda6003546000604051602001526040518263ffffffff167c0100000000000000000000000000000000000000000000000000000000028152600401808260001916600019168152602001915050602060405180830381600087803b151561080857600080fd5b6102c65a03f1151561081957600080fd5b50505060405180519050915081151561083157600080fd5b3273ffffffffffffffffffffffffffffffffffffffff16ff5b5090565b6000809054906101000a900473ffffffffffffffffffffffffffffffffffffffff1681565b600081600260009054906101000a900473ffffffffffffffffffffffffffffffffffffffff1673ffffffffffffffffffffffffffffffffffffffff16633f83acff826000604051602001526040518263ffffffff167c0100000000000000000000000000000000000000000000000000000000028152600401808260001916600019168152602001915050602060405180830381600087803b151561091757600080fd5b6102c65a03f1151561092857600080fd5b5050506040518051905073ffffffffffffffffffffffffffffffffffffffff163373ffffffffffffffffffffffffffffffffffffffff1614151561096b57600080fd5b6001915050919050565b60006109818383610b7d565b905092915050565b600460009054906101000a900473ffffffffffffffffffffffffffffffffffffffff1681565b6000600160009054906101000a900473ffffffffffffffffffffffffffffffffffffffff1673ffffffffffffffffffffffffffffffffffffffff163373ffffffffffffffffffffffffffffffffffffffff16141515610a0d57600080fd5b600160009054906101000a900473ffffffffffffffffffffffffffffffffffffffff166000806101000a81548173ffffffffffffffffffffffffffffffffffffffff021916908373ffffffffffffffffffffffffffffffffffffffff1602179055506001905090565b6000600260009054906101000a900473ffffffffffffffffffffffffffffffffffffffff1673ffffffffffffffffffffffffffffffffffffffff1663cf3090126000604051602001526040518163ffffffff167c0100000000000000000000000000000000000000000000000000000000028152600401602060405180830381600087803b1515610b0657600080fd5b6102c65a03f11515610b1757600080fd5b50505060405180519050905090565b60008060009054906101000a900473ffffffffffffffffffffffffffffffffffffffff1673ffffffffffffffffffffffffffffffffffffffff163373ffffffffffffffffffffffffffffffffffffffff1614905090565b6000808273ffffffffffffffffffffffffffffffffffffffff1663cf3090126000604051602001526040518163ffffffff167c0100000000000000000000000000000000000000000000000000000000028152600401602060405180830381600087803b1515610bec57600080fd5b6102c65a03f11515610bfd57600080fd5b505050604051805190509050600015158115151415610dde5730600460006101000a81548173ffffffffffffffffffffffffffffffffffffffff021916908373ffffffffffffffffffffffffffffffffffffffff16021790555082600260006101000a81548173ffffffffffffffffffffffffffffffffffffffff021916908373ffffffffffffffffffffffffffffffffffffffff1602179055508360038160001916905550610cab610dea565b1515610cb657600080fd5b600260009054906101000a900473ffffffffffffffffffffffffffffffffffffffff1673ffffffffffffffffffffffffffffffffffffffff1663c0f6ef4a600354600460009054906101000a900473ffffffffffffffffffffffffffffffffffffffff166000604051602001526040518363ffffffff167c01000000000000000000000000000000000000000000000000000000000281526004018083600019166000191681526020018273ffffffffffffffffffffffffffffffffffffffff1673ffffffffffffffffffffffffffffffffffffffff16815260200192505050602060405180830381600087803b1515610daf57600080fd5b6102c65a03f11515610dc057600080fd5b505050604051805190501515610dd557600080fd5b60019150610de3565b600091505b5092915050565b6000801515600160149054906101000a900460ff1615151415610e6257336000806101000a81548173ffffffffffffffffffffffffffffffffffffffff021916908373ffffffffffffffffffffffffffffffffffffffff16021790555060018060146101000a81548160ff0219169083151502179055505b60019050905600a165627a7a72305820e85125c9068b4d5e22508dff4a3d605bb483bba936c2c9af07931071a4b686940029",
  "source": "pragma solidity ^0.4.19;\n\nimport \"../ResolverClient.sol\";\n\n/// @title Contract Resolver Interface\n/// @author DigixGlobal\n\ncontract MockResolverClient is ResolverClient {\n\n  function mock_set_resolver(address _resolver)\n           public\n  {\n    resolver = _resolver;\n    require(init('mock:resclient', resolver));\n  }\n\n  function test_if_sender_is (bytes32 _contract)\n           if_sender_is(_contract)\n           public\n           constant\n           returns (bool _success)\n  {\n    _success = true;\n  }\n\n  function test_unless_resolver_is_locked ()\n           unless_resolver_is_locked ()\n           public\n           constant\n           returns (bool _success)\n  {\n    _success = true;\n  }\n\n  function test_init(bytes32 _key, address _resolver)\n           public\n           returns (bool _success)\n  {\n    _success = init(_key, _resolver);\n  }\n\n  /// @dev Get the address of a contract\n  /// @param _key the resolver key to look up\n  /// @return _contract the address of the contract\n  function get_contract(bytes32 _key)\n           public\n           constant\n           returns (address _contract)\n  {\n    _contract = ContractResolver(resolver).get_contract(_key);\n  }\n}\n",
  "sourcePath": "/home/rohit/Develop/cacp-contracts/contracts/Mock/MockResolverClient.sol",
  "compiler": {
    "name": "solc",
    "version": "0.4.19+commit.c4cbbb05.Emscripten.clang"
  },
  "schemaVersion": "1.0.1",
  "updatedAt": "2018-03-16T03:08:38.887Z"
}