{
  "contractName": "MockACUserMutex",
  "abi": [
    {
      "constant": false,
      "inputs": [
        {
          "name": "_user",
          "type": "address"
        },
        {
          "name": "_mutex_id",
          "type": "bytes32"
        },
        {
          "name": "_value",
          "type": "bool"
        }
      ],
      "name": "mock_setup_set_user_mutex",
      "outputs": [],
      "payable": false,
      "stateMutability": "nonpayable",
      "type": "function"
    },
    {
      "constant": true,
      "inputs": [
        {
          "name": "_user",
          "type": "address"
        },
        {
          "name": "_mutex_id",
          "type": "bytes32"
        }
      ],
      "name": "mock_get_user_mutex",
      "outputs": [
        {
          "name": "_value",
          "type": "bool"
        }
      ],
      "payable": false,
      "stateMutability": "view",
      "type": "function"
    },
    {
      "constant": true,
      "inputs": [
        {
          "name": "_mutex_id",
          "type": "bytes32"
        }
      ],
      "name": "test_if_user_mutex_locked",
      "outputs": [
        {
          "name": "_success",
          "type": "bool"
        }
      ],
      "payable": false,
      "stateMutability": "view",
      "type": "function"
    },
    {
      "constant": true,
      "inputs": [
        {
          "name": "_mutex_id",
          "type": "bytes32"
        }
      ],
      "name": "test_unless_user_mutex_locked",
      "outputs": [
        {
          "name": "_success",
          "type": "bool"
        }
      ],
      "payable": false,
      "stateMutability": "view",
      "type": "function"
    },
    {
      "constant": false,
      "inputs": [
        {
          "name": "_mutex_id",
          "type": "bytes32"
        }
      ],
      "name": "test_lock_before_action",
      "outputs": [
        {
          "name": "_success",
          "type": "bool"
        }
      ],
      "payable": false,
      "stateMutability": "nonpayable",
      "type": "function"
    },
    {
      "constant": false,
      "inputs": [
        {
          "name": "_mutex_id",
          "type": "bytes32"
        }
      ],
      "name": "test_unlock_after_action",
      "outputs": [
        {
          "name": "_success",
          "type": "bool"
        }
      ],
      "payable": false,
      "stateMutability": "nonpayable",
      "type": "function"
    },
    {
      "constant": false,
      "inputs": [
        {
          "name": "_mutex_id",
          "type": "bytes32"
        }
      ],
      "name": "test_lock_user_mutex",
      "outputs": [
        {
          "name": "_success",
          "type": "bool"
        }
      ],
      "payable": false,
      "stateMutability": "nonpayable",
      "type": "function"
    },
    {
      "constant": false,
      "inputs": [
        {
          "name": "_mutex_id",
          "type": "bytes32"
        }
      ],
      "name": "test_unlock_user_mutex",
      "outputs": [
        {
          "name": "_success",
          "type": "bool"
        }
      ],
      "payable": false,
      "stateMutability": "nonpayable",
      "type": "function"
    }
  ],
  "bytecode": "0x608060405234801561001057600080fd5b50610774806100206000396000f30060806040526004361061008e576000357c0100000000000000000000000000000000000000000000000000000000900463ffffffff168063150a5cd014610093578063167ee22c146100dc57806389cdb1ab146101255780639db7000c1461018e578063a521f29d146101d7578063d0dd72f914610220578063daccaf0114610269578063f7d3d502146102b2575b600080fd5b34801561009f57600080fd5b506100c2600480360381019080803560001916906020019092919050505061030f565b604051808215151515815260200191505060405180910390f35b3480156100e857600080fd5b5061010b6004803603810190808035600019169060200190929190505050610321565b604051808215151515815260200191505060405180910390f35b34801561013157600080fd5b50610174600480360381019080803573ffffffffffffffffffffffffffffffffffffffff16906020019092919080356000191690602001909291905050506103a5565b604051808215151515815260200191505060405180910390f35b34801561019a57600080fd5b506101bd6004803603810190808035600019169060200190929190505050610414565b604051808215151515815260200191505060405180910390f35b3480156101e357600080fd5b506102066004803603810190808035600019169060200190929190505050610435565b604051808215151515815260200191505060405180910390f35b34801561022c57600080fd5b5061024f60048036038101908080356000191690602001909291905050506104b9565b604051808215151515815260200191505060405180910390f35b34801561027557600080fd5b5061029860048036038101908080356000191690602001909291905050506104cb565b604051808215151515815260200191505060405180910390f35b3480156102be57600080fd5b5061030d600480360381019080803573ffffffffffffffffffffffffffffffffffffffff16906020019092919080356000191690602001909291908035151590602001909291905050506104ec565b005b600061031a82610560565b9050919050565b600081600015156000803373ffffffffffffffffffffffffffffffffffffffff1673ffffffffffffffffffffffffffffffffffffffff1681526020019081526020016000206000836000191660001916815260200190815260200160002060009054906101000a900460ff16151514151561039b57600080fd5b6001915050919050565b60008060008473ffffffffffffffffffffffffffffffffffffffff1673ffffffffffffffffffffffffffffffffffffffff1681526020019081526020016000206000836000191660001916815260200190815260200160002060009054906101000a900460ff16905092915050565b6000816001915061042481610654565b151561042f57600080fd5b50919050565b600081600115156000803373ffffffffffffffffffffffffffffffffffffffff1673ffffffffffffffffffffffffffffffffffffffff1681526020019081526020016000206000836000191660001916815260200190815260200160002060009054906101000a900460ff1615151415156104af57600080fd5b6001915050919050565b60006104c482610654565b9050919050565b6000816104d781610560565b15156104e257600080fd5b6001915050919050565b806000808573ffffffffffffffffffffffffffffffffffffffff1673ffffffffffffffffffffffffffffffffffffffff1681526020019081526020016000206000846000191660001916815260200190815260200160002060006101000a81548160ff021916908315150217905550505050565b600081600015156000803373ffffffffffffffffffffffffffffffffffffffff1673ffffffffffffffffffffffffffffffffffffffff1681526020019081526020016000206000836000191660001916815260200190815260200160002060009054906101000a900460ff1615151415156105da57600080fd5b60016000803373ffffffffffffffffffffffffffffffffffffffff1673ffffffffffffffffffffffffffffffffffffffff1681526020019081526020016000206000856000191660001916815260200190815260200160002060006101000a81548160ff0219169083151502179055506001915050919050565b600081600115156000803373ffffffffffffffffffffffffffffffffffffffff1673ffffffffffffffffffffffffffffffffffffffff1681526020019081526020016000206000836000191660001916815260200190815260200160002060009054906101000a900460ff1615151415156106ce57600080fd5b60008060003373ffffffffffffffffffffffffffffffffffffffff1673ffffffffffffffffffffffffffffffffffffffff1681526020019081526020016000206000856000191660001916815260200190815260200160002060006101000a81548160ff02191690831515021790555060019150509190505600a165627a7a723058200005d4ac4912eee46679fa4129e300266d9a0f8f7adb7e6de0ebfce6a34a4f520029",
  "source": "pragma solidity ^0.4.19;\n\n/// @title Per user locking based access control\n/// @author DigixGlobal\nimport '../ACUserMutex.sol';\n\ncontract MockACUserMutex is ACUserMutex {\n\n  function mock_setup_set_user_mutex (address _user, bytes32 _mutex_id, bool _value)\n           public\n  {\n    user_mutexes[_user][_mutex_id] = _value;\n  }\n\n  function mock_get_user_mutex (address _user, bytes32 _mutex_id)\n           public\n           constant\n           returns (bool _value)\n  {\n    _value = user_mutexes[_user][_mutex_id];\n  }\n\n  function test_if_user_mutex_locked (bytes32 _mutex_id)\n           if_user_mutex_locked (_mutex_id)\n           public\n           constant\n           returns (bool _success)\n  {\n    _success = true;\n  }\n\n  function test_unless_user_mutex_locked (bytes32 _mutex_id)\n           unless_user_mutex_locked (_mutex_id)\n           public\n           constant\n           returns (bool _success)\n  {\n    _success = true;\n  }\n\n  function test_lock_before_action (bytes32 _mutex_id)\n           lock_before_action (_mutex_id)\n           public\n           returns (bool _success)\n  {\n    _success = true;\n  }\n\n  function test_unlock_after_action (bytes32 _mutex_id)\n           unlock_after_action (_mutex_id)\n           public\n           returns (bool _success)\n  {\n    _success = true;\n  }\n\n  function test_lock_user_mutex (bytes32 _mutex_id)\n           public\n           returns (bool _success)\n  {\n    _success = lock_user_mutex(_mutex_id);\n  }\n\n  function test_unlock_user_mutex (bytes32 _mutex_id)\n           public\n           returns (bool _success)\n  {\n    _success = unlock_user_mutex(_mutex_id);\n  }\n\n}\n",
  "sourcePath": "/home/vu/digix/cacp-contracts/contracts/Mock/MockACUserMutex.sol",
  "compiler": {
    "name": "solc",
    "version": "0.4.24+commit.e67f0147.Emscripten.clang"
  },
  "schemaVersion": "2.0.1",
  "updatedAt": "2018-08-01T06:55:27.720Z"
}