{
  "contractName": "MockACUserLevels",
  "abi": [
    {
      "constant": false,
      "inputs": [
        {
          "name": "_oldadmin",
          "type": "address"
        }
      ],
      "name": "unregister_admin",
      "outputs": [
        {
          "name": "_success",
          "type": "bool"
        }
      ],
      "payable": false,
      "stateMutability": "nonpayable",
      "type": "function"
    },
    {
      "constant": false,
      "inputs": [
        {
          "name": "_new_owner",
          "type": "address"
        }
      ],
      "name": "change_owner",
      "outputs": [
        {
          "name": "_success",
          "type": "bool"
        }
      ],
      "payable": false,
      "stateMutability": "nonpayable",
      "type": "function"
    },
    {
      "constant": true,
      "inputs": [],
      "name": "new_owner",
      "outputs": [
        {
          "name": "",
          "type": "address"
        }
      ],
      "payable": false,
      "stateMutability": "view",
      "type": "function"
    },
    {
      "constant": false,
      "inputs": [
        {
          "name": "_group",
          "type": "bytes32"
        },
        {
          "name": "_user",
          "type": "address"
        }
      ],
      "name": "add_user_to_group",
      "outputs": [
        {
          "name": "_success",
          "type": "bool"
        }
      ],
      "payable": false,
      "stateMutability": "nonpayable",
      "type": "function"
    },
    {
      "constant": false,
      "inputs": [
        {
          "name": "_newadmin",
          "type": "address"
        }
      ],
      "name": "register_admin",
      "outputs": [
        {
          "name": "_success",
          "type": "bool"
        }
      ],
      "payable": false,
      "stateMutability": "nonpayable",
      "type": "function"
    },
    {
      "constant": true,
      "inputs": [],
      "name": "owner",
      "outputs": [
        {
          "name": "",
          "type": "address"
        }
      ],
      "payable": false,
      "stateMutability": "view",
      "type": "function"
    },
    {
      "constant": false,
      "inputs": [
        {
          "name": "_group",
          "type": "bytes32"
        },
        {
          "name": "_user",
          "type": "address"
        }
      ],
      "name": "delete_user_from_group",
      "outputs": [
        {
          "name": "_success",
          "type": "bool"
        }
      ],
      "payable": false,
      "stateMutability": "nonpayable",
      "type": "function"
    },
    {
      "constant": true,
      "inputs": [
        {
          "name": "_group",
          "type": "bytes32"
        },
        {
          "name": "_user",
          "type": "address"
        }
      ],
      "name": "is_group_member_of",
      "outputs": [
        {
          "name": "_ismember",
          "type": "bool"
        }
      ],
      "payable": false,
      "stateMutability": "view",
      "type": "function"
    },
    {
      "constant": false,
      "inputs": [],
      "name": "claim_ownership",
      "outputs": [
        {
          "name": "_success",
          "type": "bool"
        }
      ],
      "payable": false,
      "stateMutability": "nonpayable",
      "type": "function"
    },
    {
      "constant": true,
      "inputs": [],
      "name": "get_is_ac_user_levels_init",
      "outputs": [
        {
          "name": "_is_ac_user_levels_init",
          "type": "bool"
        }
      ],
      "payable": false,
      "stateMutability": "view",
      "type": "function"
    },
    {
      "constant": false,
      "inputs": [
        {
          "name": "_user",
          "type": "address"
        },
        {
          "name": "_category",
          "type": "bytes32"
        },
        {
          "name": "_level",
          "type": "uint8"
        }
      ],
      "name": "mock_set_user_level",
      "outputs": [],
      "payable": false,
      "stateMutability": "nonpayable",
      "type": "function"
    },
    {
      "constant": false,
      "inputs": [
        {
          "name": "_is_ac_user_levels_init",
          "type": "bool"
        }
      ],
      "name": "mock_set_is_ac_user_levels_init",
      "outputs": [],
      "payable": false,
      "stateMutability": "nonpayable",
      "type": "function"
    },
    {
      "constant": false,
      "inputs": [],
      "name": "test_init_ac_user_levels",
      "outputs": [
        {
          "name": "_success",
          "type": "bool"
        }
      ],
      "payable": false,
      "stateMutability": "nonpayable",
      "type": "function"
    },
    {
      "constant": true,
      "inputs": [
        {
          "name": "_user",
          "type": "address"
        },
        {
          "name": "_category",
          "type": "bytes32"
        },
        {
          "name": "_required_level",
          "type": "uint8"
        }
      ],
      "name": "test_if_above_level",
      "outputs": [
        {
          "name": "_success",
          "type": "bool"
        }
      ],
      "payable": false,
      "stateMutability": "view",
      "type": "function"
    },
    {
      "constant": true,
      "inputs": [
        {
          "name": "_user",
          "type": "address"
        },
        {
          "name": "_category",
          "type": "bytes32"
        },
        {
          "name": "_required_level",
          "type": "uint8"
        }
      ],
      "name": "test_if_below_level",
      "outputs": [
        {
          "name": "_success",
          "type": "bool"
        }
      ],
      "payable": false,
      "stateMutability": "view",
      "type": "function"
    },
    {
      "constant": true,
      "inputs": [
        {
          "name": "_user",
          "type": "address"
        },
        {
          "name": "_category",
          "type": "bytes32"
        },
        {
          "name": "_required_level",
          "type": "uint8"
        }
      ],
      "name": "test_if_at_level",
      "outputs": [
        {
          "name": "_success",
          "type": "bool"
        }
      ],
      "payable": false,
      "stateMutability": "view",
      "type": "function"
    },
    {
      "constant": true,
      "inputs": [],
      "name": "test_unless_ac_user_levels_initialized",
      "outputs": [
        {
          "name": "_success",
          "type": "bool"
        }
      ],
      "payable": false,
      "stateMutability": "view",
      "type": "function"
    }
  ],
  "bytecode": "0x60806040526000600160156101000a81548160ff02191690831515021790555034801561002b57600080fd5b506112e98061003b6000396000f3006080604052600436106100f1576000357c0100000000000000000000000000000000000000000000000000000000900463ffffffff1680630207e20e146100f6578063253c8bd41461015157806330713194146101ac5780633ebb9fd5146102225780634552b04f1461028057806348e05b7c146102d7578063682d038a146103065780636d7462941461036f57806379f0a8951461039e578063862578be146103f95780638da5cb5b1461046f57806393a72f4e146104c6578063986e382b146104f5578063b692ee231461056b578063deef2b9c146105d4578063e6fc01a914610603578063f7a79a021461066c575b600080fd5b34801561010257600080fd5b50610137600480360381019080803573ffffffffffffffffffffffffffffffffffffffff16906020019092919050505061069b565b604051808215151515815260200191505060405180910390f35b34801561015d57600080fd5b50610192600480360381019080803573ffffffffffffffffffffffffffffffffffffffff169060200190929190505050610749565b604051808215151515815260200191505060405180910390f35b3480156101b857600080fd5b50610208600480360381019080803573ffffffffffffffffffffffffffffffffffffffff1690602001909291908035600019169060200190929190803560ff1690602001909291905050506107a8565b604051808215151515815260200191505060405180910390f35b34801561022e57600080fd5b5061027e600480360381019080803573ffffffffffffffffffffffffffffffffffffffff1690602001909291908035600019169060200190929190803560ff169060200190929190505050610834565b005b34801561028c57600080fd5b506102956108aa565b604051808273ffffffffffffffffffffffffffffffffffffffff1673ffffffffffffffffffffffffffffffffffffffff16815260200191505060405180910390f35b3480156102e357600080fd5b506102ec6108d0565b604051808215151515815260200191505060405180910390f35b34801561031257600080fd5b506103556004803603810190808035600019169060200190929190803573ffffffffffffffffffffffffffffffffffffffff1690602001909291905050506108fa565b604051808215151515815260200191505060405180910390f35b34801561037b57600080fd5b50610384610a43565b604051808215151515815260200191505060405180910390f35b3480156103aa57600080fd5b506103df600480360381019080803573ffffffffffffffffffffffffffffffffffffffff169060200190929190505050610a52565b604051808215151515815260200191505060405180910390f35b34801561040557600080fd5b50610455600480360381019080803573ffffffffffffffffffffffffffffffffffffffff1690602001909291908035600019169060200190929190803560ff169060200190929190505050610b00565b604051808215151515815260200191505060405180910390f35b34801561047b57600080fd5b50610484610b8c565b604051808273ffffffffffffffffffffffffffffffffffffffff1673ffffffffffffffffffffffffffffffffffffffff16815260200191505060405180910390f35b3480156104d257600080fd5b506104db610bb1565b604051808215151515815260200191505060405180910390f35b34801561050157600080fd5b50610551600480360381019080803573ffffffffffffffffffffffffffffffffffffffff1690602001909291908035600019169060200190929190803560ff169060200190929190505050610bc8565b604051808215151515815260200191505060405180910390f35b34801561057757600080fd5b506105ba6004803603810190808035600019169060200190929190803573ffffffffffffffffffffffffffffffffffffffff169060200190929190505050610c54565b604051808215151515815260200191505060405180910390f35b3480156105e057600080fd5b50610601600480360381019080803515159060200190929190505050610d9d565b005b34801561060f57600080fd5b506106526004803603810190808035600019169060200190929190803573ffffffffffffffffffffffffffffffffffffffff169060200190929190505050610dba565b604051808215151515815260200191505060405180910390f35b34801561067857600080fd5b50610681610e2d565b604051808215151515815260200191505060405180910390f35b60006106a5610f9e565b15156106b057600080fd5b6000600260007f61646d696e73000000000000000000000000000000000000000000000000000060001916815260200190815260200160002060000160008473ffffffffffffffffffffffffffffffffffffffff1673ffffffffffffffffffffffffffffffffffffffff16815260200190815260200160002060006101000a81548160ff02191690831515021790555060019050919050565b6000610753610f9e565b151561075e57600080fd5b81600160006101000a81548173ffffffffffffffffffffffffffffffffffffffff021916908373ffffffffffffffffffffffffffffffffffffffff16021790555060019050919050565b60008383838060ff1660046000846000191660001916815260200190815260200160002060008573ffffffffffffffffffffffffffffffffffffffff1673ffffffffffffffffffffffffffffffffffffffff16815260200190815260200160002060009054906101000a900460ff1660ff1610151561082657600080fd5b600193505050509392505050565b8060046000846000191660001916815260200190815260200160002060008573ffffffffffffffffffffffffffffffffffffffff1673ffffffffffffffffffffffffffffffffffffffff16815260200190815260200160002060006101000a81548160ff021916908360ff160217905550505050565b600160009054906101000a900473ffffffffffffffffffffffffffffffffffffffff1681565b6000801515600360009054906101000a900460ff1615151415156108f357600080fd5b6001905090565b60007f61646d696e73000000000000000000000000000000000000000000000000000060026000826000191660001916815260200190815260200160002060000160003373ffffffffffffffffffffffffffffffffffffffff1673ffffffffffffffffffffffffffffffffffffffff16815260200190815260200160002060009054906101000a900460ff16151561099157600080fd5b7f61646d696e7300000000000000000000000000000000000000000000000000008460001916141515156109c457600080fd5b600160026000866000191660001916815260200190815260200160002060000160008573ffffffffffffffffffffffffffffffffffffffff1673ffffffffffffffffffffffffffffffffffffffff16815260200190815260200160002060006101000a81548160ff021916908315150217905550600191505092915050565b6000610a4d610ff5565b905090565b6000610a5c610f9e565b1515610a6757600080fd5b6001600260007f61646d696e73000000000000000000000000000000000000000000000000000060001916815260200190815260200160002060000160008473ffffffffffffffffffffffffffffffffffffffff1673ffffffffffffffffffffffffffffffffffffffff16815260200190815260200160002060006101000a81548160ff02191690831515021790555060019050919050565b60008383838060ff1660046000846000191660001916815260200190815260200160002060008573ffffffffffffffffffffffffffffffffffffffff1673ffffffffffffffffffffffffffffffffffffffff16815260200190815260200160002060009054906101000a900460ff1660ff16141515610b7e57600080fd5b600193505050509392505050565b6000809054906101000a900473ffffffffffffffffffffffffffffffffffffffff1681565b6000600360009054906101000a900460ff16905090565b60008383838060ff1660046000846000191660001916815260200190815260200160002060008573ffffffffffffffffffffffffffffffffffffffff1673ffffffffffffffffffffffffffffffffffffffff16815260200190815260200160002060009054906101000a900460ff1660ff16111515610c4657600080fd5b600193505050509392505050565b60007f61646d696e73000000000000000000000000000000000000000000000000000060026000826000191660001916815260200190815260200160002060000160003373ffffffffffffffffffffffffffffffffffffffff1673ffffffffffffffffffffffffffffffffffffffff16815260200190815260200160002060009054906101000a900460ff161515610ceb57600080fd5b7f61646d696e730000000000000000000000000000000000000000000000000000846000191614151515610d1e57600080fd5b600060026000866000191660001916815260200190815260200160002060000160008573ffffffffffffffffffffffffffffffffffffffff1673ffffffffffffffffffffffffffffffffffffffff16815260200190815260200160002060006101000a81548160ff021916908315150217905550600191505092915050565b80600360006101000a81548160ff02191690831515021790555050565b600060026000846000191660001916815260200190815260200160002060000160008373ffffffffffffffffffffffffffffffffffffffff1673ffffffffffffffffffffffffffffffffffffffff16815260200190815260200160002060009054906101000a900460ff16905092915050565b600080600260007f61646d696e73000000000000000000000000000000000000000000000000000060001916815260200190815260200160002060000160008060009054906101000a900473ffffffffffffffffffffffffffffffffffffffff1673ffffffffffffffffffffffffffffffffffffffff1673ffffffffffffffffffffffffffffffffffffffff16815260200190815260200160002060006101000a81548160ff0219169083151502179055506001600260007f61646d696e7300000000000000000000000000000000000000000000000000006000191681526020019081526020016000206000016000600160009054906101000a900473ffffffffffffffffffffffffffffffffffffffff1673ffffffffffffffffffffffffffffffffffffffff1673ffffffffffffffffffffffffffffffffffffffff16815260200190815260200160002060006101000a81548160ff021916908315150217905550610f99611082565b905090565b60008060009054906101000a900473ffffffffffffffffffffffffffffffffffffffff1673ffffffffffffffffffffffffffffffffffffffff163373ffffffffffffffffffffffffffffffffffffffff1614905090565b6000801515600360009054906101000a900460ff16151514151561101857600080fd5b6001600360006101000a81548160ff02191690831515021790555061103b611149565b151561104657600080fd5b6110707f756c61646d696e73000000000000000000000000000000000000000000000000336108fa565b151561107b57600080fd5b6001905090565b6000600160009054906101000a900473ffffffffffffffffffffffffffffffffffffffff1673ffffffffffffffffffffffffffffffffffffffff163373ffffffffffffffffffffffffffffffffffffffff161415156110e057600080fd5b600160009054906101000a900473ffffffffffffffffffffffffffffffffffffffff166000806101000a81548173ffffffffffffffffffffffffffffffffffffffff021916908373ffffffffffffffffffffffffffffffffffffffff1602179055506001905090565b6000801515600160149054906101000a900460ff16151514156111705761116e61123e565b505b60001515600160159054906101000a900460ff1615151415611237576001600260007f61646d696e73000000000000000000000000000000000000000000000000000060001916815260200190815260200160002060000160003373ffffffffffffffffffffffffffffffffffffffff1673ffffffffffffffffffffffffffffffffffffffff16815260200190815260200160002060006101000a81548160ff02191690831515021790555060018060156101000a81548160ff0219169083151502179055505b6001905090565b6000801515600160149054906101000a900460ff16151514156112b657336000806101000a81548173ffffffffffffffffffffffffffffffffffffffff021916908373ffffffffffffffffffffffffffffffffffffffff16021790555060018060146101000a81548160ff0219169083151502179055505b60019050905600a165627a7a72305820f92ad805e3271ab336824f9271001c1c28ebdd2f211b0797ca732a757d3099ac0029",
  "source": "pragma solidity ^0.4.19;\n\nimport \"../ACUserLevels.sol\";\n\n/// @title User levels based access control\n/// @author DigixGlobal\n\ncontract MockACUserLevels is ACUserLevels {\n\n  function get_is_ac_user_levels_init ()\n           public\n           constant\n           returns (bool _is_ac_user_levels_init)\n  {\n    _is_ac_user_levels_init = is_ac_user_levels_init;\n  }\n\n  function mock_set_user_level (address _user, bytes32 _category, uint8 _level) public {\n    user_levels[_category][_user] = _level;\n  }\n\n  function mock_set_is_ac_user_levels_init (bool _is_ac_user_levels_init) public {\n    is_ac_user_levels_init = _is_ac_user_levels_init;\n  }\n\n  function test_init_ac_user_levels()\n           public\n           returns (bool _success)\n  {\n    _success = init_ac_user_levels();\n  }\n\n  function test_if_above_level(address _user, bytes32 _category, uint8 _required_level)\n           if_above_level(_user, _category, _required_level)\n           public\n           constant\n           returns (bool _success)\n  {\n    _success = true;\n  }\n\n  function test_if_below_level(address _user, bytes32 _category, uint8 _required_level)\n           if_below_level(_user, _category, _required_level)\n           public\n           constant\n           returns (bool _success)\n  {\n    _success = true;\n  }\n\n\n  function test_if_at_level(address _user, bytes32 _category, uint8 _required_level)\n           if_at_level(_user, _category, _required_level)\n           public\n           constant\n           returns (bool _success)\n  {\n    _success = true;\n  }\n\n  function test_unless_ac_user_levels_initialized ()\n           unless_ac_user_levels_initialized ()\n           public\n           constant\n           returns (bool _success)\n  {\n    _success = true;\n  }\n}\n",
  "sourcePath": "/home/vu/digix/cacp-contracts/contracts/Mock/MockACUserLevels.sol",
  "compiler": {
    "name": "solc",
    "version": "0.4.24+commit.e67f0147.Emscripten.clang"
  },
  "schemaVersion": "2.0.1",
  "updatedAt": "2018-08-01T06:55:27.723Z"
}