{
  "contractName": "MockACOwned",
  "abi": [
    {
      "constant": false,
      "inputs": [
        {
          "name": "_new_owner",
          "type": "address"
        }
      ],
      "name": "change_owner",
      "outputs": [
        {
          "name": "_success",
          "type": "bool"
        }
      ],
      "payable": false,
      "stateMutability": "nonpayable",
      "type": "function"
    },
    {
      "constant": true,
      "inputs": [],
      "name": "new_owner",
      "outputs": [
        {
          "name": "",
          "type": "address"
        }
      ],
      "payable": false,
      "stateMutability": "view",
      "type": "function"
    },
    {
      "constant": true,
      "inputs": [],
      "name": "owner",
      "outputs": [
        {
          "name": "",
          "type": "address"
        }
      ],
      "payable": false,
      "stateMutability": "view",
      "type": "function"
    },
    {
      "constant": false,
      "inputs": [],
      "name": "claim_ownership",
      "outputs": [
        {
          "name": "_success",
          "type": "bool"
        }
      ],
      "payable": false,
      "stateMutability": "nonpayable",
      "type": "function"
    },
    {
      "constant": false,
      "inputs": [
        {
          "name": "_owner",
          "type": "address"
        }
      ],
      "name": "set_owner",
      "outputs": [],
      "payable": false,
      "stateMutability": "nonpayable",
      "type": "function"
    },
    {
      "constant": true,
      "inputs": [],
      "name": "get_owner",
      "outputs": [
        {
          "name": "_owner",
          "type": "address"
        }
      ],
      "payable": false,
      "stateMutability": "view",
      "type": "function"
    },
    {
      "constant": true,
      "inputs": [],
      "name": "get_is_ac_owned_init",
      "outputs": [
        {
          "name": "_is_ac_owned_init",
          "type": "bool"
        }
      ],
      "payable": false,
      "stateMutability": "view",
      "type": "function"
    },
    {
      "constant": true,
      "inputs": [],
      "name": "test_if_owner",
      "outputs": [
        {
          "name": "_success",
          "type": "bool"
        }
      ],
      "payable": false,
      "stateMutability": "view",
      "type": "function"
    },
    {
      "constant": false,
      "inputs": [],
      "name": "test_init_ac_owned",
      "outputs": [
        {
          "name": "_success",
          "type": "bool"
        }
      ],
      "payable": false,
      "stateMutability": "nonpayable",
      "type": "function"
    }
  ],
  "bytecode": "0x6060604052341561000f57600080fd5b6105fc8061001e6000396000f300606060405260043610610099576000357c0100000000000000000000000000000000000000000000000000000000900463ffffffff1680630ac298dc1461009e578063253c8bd4146100f35780634552b04f146101445780637cb97b2b146101995780637ed91206146101d25780638519e631146101ff5780638da5cb5b1461022c5780638ef067f414610281578063f7a79a02146102ae575b600080fd5b34156100a957600080fd5b6100b16102db565b604051808273ffffffffffffffffffffffffffffffffffffffff1673ffffffffffffffffffffffffffffffffffffffff16815260200191505060405180910390f35b34156100fe57600080fd5b61012a600480803573ffffffffffffffffffffffffffffffffffffffff16906020019091905050610304565b604051808215151515815260200191505060405180910390f35b341561014f57600080fd5b610157610363565b604051808273ffffffffffffffffffffffffffffffffffffffff1673ffffffffffffffffffffffffffffffffffffffff16815260200191505060405180910390f35b34156101a457600080fd5b6101d0600480803573ffffffffffffffffffffffffffffffffffffffff16906020019091905050610389565b005b34156101dd57600080fd5b6101e56103cc565b604051808215151515815260200191505060405180910390f35b341561020a57600080fd5b6102126103db565b604051808215151515815260200191505060405180910390f35b341561023757600080fd5b61023f6103f7565b604051808273ffffffffffffffffffffffffffffffffffffffff1673ffffffffffffffffffffffffffffffffffffffff16815260200191505060405180910390f35b341561028c57600080fd5b61029461041c565b604051808215151515815260200191505060405180910390f35b34156102b957600080fd5b6102c1610433565b604051808215151515815260200191505060405180910390f35b60008060009054906101000a900473ffffffffffffffffffffffffffffffffffffffff16905090565b600061030e6104fa565b151561031957600080fd5b81600160006101000a81548173ffffffffffffffffffffffffffffffffffffffff021916908373ffffffffffffffffffffffffffffffffffffffff16021790555060019050919050565b600160009054906101000a900473ffffffffffffffffffffffffffffffffffffffff1681565b806000806101000a81548173ffffffffffffffffffffffffffffffffffffffff021916908373ffffffffffffffffffffffffffffffffffffffff16021790555050565b60006103d6610551565b905090565b60006103e56104fa565b15156103f057600080fd5b6001905090565b6000809054906101000a900473ffffffffffffffffffffffffffffffffffffffff1681565b6000600160149054906101000a900460ff16905090565b6000600160009054906101000a900473ffffffffffffffffffffffffffffffffffffffff1673ffffffffffffffffffffffffffffffffffffffff163373ffffffffffffffffffffffffffffffffffffffff1614151561049157600080fd5b600160009054906101000a900473ffffffffffffffffffffffffffffffffffffffff166000806101000a81548173ffffffffffffffffffffffffffffffffffffffff021916908373ffffffffffffffffffffffffffffffffffffffff1602179055506001905090565b60008060009054906101000a900473ffffffffffffffffffffffffffffffffffffffff1673ffffffffffffffffffffffffffffffffffffffff163373ffffffffffffffffffffffffffffffffffffffff1614905090565b6000801515600160149054906101000a900460ff16151514156105c957336000806101000a81548173ffffffffffffffffffffffffffffffffffffffff021916908373ffffffffffffffffffffffffffffffffffffffff16021790555060018060146101000a81548160ff0219169083151502179055505b60019050905600a165627a7a723058204479bb183f48572491e9f6bf26f5e3492e6e93c01cb6bb752caa0b83ef6d25a40029",
  "source": "pragma solidity ^0.4.19;\n\nimport '../ACOwned.sol';\n\ncontract MockACOwned is ACOwned {\n\n    function set_owner (address _owner) public {\n      owner = _owner;\n    }\n\n    function get_owner () public constant returns (address _owner) {\n      _owner = owner;\n    }\n\n    function get_is_ac_owned_init () public constant returns (bool _is_ac_owned_init) {\n      _is_ac_owned_init = is_ac_owned_init;\n    }\n\n    function test_if_owner () if_owner() public constant returns (bool _success) {\n      return true;\n    }\n\n    function test_init_ac_owned () public returns (bool _success) {\n      _success = init_ac_owned();\n    }\n\n\n}\n",
  "sourcePath": "/home/vu/digix/cacp-contracts/contracts/Mock/MockACOwned.sol",
  "compiler": {
    "name": "solc",
    "version": "0.4.19+commit.c4cbbb05.Emscripten.clang"
  },
  "schemaVersion": "2.0.0",
  "updatedAt": "2018-03-19T06:36:08.584Z"
}