{
  "contractName": "MockACSimpleMutex",
  "abi": [
    {
      "constant": true,
      "inputs": [
        {
          "name": "_mutex_id",
          "type": "bytes32"
        }
      ],
      "name": "is_simple_mutex_locked",
      "outputs": [
        {
          "name": "_locked",
          "type": "bool"
        }
      ],
      "payable": false,
      "stateMutability": "view",
      "type": "function"
    },
    {
      "constant": false,
      "inputs": [
        {
          "name": "_mutex_id",
          "type": "bytes32"
        }
      ],
      "name": "set_mutex",
      "outputs": [],
      "payable": false,
      "stateMutability": "nonpayable",
      "type": "function"
    },
    {
      "constant": true,
      "inputs": [
        {
          "name": "_mutex_id",
          "type": "bytes32"
        }
      ],
      "name": "get_mutex",
      "outputs": [
        {
          "name": "_result",
          "type": "bool"
        }
      ],
      "payable": false,
      "stateMutability": "view",
      "type": "function"
    },
    {
      "constant": true,
      "inputs": [
        {
          "name": "_mutex_id",
          "type": "bytes32"
        }
      ],
      "name": "test_if_simple_mutex_is_locked",
      "outputs": [
        {
          "name": "_success",
          "type": "bool"
        }
      ],
      "payable": false,
      "stateMutability": "view",
      "type": "function"
    },
    {
      "constant": true,
      "inputs": [
        {
          "name": "_mutex_id",
          "type": "bytes32"
        }
      ],
      "name": "test_unless_simple_mutex_is_locked",
      "outputs": [
        {
          "name": "_success",
          "type": "bool"
        }
      ],
      "payable": false,
      "stateMutability": "view",
      "type": "function"
    },
    {
      "constant": false,
      "inputs": [
        {
          "name": "_mutex_id",
          "type": "bytes32"
        }
      ],
      "name": "test_lock_simple_mutex",
      "outputs": [
        {
          "name": "_success",
          "type": "bool"
        }
      ],
      "payable": false,
      "stateMutability": "nonpayable",
      "type": "function"
    },
    {
      "constant": false,
      "inputs": [
        {
          "name": "_mutex_id",
          "type": "bytes32"
        }
      ],
      "name": "test_unlock_simple_mutex",
      "outputs": [
        {
          "name": "_success",
          "type": "bool"
        }
      ],
      "payable": false,
      "stateMutability": "nonpayable",
      "type": "function"
    }
  ],
  "bytecode": "0x6060604052341561000f57600080fd5b6103dc8061001e6000396000f300606060405260043610610083576000357c0100000000000000000000000000000000000000000000000000000000900463ffffffff16806315e9904214610088578063221db71e146100c757806327379aa714610106578063806a2b8714610145578063981a67fb14610184578063b0cfd597146101ab578063b46c1678146101ea575b600080fd5b341561009357600080fd5b6100ad600480803560001916906020019091905050610229565b604051808215151515815260200191505060405180910390f35b34156100d257600080fd5b6100ec60048080356000191690602001909190505061023b565b604051808215151515815260200191505060405180910390f35b341561011157600080fd5b61012b60048080356000191690602001909190505061024d565b604051808215151515815260200191505060405180910390f35b341561015057600080fd5b61016a60048080356000191690602001909190505061027e565b604051808215151515815260200191505060405180910390f35b341561018f57600080fd5b6101a96004808035600019169060200190919050506102a6565b005b34156101b657600080fd5b6101d06004808035600019169060200190919050506102dc565b604051808215151515815260200191505060405180910390f35b34156101f557600080fd5b61020f60048080356000191690602001909190505061030d565b604051808215151515815260200191505060405180910390f35b600061023482610335565b9050919050565b600061024682610372565b9050919050565b6000806000836000191660001916815260200190815260200160002060009054906101000a900460ff169050919050565b6000816000151561028e8261024d565b151514151561029c57600080fd5b6001915050919050565b6001600080836000191660001916815260200190815260200160002060006101000a81548160ff02191690831515021790555050565b6000806000836000191660001916815260200190815260200160002060009054906101000a900460ff169050919050565b6000816001151561031d8261024d565b151514151561032b57600080fd5b6001915050919050565b600080600080846000191660001916815260200190815260200160002060006101000a81548160ff02191690831515021790555060019050919050565b60006001600080846000191660001916815260200190815260200160002060006101000a81548160ff021916908315150217905550600190509190505600a165627a7a72305820b924b99dc04bd3f55535a9c052efd0a139bc1904aff49fcb7e666e471149e9fe0029",
  "source": "pragma solidity ^0.4.19;\n\n/// @title Locking based access control\n/// @author DigixGlobal\nimport '../ACSimpleMutex.sol';\n\ncontract MockACSimpleMutex is ACSimpleMutex {\n\n  function set_mutex(bytes32 _mutex_id) public {\n    locks[_mutex_id] = true;\n  }\n\n  function get_mutex(bytes32 _mutex_id)\n           public\n           constant\n           returns (bool _result)\n  {\n    _result = locks[_mutex_id];\n  }\n\n  function test_if_simple_mutex_is_locked(bytes32 _mutex_id)\n           if_simple_mutex_is_locked(_mutex_id)\n           public\n           constant\n           returns (bool _success)\n  {\n        _success = true;\n  }\n\n  function test_unless_simple_mutex_is_locked(bytes32 _mutex_id)\n           unless_simple_mutex_is_locked(_mutex_id)\n           public\n           constant\n           returns (bool _success)\n  {\n    _success = true;\n  }\n\n  function test_lock_simple_mutex(bytes32 _mutex_id)\n           public\n           returns (bool _success)\n  {\n    _success = lock_simple_mutex(_mutex_id);\n  }\n\n  function test_unlock_simple_mutex(bytes32 _mutex_id)\n           public\n           returns (bool _success)\n  {\n    _success = unlock_simple_mutex(_mutex_id);\n  }\n\n}\n",
  "sourcePath": "/home/rohit/Develop/cacp-contracts/contracts/Mock/MockACSimpleMutex.sol",
  "compiler": {
    "name": "solc",
    "version": "0.4.19+commit.c4cbbb05.Emscripten.clang"
  },
  "schemaVersion": "1.0.1",
  "updatedAt": "2018-03-19T02:59:12.430Z"
}