{
  "contractName": "MockACConditions",
  "abi": [
    {
      "constant": true,
      "inputs": [
        {
          "name": "_contract",
          "type": "address"
        }
      ],
      "name": "is_contract",
      "outputs": [
        {
          "name": "_is_contract",
          "type": "bool"
        }
      ],
      "payable": false,
      "stateMutability": "view",
      "type": "function"
    },
    {
      "constant": true,
      "inputs": [
        {
          "name": "_item",
          "type": "address"
        }
      ],
      "name": "test_not_null_address",
      "outputs": [
        {
          "name": "_success",
          "type": "bool"
        }
      ],
      "payable": false,
      "stateMutability": "pure",
      "type": "function"
    },
    {
      "constant": true,
      "inputs": [
        {
          "name": "_item",
          "type": "address"
        }
      ],
      "name": "test_if_null_address",
      "outputs": [
        {
          "name": "_success",
          "type": "bool"
        }
      ],
      "payable": false,
      "stateMutability": "pure",
      "type": "function"
    },
    {
      "constant": true,
      "inputs": [
        {
          "name": "_item",
          "type": "uint256"
        }
      ],
      "name": "test_not_null_uint",
      "outputs": [
        {
          "name": "_success",
          "type": "bool"
        }
      ],
      "payable": false,
      "stateMutability": "pure",
      "type": "function"
    },
    {
      "constant": true,
      "inputs": [
        {
          "name": "_item",
          "type": "uint256"
        }
      ],
      "name": "test_if_null_uint",
      "outputs": [
        {
          "name": "_success",
          "type": "bool"
        }
      ],
      "payable": false,
      "stateMutability": "pure",
      "type": "function"
    },
    {
      "constant": true,
      "inputs": [
        {
          "name": "_item",
          "type": "bytes32"
        }
      ],
      "name": "test_not_empty_bytes",
      "outputs": [
        {
          "name": "_success",
          "type": "bool"
        }
      ],
      "payable": false,
      "stateMutability": "pure",
      "type": "function"
    },
    {
      "constant": true,
      "inputs": [
        {
          "name": "_item",
          "type": "bytes32"
        }
      ],
      "name": "test_if_empty_bytes",
      "outputs": [
        {
          "name": "_success",
          "type": "bool"
        }
      ],
      "payable": false,
      "stateMutability": "pure",
      "type": "function"
    },
    {
      "constant": true,
      "inputs": [
        {
          "name": "_item",
          "type": "string"
        }
      ],
      "name": "test_not_null_string",
      "outputs": [
        {
          "name": "_success",
          "type": "bool"
        }
      ],
      "payable": false,
      "stateMutability": "pure",
      "type": "function"
    },
    {
      "constant": true,
      "inputs": [
        {
          "name": "_item",
          "type": "string"
        }
      ],
      "name": "test_if_null_string",
      "outputs": [
        {
          "name": "_success",
          "type": "bool"
        }
      ],
      "payable": false,
      "stateMutability": "pure",
      "type": "function"
    },
    {
      "constant": true,
      "inputs": [
        {
          "name": "_requiredgas",
          "type": "uint256"
        }
      ],
      "name": "test_require_gas",
      "outputs": [
        {
          "name": "_success",
          "type": "bool"
        }
      ],
      "payable": false,
      "stateMutability": "view",
      "type": "function"
    },
    {
      "constant": true,
      "inputs": [
        {
          "name": "_contract",
          "type": "address"
        }
      ],
      "name": "test_if_contract",
      "outputs": [
        {
          "name": "_success",
          "type": "bool"
        }
      ],
      "payable": false,
      "stateMutability": "view",
      "type": "function"
    },
    {
      "constant": true,
      "inputs": [
        {
          "name": "_contract",
          "type": "address"
        }
      ],
      "name": "test_unless_contract",
      "outputs": [
        {
          "name": "_success",
          "type": "bool"
        }
      ],
      "payable": false,
      "stateMutability": "view",
      "type": "function"
    }
  ],
  "bytecode": "0x608060405234801561001057600080fd5b5061070d806100206000396000f3006080604052600436106100b9576000357c0100000000000000000000000000000000000000000000000000000000900463ffffffff16806246e9ce146100be578063175cd48b1461013f578063354794ad1461018457806341436c9e146101df5780636461d89214610224578063649c07d51461026d5780638bed6113146102c8578063b2681da214610311578063c616ff5e1461036c578063cb29c2eb146103b1578063e8cb773b1461040c578063f8d392de14610467575b600080fd5b3480156100ca57600080fd5b50610125600480360381019080803590602001908201803590602001908080601f01602080910402602001604051908101604052809392919081815260200183838082843782019150505050505091929192905050506104e8565b604051808215151515815260200191505060405180910390f35b34801561014b57600080fd5b5061016a6004803603810190808035906020019092919050505061050b565b604051808215151515815260200191505060405180910390f35b34801561019057600080fd5b506101c5600480360381019080803573ffffffffffffffffffffffffffffffffffffffff169060200190929190505050610528565b604051808215151515815260200191505060405180910390f35b3480156101eb57600080fd5b5061020a60048036038101908080359060200190929190505050610550565b604051808215151515815260200191505060405180910390f35b34801561023057600080fd5b506102536004803603810190808035600019169060200190929190505050610570565b604051808215151515815260200191505060405180910390f35b34801561027957600080fd5b506102ae600480360381019080803573ffffffffffffffffffffffffffffffffffffffff169060200190929190505050610598565b604051808215151515815260200191505060405180910390f35b3480156102d457600080fd5b506102f760048036038101908080356000191690602001909291905050506105c2565b604051808215151515815260200191505060405180910390f35b34801561031d57600080fd5b50610352600480360381019080803573ffffffffffffffffffffffffffffffffffffffff1690602001909291905050506105e9565b604051808215151515815260200191505060405180910390f35b34801561037857600080fd5b5061039760048036038101908080359060200190929190505050610611565b604051808215151515815260200191505060405180910390f35b3480156103bd57600080fd5b506103f2600480360381019080803573ffffffffffffffffffffffffffffffffffffffff16906020019092919050505061062d565b604051808215151515815260200191505060405180910390f35b34801561041857600080fd5b5061044d600480360381019080803573ffffffffffffffffffffffffffffffffffffffff169060200190929190505050610676565b604051808215151515815260200191505060405180910390f35b34801561047357600080fd5b506104ce600480360381019080803590602001908201803590602001908080601f01602080910402602001604051908101604052809392919081815260200183838082843782019150505050505091929192905050506106be565b604051808215151515815260200191505060405180910390f35b60008160608190506000815111151561050057600080fd5b600192505050919050565b6000816000811415151561051e57600080fd5b6001915050919050565b6000816001151561053882610598565b151514151561054657600080fd5b6001915050919050565b6000816155f081035a1015151561056657600080fd5b6001915050919050565b60008160006001026000191681600019161415151561058e57600080fd5b6001915050919050565b600080823b905060018163ffffffff1611156105b757600191506105bc565b600091505b50919050565b60008160006001026000191681600019161415156105df57600080fd5b6001915050919050565b600081600015156105f982610598565b151514151561060757600080fd5b6001915050919050565b60008160008114151561062357600080fd5b6001915050919050565b600081600073ffffffffffffffffffffffffffffffffffffffff168173ffffffffffffffffffffffffffffffffffffffff161415151561066c57600080fd5b6001915050919050565b600081600073ffffffffffffffffffffffffffffffffffffffff168173ffffffffffffffffffffffffffffffffffffffff161415156106b457600080fd5b6001915050919050565b6000816060819050600081511415156106d657600080fd5b6001925050509190505600a165627a7a72305820a12624d6679a6bc5115cf5f67060f8ce1a83c623abfc306ae24b297ff7c82b1a0029",
  "source": "pragma solidity ^0.4.19;\n\nimport \"../ACConditions.sol\";\n\n/// @title Condition based access control\n/// @author DigixGlobal\n\ncontract MockACConditions is ACConditions {\n\n  function test_not_null_address (address _item) not_null_address(_item) public pure returns (bool _success){\n    return true;\n  }\n\n  function test_if_null_address (address _item) if_null_address(_item) public pure returns (bool _success){\n    return true;\n  }\n\n  function test_not_null_uint (uint256 _item) not_null_uint(_item) public pure returns (bool _success){\n    return true;\n  }\n\n  function test_if_null_uint (uint256 _item) if_null_uint(_item) public pure returns (bool _success){\n    return true;\n  }\n\n  function test_not_empty_bytes (bytes32 _item) not_empty_bytes(_item) public pure returns (bool _success){\n    return true;\n  }\n\n  function test_if_empty_bytes (bytes32 _item) if_empty_bytes(_item) public pure returns (bool _success){\n    return true;\n  }\n\n  function test_not_null_string (string _item) not_null_string(_item) public pure returns (bool _success) {\n    return true;\n  }\n\n  function test_if_null_string (string _item) if_null_string(_item) public pure returns (bool _success) {\n    return true;\n  }\n\n  function test_require_gas (uint256 _requiredgas) require_gas(_requiredgas) public constant returns (bool _success) {\n    return true;\n  }\n\n  function test_if_contract (address _contract) if_contract(_contract) public constant returns (bool _success) {\n    return true;\n  }\n\n  function test_unless_contract (address _contract) unless_contract(_contract) public constant returns (bool _success) {\n    return true;\n  }\n}\n",
  "sourcePath": "/home/rohit/Develop/cacp-contracts/contracts/Mock/MockACConditions.sol",
  "compiler": {
    "name": "solc",
    "version": "0.4.24+commit.e67f0147.Emscripten.clang"
  },
  "schemaVersion": "2.0.0",
  "updatedAt": "2018-08-17T06:51:00.388Z"
}