{
  "contractName": "ResolverClient",
  "abi": [
    {
      "constant": true,
      "inputs": [],
      "name": "resolver",
      "outputs": [
        {
          "name": "",
          "type": "address"
        }
      ],
      "payable": false,
      "stateMutability": "view",
      "type": "function"
    },
    {
      "constant": true,
      "inputs": [],
      "name": "key",
      "outputs": [
        {
          "name": "",
          "type": "bytes32"
        }
      ],
      "payable": false,
      "stateMutability": "view",
      "type": "function"
    },
    {
      "constant": true,
      "inputs": [],
      "name": "CONTRACT_ADDRESS",
      "outputs": [
        {
          "name": "",
          "type": "address"
        }
      ],
      "payable": false,
      "stateMutability": "view",
      "type": "function"
    },
    {
      "constant": false,
      "inputs": [],
      "name": "destroy",
      "outputs": [
        {
          "name": "_success",
          "type": "bool"
        }
      ],
      "payable": false,
      "stateMutability": "nonpayable",
      "type": "function"
    },
    {
      "constant": true,
      "inputs": [
        {
          "name": "_key",
          "type": "bytes32"
        }
      ],
      "name": "get_contract",
      "outputs": [
        {
          "name": "_contract",
          "type": "address"
        }
      ],
      "payable": false,
      "stateMutability": "view",
      "type": "function"
    }
  ],
  "bytecode": "0x6060604052341561000f57600080fd5b6105a68061001e6000396000f30060606040526004361061006d576000357c0100000000000000000000000000000000000000000000000000000000900463ffffffff16806304f3bcec146100725780633943380c146100c75780633f83acff146100f857806383197ef01461015f578063db4ecbc11461018c575b600080fd5b341561007d57600080fd5b6100856101e1565b604051808273ffffffffffffffffffffffffffffffffffffffff1673ffffffffffffffffffffffffffffffffffffffff16815260200191505060405180910390f35b34156100d257600080fd5b6100da610206565b60405180826000191660001916815260200191505060405180910390f35b341561010357600080fd5b61011d60048080356000191690602001909190505061020c565b604051808273ffffffffffffffffffffffffffffffffffffffff1673ffffffffffffffffffffffffffffffffffffffff16815260200191505060405180910390f35b341561016a57600080fd5b6101726102d0565b604051808215151515815260200191505060405180910390f35b341561019757600080fd5b61019f610554565b604051808273ffffffffffffffffffffffffffffffffffffffff1673ffffffffffffffffffffffffffffffffffffffff16815260200191505060405180910390f35b6000809054906101000a900473ffffffffffffffffffffffffffffffffffffffff1681565b60015481565b60008060009054906101000a900473ffffffffffffffffffffffffffffffffffffffff1673ffffffffffffffffffffffffffffffffffffffff16633f83acff836000604051602001526040518263ffffffff167c0100000000000000000000000000000000000000000000000000000000028152600401808260001916600019168152602001915050602060405180830381600087803b15156102ae57600080fd5b6102c65a03f115156102bf57600080fd5b505050604051805190509050919050565b60008060008060009054906101000a900473ffffffffffffffffffffffffffffffffffffffff1673ffffffffffffffffffffffffffffffffffffffff1663cf3090126000604051602001526040518163ffffffff167c0100000000000000000000000000000000000000000000000000000000028152600401602060405180830381600087803b151561036257600080fd5b6102c65a03f1151561037357600080fd5b5050506040518051905091508115151561038c57600080fd5b6000809054906101000a900473ffffffffffffffffffffffffffffffffffffffff1673ffffffffffffffffffffffffffffffffffffffff16638da5cb5b6000604051602001526040518163ffffffff167c0100000000000000000000000000000000000000000000000000000000028152600401602060405180830381600087803b151561041957600080fd5b6102c65a03f1151561042a57600080fd5b5050506040518051905090508073ffffffffffffffffffffffffffffffffffffffff163373ffffffffffffffffffffffffffffffffffffffff1614151561047057600080fd5b6000809054906101000a900473ffffffffffffffffffffffffffffffffffffffff1673ffffffffffffffffffffffffffffffffffffffff1663c8b56bda6001546000604051602001526040518263ffffffff167c0100000000000000000000000000000000000000000000000000000000028152600401808260001916600019168152602001915050602060405180830381600087803b151561051257600080fd5b6102c65a03f1151561052357600080fd5b50505060405180519050925082151561053b57600080fd5b8073ffffffffffffffffffffffffffffffffffffffff16ff5b600260009054906101000a900473ffffffffffffffffffffffffffffffffffffffff16815600a165627a7a7230582020ce4b517e39b87a5d3f382bf5bebd78147fb2f869b5c0d002de94c171c7a5bf0029",
  "source": "pragma solidity ^0.4.19;\n\nimport \"./ContractResolver.sol\";\nimport \"./ACOwned.sol\";\n\n/// @title Contract Resolver Interface\n/// @author DigixGlobal\n\ncontract ResolverClient {\n\n  /// The address of the resolver contract for this project\n  address public resolver;\n  bytes32 public key;\n\n  /// Make our own address available to us as a constant\n  address public CONTRACT_ADDRESS;\n\n  /// Function modifier to check if msg.sender corresponds to the resolved address of a given key\n  /// @param _contract The resolver key\n  modifier if_sender_is(bytes32 _contract) {\n    require(msg.sender == ContractResolver(resolver).get_contract(_contract));\n    _;\n  }\n\n  /// Function modifier to check resolver's locking status.\n  modifier unless_resolver_is_locked() {\n    require(is_locked() == false);\n    _;\n  }\n\n  /// @dev Initialize new contract\n  /// @param _key the resolver key for this contract\n  /// @return _success if the initialization is successful\n  function init(bytes32 _key, address _resolver)\n           internal\n           returns (bool _success)\n  {\n    bool _is_locked = ContractResolver(_resolver).locked();\n    if (_is_locked == false) {\n      CONTRACT_ADDRESS = address(this);\n      resolver = _resolver;\n      key = _key;\n      require(ContractResolver(resolver).init_register_contract(key, CONTRACT_ADDRESS));\n      _success = true;\n    }  else {\n      _success = false;\n    }\n  }\n\n  /// @dev Destroy the contract and unregister self from the ContractResolver\n  /// @dev Can only be called by the owner of ContractResolver\n  function destroy()\n           public\n           returns (bool _success)\n  {\n    bool _is_locked = ContractResolver(resolver).locked();\n    require(!_is_locked);\n\n    address _owner_of_contract_resolver = ContractResolver(resolver).owner();\n    require(msg.sender == _owner_of_contract_resolver);\n\n    _success = ContractResolver(resolver).unregister_contract(key);\n    require(_success);\n\n    selfdestruct(_owner_of_contract_resolver);\n  }\n\n  /// @dev Check if resolver is locked\n  /// @return _locked if the resolver is currently locked\n  function is_locked()\n           private\n           constant\n           returns (bool _locked)\n  {\n    _locked = ContractResolver(resolver).locked();\n  }\n\n  /// @dev Get the address of a contract\n  /// @param _key the resolver key to look up\n  /// @return _contract the address of the contract\n  function get_contract(bytes32 _key)\n           public\n           constant\n           returns (address _contract)\n  {\n    _contract = ContractResolver(resolver).get_contract(_key);\n  }\n}\n",
  "sourcePath": "/home/vu/digix/cacp-contracts/contracts/ResolverClient.sol",
  "compiler": {
    "name": "solc",
    "version": "0.4.19+commit.c4cbbb05.Emscripten.clang"
  },
  "schemaVersion": "2.0.0",
  "updatedAt": "2018-03-16T09:38:56.920Z"
}