{
  "contractName": "ResolverClient",
  "abi": [
    {
      "constant": true,
      "inputs": [],
      "name": "resolver",
      "outputs": [
        {
          "name": "",
          "type": "address"
        }
      ],
      "payable": false,
      "stateMutability": "view",
      "type": "function"
    },
    {
      "constant": false,
      "inputs": [
        {
          "name": "_new_owner",
          "type": "address"
        }
      ],
      "name": "change_owner",
      "outputs": [
        {
          "name": "_success",
          "type": "bool"
        }
      ],
      "payable": false,
      "stateMutability": "nonpayable",
      "type": "function"
    },
    {
      "constant": true,
      "inputs": [],
      "name": "key",
      "outputs": [
        {
          "name": "",
          "type": "bytes32"
        }
      ],
      "payable": false,
      "stateMutability": "view",
      "type": "function"
    },
    {
      "constant": true,
      "inputs": [],
      "name": "new_owner",
      "outputs": [
        {
          "name": "",
          "type": "address"
        }
      ],
      "payable": false,
      "stateMutability": "view",
      "type": "function"
    },
    {
      "constant": true,
      "inputs": [],
      "name": "owner",
      "outputs": [
        {
          "name": "",
          "type": "address"
        }
      ],
      "payable": false,
      "stateMutability": "view",
      "type": "function"
    },
    {
      "constant": true,
      "inputs": [],
      "name": "CONTRACT_ADDRESS",
      "outputs": [
        {
          "name": "",
          "type": "address"
        }
      ],
      "payable": false,
      "stateMutability": "view",
      "type": "function"
    },
    {
      "constant": false,
      "inputs": [],
      "name": "claim_ownership",
      "outputs": [
        {
          "name": "_success",
          "type": "bool"
        }
      ],
      "payable": false,
      "stateMutability": "nonpayable",
      "type": "function"
    },
    {
      "constant": false,
      "inputs": [],
      "name": "destroy",
      "outputs": [
        {
          "name": "_success",
          "type": "bool"
        }
      ],
      "payable": false,
      "stateMutability": "nonpayable",
      "type": "function"
    },
    {
      "constant": true,
      "inputs": [
        {
          "name": "_key",
          "type": "bytes32"
        }
      ],
      "name": "get_contract",
      "outputs": [
        {
          "name": "_contract",
          "type": "address"
        }
      ],
      "payable": false,
      "stateMutability": "view",
      "type": "function"
    }
  ],
  "bytecode": "0x6060604052341561000f57600080fd5b6107f78061001e6000396000f300606060405260043610610099576000357c0100000000000000000000000000000000000000000000000000000000900463ffffffff16806304f3bcec1461009e578063253c8bd4146100f35780633943380c146101445780633f83acff146101755780634552b04f146101dc57806383197ef0146102315780638da5cb5b1461025e578063db4ecbc1146102b3578063f7a79a0214610308575b600080fd5b34156100a957600080fd5b6100b1610335565b604051808273ffffffffffffffffffffffffffffffffffffffff1673ffffffffffffffffffffffffffffffffffffffff16815260200191505060405180910390f35b34156100fe57600080fd5b61012a600480803573ffffffffffffffffffffffffffffffffffffffff1690602001909190505061035b565b604051808215151515815260200191505060405180910390f35b341561014f57600080fd5b6101576103ba565b60405180826000191660001916815260200191505060405180910390f35b341561018057600080fd5b61019a6004808035600019169060200190919050506103c0565b604051808273ffffffffffffffffffffffffffffffffffffffff1673ffffffffffffffffffffffffffffffffffffffff16815260200191505060405180910390f35b34156101e757600080fd5b6101ef610485565b604051808273ffffffffffffffffffffffffffffffffffffffff1673ffffffffffffffffffffffffffffffffffffffff16815260200191505060405180910390f35b341561023c57600080fd5b6102446104ab565b604051808215151515815260200191505060405180910390f35b341561026957600080fd5b610271610662565b604051808273ffffffffffffffffffffffffffffffffffffffff1673ffffffffffffffffffffffffffffffffffffffff16815260200191505060405180910390f35b34156102be57600080fd5b6102c6610687565b604051808273ffffffffffffffffffffffffffffffffffffffff1673ffffffffffffffffffffffffffffffffffffffff16815260200191505060405180910390f35b341561031357600080fd5b61031b6106ad565b604051808215151515815260200191505060405180910390f35b600260009054906101000a900473ffffffffffffffffffffffffffffffffffffffff1681565b6000610365610774565b151561037057600080fd5b81600160006101000a81548173ffffffffffffffffffffffffffffffffffffffff021916908373ffffffffffffffffffffffffffffffffffffffff16021790555060019050919050565b60035481565b6000600260009054906101000a900473ffffffffffffffffffffffffffffffffffffffff1673ffffffffffffffffffffffffffffffffffffffff16633f83acff836000604051602001526040518263ffffffff167c0100000000000000000000000000000000000000000000000000000000028152600401808260001916600019168152602001915050602060405180830381600087803b151561046357600080fd5b6102c65a03f1151561047457600080fd5b505050604051805190509050919050565b600160009054906101000a900473ffffffffffffffffffffffffffffffffffffffff1681565b6000806104b6610774565b15156104c157600080fd5b600260009054906101000a900473ffffffffffffffffffffffffffffffffffffffff1673ffffffffffffffffffffffffffffffffffffffff1663cf3090126000604051602001526040518163ffffffff167c0100000000000000000000000000000000000000000000000000000000028152600401602060405180830381600087803b151561054f57600080fd5b6102c65a03f1151561056057600080fd5b50505060405180519050905060001515811515141561065e57600260009054906101000a900473ffffffffffffffffffffffffffffffffffffffff1673ffffffffffffffffffffffffffffffffffffffff1663c8b56bda6003546000604051602001526040518263ffffffff167c0100000000000000000000000000000000000000000000000000000000028152600401808260001916600019168152602001915050602060405180830381600087803b151561061c57600080fd5b6102c65a03f1151561062d57600080fd5b50505060405180519050915081151561064557600080fd5b3273ffffffffffffffffffffffffffffffffffffffff16ff5b5090565b6000809054906101000a900473ffffffffffffffffffffffffffffffffffffffff1681565b600460009054906101000a900473ffffffffffffffffffffffffffffffffffffffff1681565b6000600160009054906101000a900473ffffffffffffffffffffffffffffffffffffffff1673ffffffffffffffffffffffffffffffffffffffff163373ffffffffffffffffffffffffffffffffffffffff1614151561070b57600080fd5b600160009054906101000a900473ffffffffffffffffffffffffffffffffffffffff166000806101000a81548173ffffffffffffffffffffffffffffffffffffffff021916908373ffffffffffffffffffffffffffffffffffffffff1602179055506001905090565b60008060009054906101000a900473ffffffffffffffffffffffffffffffffffffffff1673ffffffffffffffffffffffffffffffffffffffff163373ffffffffffffffffffffffffffffffffffffffff16149050905600a165627a7a723058209d5b6327733c7a9acf2081cc2de871a649782bfe531c5281d1f5597b9e208a240029",
  "source": "pragma solidity ^0.4.19;\n\nimport \"./ContractResolver.sol\";\nimport \"./ACOwned.sol\";\n\n/// @title Contract Resolver Interface\n/// @author DigixGlobal\n\ncontract ResolverClient is ACOwned {\n\n  /// The address of the resolver contract for this project\n  address public resolver;\n  bytes32 public key;\n\n  /// Make our own address available to us as a constant\n  address public CONTRACT_ADDRESS;\n\n  /// Function modifier to check if msg.sender corresponds to the resolved address of a given key\n  /// @param _contract The resolver key\n  modifier if_sender_is(bytes32 _contract) {\n    require(msg.sender == ContractResolver(resolver).get_contract(_contract));\n    _;\n  }\n\n  /// Function modifier to check resolver's locking status.\n  modifier unless_resolver_is_locked() {\n    require(is_locked() == false);\n    _;\n  }\n\n  /// @dev Initialize new contract\n  /// @param _key the resolver key for this contract\n  /// @return _success if the initialization is successful\n  function init(bytes32 _key, address _resolver)\n           internal\n           returns (bool _success)\n  {\n    bool _is_locked = ContractResolver(_resolver).locked();\n    if (_is_locked == false) {\n      CONTRACT_ADDRESS = address(this);\n      resolver = _resolver;\n      key = _key;\n      require(init_ac_owned());\n      require(ContractResolver(resolver).init_register_contract(key, CONTRACT_ADDRESS));\n      _success = true;\n    }  else {\n      _success = false;\n    }\n  }\n\n  /// @dev Destroy the contract and unregister self from the ContractResolver\n  function destroy()\n           if_owner()\n           public\n           returns (bool _success)\n  {\n    bool _is_locked = ContractResolver(resolver).locked();\n    if (_is_locked == false) {\n      _success = ContractResolver(resolver).unregister_contract(key);\n      require(_success);\n      selfdestruct(tx.origin);\n    }\n  }\n\n  /// @dev Check if resolver is locked\n  /// @return _locked if the resolver is currently locked\n  function is_locked()\n           private\n           constant\n           returns (bool _locked)\n  {\n    _locked = ContractResolver(resolver).locked();\n  }\n\n  /// @dev Get the address of a contract\n  /// @param _key the resolver key to look up\n  /// @return _contract the address of the contract\n  function get_contract(bytes32 _key)\n           public\n           constant\n           returns (address _contract)\n  {\n    _contract = ContractResolver(resolver).get_contract(_key);\n  }\n}\n",
  "sourcePath": "/home/rohit/Develop/cacp-contracts/contracts/ResolverClient.sol",
  "compiler": {
    "name": "solc",
    "version": "0.4.19+commit.c4cbbb05.Emscripten.clang"
  },
  "schemaVersion": "1.0.1",
  "updatedAt": "2018-03-15T07:10:37.541Z"
}