{
  "contractName": "ResolverClient",
  "abi": [
    {
      "constant": true,
      "inputs": [],
      "name": "resolver",
      "outputs": [
        {
          "name": "",
          "type": "address"
        }
      ],
      "payable": false,
      "stateMutability": "view",
      "type": "function"
    },
    {
      "constant": true,
      "inputs": [],
      "name": "key",
      "outputs": [
        {
          "name": "",
          "type": "bytes32"
        }
      ],
      "payable": false,
      "stateMutability": "view",
      "type": "function"
    },
    {
      "constant": true,
      "inputs": [],
      "name": "CONTRACT_ADDRESS",
      "outputs": [
        {
          "name": "",
          "type": "address"
        }
      ],
      "payable": false,
      "stateMutability": "view",
      "type": "function"
    },
    {
      "constant": true,
      "inputs": [
        {
          "name": "_key",
          "type": "bytes32"
        }
      ],
      "name": "get_contract",
      "outputs": [
        {
          "name": "_contract",
          "type": "address"
        }
      ],
      "payable": false,
      "stateMutability": "view",
      "type": "function"
    }
  ],
  "bytecode": "0x608060405234801561001057600080fd5b50610312806100206000396000f300608060405260043610610062576000357c0100000000000000000000000000000000000000000000000000000000900463ffffffff16806304f3bcec146100675780633943380c146100be5780633f83acff146100f1578063db4ecbc114610162575b600080fd5b34801561007357600080fd5b5061007c6101b9565b604051808273ffffffffffffffffffffffffffffffffffffffff1673ffffffffffffffffffffffffffffffffffffffff16815260200191505060405180910390f35b3480156100ca57600080fd5b506100d36101de565b60405180826000191660001916815260200191505060405180910390f35b3480156100fd57600080fd5b5061012060048036038101908080356000191690602001909291905050506101e4565b604051808273ffffffffffffffffffffffffffffffffffffffff1673ffffffffffffffffffffffffffffffffffffffff16815260200191505060405180910390f35b34801561016e57600080fd5b506101776102c0565b604051808273ffffffffffffffffffffffffffffffffffffffff1673ffffffffffffffffffffffffffffffffffffffff16815260200191505060405180910390f35b6000809054906101000a900473ffffffffffffffffffffffffffffffffffffffff1681565b60015481565b60008060009054906101000a900473ffffffffffffffffffffffffffffffffffffffff1673ffffffffffffffffffffffffffffffffffffffff16633f83acff836040518263ffffffff167c0100000000000000000000000000000000000000000000000000000000028152600401808260001916600019168152602001915050602060405180830381600087803b15801561027e57600080fd5b505af1158015610292573d6000803e3d6000fd5b505050506040513d60208110156102a857600080fd5b81019080805190602001909291905050509050919050565b600260009054906101000a900473ffffffffffffffffffffffffffffffffffffffff16815600a165627a7a723058205200cee10456b21289c602241412cd52376bd8e306e3c798e7f3a943835d3ef40029",
  "source": "pragma solidity ^0.4.19;\n\nimport \"./ContractResolver.sol\";\nimport \"./ACOwned.sol\";\n\n/// @title Contract Resolver Interface\n/// @author DigixGlobal\n\ncontract ResolverClient {\n\n  /// The address of the resolver contract for this project\n  address public resolver;\n  bytes32 public key;\n\n  /// Make our own address available to us as a constant\n  address public CONTRACT_ADDRESS;\n\n  /// Function modifier to check if msg.sender corresponds to the resolved address of a given key\n  /// @param _contract The resolver key\n  modifier if_sender_is(bytes32 _contract) {\n    require(msg.sender == ContractResolver(resolver).get_contract(_contract));\n    _;\n  }\n\n  modifier if_sender_is_from(bytes32[] _contracts) {\n    bool _valid = false;\n    uint256 _n = _contracts.length;\n    for (uint256 i = 0; i < _n; i++) {\n      if (msg.sender == ContractResolver(resolver).get_contract(_contracts[i])) {\n        _valid = true;\n      }\n    }\n    require(_valid);\n    _;\n  }\n\n  /// Function modifier to check resolver's locking status.\n  modifier unless_resolver_is_locked() {\n    require(is_locked() == false);\n    _;\n  }\n\n  /// @dev Initialize new contract\n  /// @param _key the resolver key for this contract\n  /// @return _success if the initialization is successful\n  function init(bytes32 _key, address _resolver)\n           internal\n           returns (bool _success)\n  {\n    bool _is_locked = ContractResolver(_resolver).locked();\n    if (_is_locked == false) {\n      CONTRACT_ADDRESS = address(this);\n      resolver = _resolver;\n      key = _key;\n      require(ContractResolver(resolver).init_register_contract(key, CONTRACT_ADDRESS));\n      _success = true;\n    }  else {\n      _success = false;\n    }\n  }\n\n  /// @dev Destroy the contract and unregister self from the ContractResolver\n  /// @dev Can only be called by the owner of ContractResolver\n  /* function destroy()\n           public\n           returns (bool _success)\n  {\n    bool _is_locked = ContractResolver(resolver).locked();\n    require(!_is_locked);\n\n    address _owner_of_contract_resolver = ContractResolver(resolver).owner();\n    require(msg.sender == _owner_of_contract_resolver);\n\n    _success = ContractResolver(resolver).unregister_contract(key);\n    require(_success);\n\n    selfdestruct(_owner_of_contract_resolver);\n  } */\n\n  /// @dev Check if resolver is locked\n  /// @return _locked if the resolver is currently locked\n  function is_locked()\n           private\n           constant\n           returns (bool _locked)\n  {\n    _locked = ContractResolver(resolver).locked();\n  }\n\n  /// @dev Get the address of a contract\n  /// @param _key the resolver key to look up\n  /// @return _contract the address of the contract\n  function get_contract(bytes32 _key)\n           public\n           constant\n           returns (address _contract)\n  {\n    _contract = ContractResolver(resolver).get_contract(_key);\n  }\n}\n",
  "sourcePath": "/home/rohit/Develop/cacp-contracts/contracts/ResolverClient.sol",
  "compiler": {
    "name": "solc",
    "version": "0.4.23+commit.124ca40d.Emscripten.clang"
  },
  "schemaVersion": "2.0.0",
  "updatedAt": "2018-05-30T02:43:30.995Z"
}