{
  "contractName": "ResolverClient",
  "abi": [
    {
      "constant": true,
      "inputs": [],
      "name": "resolver",
      "outputs": [
        {
          "name": "",
          "type": "address"
        }
      ],
      "payable": false,
      "stateMutability": "view",
      "type": "function"
    },
    {
      "constant": false,
      "inputs": [
        {
          "name": "_new_owner",
          "type": "address"
        }
      ],
      "name": "change_owner",
      "outputs": [
        {
          "name": "_success",
          "type": "bool"
        }
      ],
      "payable": false,
      "stateMutability": "nonpayable",
      "type": "function"
    },
    {
      "constant": true,
      "inputs": [],
      "name": "key",
      "outputs": [
        {
          "name": "",
          "type": "bytes32"
        }
      ],
      "payable": false,
      "stateMutability": "view",
      "type": "function"
    },
    {
      "constant": true,
      "inputs": [],
      "name": "new_owner",
      "outputs": [
        {
          "name": "",
          "type": "address"
        }
      ],
      "payable": false,
      "stateMutability": "view",
      "type": "function"
    },
    {
      "constant": true,
      "inputs": [],
      "name": "owner",
      "outputs": [
        {
          "name": "",
          "type": "address"
        }
      ],
      "payable": false,
      "stateMutability": "view",
      "type": "function"
    },
    {
      "constant": true,
      "inputs": [],
      "name": "is_owner",
      "outputs": [
        {
          "name": "_is_owner",
          "type": "bool"
        }
      ],
      "payable": false,
      "stateMutability": "view",
      "type": "function"
    },
    {
      "constant": true,
      "inputs": [],
      "name": "CONTRACT_ADDRESS",
      "outputs": [
        {
          "name": "",
          "type": "address"
        }
      ],
      "payable": false,
      "stateMutability": "view",
      "type": "function"
    },
    {
      "constant": false,
      "inputs": [],
      "name": "claim_ownership",
      "outputs": [
        {
          "name": "_success",
          "type": "bool"
        }
      ],
      "payable": false,
      "stateMutability": "nonpayable",
      "type": "function"
    },
    {
      "constant": false,
      "inputs": [],
      "name": "destroy",
      "outputs": [
        {
          "name": "_success",
          "type": "bool"
        }
      ],
      "payable": false,
      "stateMutability": "nonpayable",
      "type": "function"
    },
    {
      "constant": true,
      "inputs": [],
      "name": "is_locked",
      "outputs": [
        {
          "name": "_locked",
          "type": "bool"
        }
      ],
      "payable": false,
      "stateMutability": "view",
      "type": "function"
    },
    {
      "constant": true,
      "inputs": [
        {
          "name": "_key",
          "type": "bytes32"
        }
      ],
      "name": "get_contract",
      "outputs": [
        {
          "name": "_contract",
          "type": "address"
        }
      ],
      "payable": false,
      "stateMutability": "view",
      "type": "function"
    }
  ],
  "bytecode": "0x6060604052341561000f57600080fd5b6109178061001e6000396000f3006060604052600436106100af576000357c0100000000000000000000000000000000000000000000000000000000900463ffffffff16806304f3bcec146100b4578063253c8bd4146101095780633943380c1461015a5780633f83acff1461018b5780634552b04f146101f257806383197ef0146102475780638da5cb5b14610274578063a63c500f146102c9578063ad721ff6146102f6578063db4ecbc114610323578063f7a79a0214610378575b600080fd5b34156100bf57600080fd5b6100c76103a5565b604051808273ffffffffffffffffffffffffffffffffffffffff1673ffffffffffffffffffffffffffffffffffffffff16815260200191505060405180910390f35b341561011457600080fd5b610140600480803573ffffffffffffffffffffffffffffffffffffffff169060200190919050506103cb565b604051808215151515815260200191505060405180910390f35b341561016557600080fd5b61016d61042a565b60405180826000191660001916815260200191505060405180910390f35b341561019657600080fd5b6101b0600480803560001916906020019091905050610430565b604051808273ffffffffffffffffffffffffffffffffffffffff1673ffffffffffffffffffffffffffffffffffffffff16815260200191505060405180910390f35b34156101fd57600080fd5b6102056104f5565b604051808273ffffffffffffffffffffffffffffffffffffffff1673ffffffffffffffffffffffffffffffffffffffff16815260200191505060405180910390f35b341561025257600080fd5b61025a61051b565b604051808215151515815260200191505060405180910390f35b341561027f57600080fd5b6102876106d2565b604051808273ffffffffffffffffffffffffffffffffffffffff1673ffffffffffffffffffffffffffffffffffffffff16815260200191505060405180910390f35b34156102d457600080fd5b6102dc6106f7565b604051808215151515815260200191505060405180910390f35b341561030157600080fd5b6103096107a7565b604051808215151515815260200191505060405180910390f35b341561032e57600080fd5b6103366107fe565b604051808273ffffffffffffffffffffffffffffffffffffffff1673ffffffffffffffffffffffffffffffffffffffff16815260200191505060405180910390f35b341561038357600080fd5b61038b610824565b604051808215151515815260200191505060405180910390f35b600260009054906101000a900473ffffffffffffffffffffffffffffffffffffffff1681565b60006103d56107a7565b15156103e057600080fd5b81600160006101000a81548173ffffffffffffffffffffffffffffffffffffffff021916908373ffffffffffffffffffffffffffffffffffffffff16021790555060019050919050565b60035481565b6000600260009054906101000a900473ffffffffffffffffffffffffffffffffffffffff1673ffffffffffffffffffffffffffffffffffffffff16633f83acff836000604051602001526040518263ffffffff167c0100000000000000000000000000000000000000000000000000000000028152600401808260001916600019168152602001915050602060405180830381600087803b15156104d357600080fd5b6102c65a03f115156104e457600080fd5b505050604051805190509050919050565b600160009054906101000a900473ffffffffffffffffffffffffffffffffffffffff1681565b6000806105266107a7565b151561053157600080fd5b600260009054906101000a900473ffffffffffffffffffffffffffffffffffffffff1673ffffffffffffffffffffffffffffffffffffffff1663cf3090126000604051602001526040518163ffffffff167c0100000000000000000000000000000000000000000000000000000000028152600401602060405180830381600087803b15156105bf57600080fd5b6102c65a03f115156105d057600080fd5b5050506040518051905090506000151581151514156106ce57600260009054906101000a900473ffffffffffffffffffffffffffffffffffffffff1673ffffffffffffffffffffffffffffffffffffffff1663c8b56bda6003546000604051602001526040518263ffffffff167c0100000000000000000000000000000000000000000000000000000000028152600401808260001916600019168152602001915050602060405180830381600087803b151561068c57600080fd5b6102c65a03f1151561069d57600080fd5b5050506040518051905091508115156106b557600080fd5b3273ffffffffffffffffffffffffffffffffffffffff16ff5b5090565b6000809054906101000a900473ffffffffffffffffffffffffffffffffffffffff1681565b6000600260009054906101000a900473ffffffffffffffffffffffffffffffffffffffff1673ffffffffffffffffffffffffffffffffffffffff1663cf3090126000604051602001526040518163ffffffff167c0100000000000000000000000000000000000000000000000000000000028152600401602060405180830381600087803b151561078757600080fd5b6102c65a03f1151561079857600080fd5b50505060405180519050905090565b60008060009054906101000a900473ffffffffffffffffffffffffffffffffffffffff1673ffffffffffffffffffffffffffffffffffffffff163373ffffffffffffffffffffffffffffffffffffffff1614905090565b600460009054906101000a900473ffffffffffffffffffffffffffffffffffffffff1681565b6000600160009054906101000a900473ffffffffffffffffffffffffffffffffffffffff1673ffffffffffffffffffffffffffffffffffffffff163373ffffffffffffffffffffffffffffffffffffffff1614151561088257600080fd5b600160009054906101000a900473ffffffffffffffffffffffffffffffffffffffff166000806101000a81548173ffffffffffffffffffffffffffffffffffffffff021916908373ffffffffffffffffffffffffffffffffffffffff16021790555060019050905600a165627a7a7230582064687caaa81042e5e8ced29cb4201dec98fedef29d95cb987bf77f079a85a7d20029",
  "source": "pragma solidity ^0.4.19;\n\nimport \"./ContractResolver.sol\";\nimport \"./ACOwned.sol\";\n\n/// @title Contract Resolver Interface\n/// @author DigixGlobal\n\ncontract ResolverClient is ACOwned {\n\n  /// The address of the resolver contract for this project\n  address public resolver;\n  bytes32 public key;\n\n  /// Make our own address available to us as a constant\n  address public CONTRACT_ADDRESS;\n\n  /// Function modifier to check if msg.sender corresponds to the resolved address of a given key\n  /// @param _contract The resolver key\n  modifier if_sender_is(bytes32 _contract) {\n    require(msg.sender == ContractResolver(resolver).get_contract(_contract));\n    _;\n  }\n\n  /// Function modifier to check resolver's locking status.\n  modifier unless_resolver_is_locked() {\n    require(is_locked() == false);\n    _;\n  }\n\n  /// @dev Initialize new contract\n  /// @param _key the resolver key for this contract\n  /// @return _success if the initialization is successful\n  function init(bytes32 _key, address _resolver)\n           internal\n           returns (bool _success)\n  {\n    bool _is_locked = ContractResolver(_resolver).locked();\n    if (_is_locked == false) {\n      CONTRACT_ADDRESS = address(this);\n      resolver = _resolver;\n      key = _key;\n      require(init_ac_owned());\n      require(ContractResolver(resolver).init_register_contract(key, CONTRACT_ADDRESS));\n      _success = true;\n    }  else {\n      _success = false;\n    }\n  }\n\n  /// @dev Destroy the contract and unregister self from the ContractResolver\n  function destroy()\n           if_owner()\n           public\n           returns (bool _success)\n  {\n    bool _is_locked = ContractResolver(resolver).locked();\n    if (_is_locked == false) {\n      _success = ContractResolver(resolver).unregister_contract(key);\n      require(_success);\n      selfdestruct(tx.origin);\n    }\n  }\n\n  /// @dev Check if resolver is locked\n  /// @return _locked if the resolver is currently locked\n  function is_locked()\n           public\n           constant\n           returns (bool _locked)\n  {\n    _locked = ContractResolver(resolver).locked();\n  }\n\n  /// @dev Get the address of a contract\n  /// @param _key the resolver key to look up\n  /// @return _contract the address of the contract\n  function get_contract(bytes32 _key)\n           public\n           constant\n           returns (address _contract)\n  {\n    _contract = ContractResolver(resolver).get_contract(_key);\n  }\n}\n",
  "sourcePath": "/home/vu/digix/cacp-contracts/contracts/ResolverClient.sol",
  "compiler": {
    "name": "solc",
    "version": "0.4.19+commit.c4cbbb05.Emscripten.clang"
  },
  "schemaVersion": "2.0.0",
  "updatedAt": "2018-03-13T06:46:52.614Z"
}